{
	"data": {
		"bytecode": {
			"linkReferences": {},
			"object": "608060405234801561000f575f80fd5b5061123c8061001d5f395ff3fe608060405234801561000f575f80fd5b5060043610610060575f3560e01c80631f16653b146100645780632bd63206146100825780633cc131a11461009e5780637acc0b20146100ba578063bf191169146100f0578063dfe00c511461010c575b5f80fd5b61006c610128565b604051610079919061091b565b60405180910390f35b61009c600480360381019061009791906109c9565b61012e565b005b6100b860048036038101906100b391906109c9565b6102ff565b005b6100d460048036038101906100cf9190610a07565b610430565b6040516100e79796959493929190610ae5565b60405180910390f35b61010a600480360381019061010591906109c9565b61057c565b005b61012660048036038101906101219190610c85565b6106ad565b005b60015481565b3373ffffffffffffffffffffffffffffffffffffffff165f808481526020019081526020015f206002015f9054906101000a900473ffffffffffffffffffffffffffffffffffffffff1673ffffffffffffffffffffffffffffffffffffffff16146101ce576040517f08c379a00000000000000000000000000000000000000000000000000000000081526004016101c590610d3c565b60405180910390fd5b5f808381526020019081526020015f2060050160149054906101000a900460ff161561022f576040517f08c379a000000000000000000000000000000000000000000000000000000000815260040161022690610da4565b60405180910390fd5b805f808481526020019081526020015f206003015f6101000a81548173ffffffffffffffffffffffffffffffffffffffff021916908373ffffffffffffffffffffffffffffffffffffffff16021790555060015f808481526020019081526020015f2060050160146101000a81548160ff0219169083151502179055507f53c1c7735e6a2afcb3a5e7344ea23b412a0cbba46d8c9a08a8dcdcf3a93c2566825f808581526020019081526020015f2060010133846040516102f39493929190610eb2565b60405180910390a15050565b5f808381526020019081526020015f2060050160149054906101000a900460ff1615610360576040517f08c379a000000000000000000000000000000000000000000000000000000000815260040161035790610da4565b60405180910390fd5b805f808481526020019081526020015f206004015f6101000a81548173ffffffffffffffffffffffffffffffffffffffff021916908373ffffffffffffffffffffffffffffffffffffffff16021790555060015f808481526020019081526020015f2060050160146101000a81548160ff0219169083151502179055507f53c1c7735e6a2afcb3a5e7344ea23b412a0cbba46d8c9a08a8dcdcf3a93c2566825f808581526020019081526020015f2060010133846040516104249493929190610eb2565b60405180910390a15050565b5f602052805f5260405f205f91509050805f01549080600101805461045490610def565b80601f016020809104026020016040519081016040528092919081815260200182805461048090610def565b80156104cb5780601f106104a2576101008083540402835291602001916104cb565b820191905f5260205f20905b8154815290600101906020018083116104ae57829003601f168201915b505050505090806002015f9054906101000a900473ffffffffffffffffffffffffffffffffffffffff1690806003015f9054906101000a900473ffffffffffffffffffffffffffffffffffffffff1690806004015f9054906101000a900473ffffffffffffffffffffffffffffffffffffffff1690806005015f9054906101000a900473ffffffffffffffffffffffffffffffffffffffff16908060050160149054906101000a900460ff16905087565b5f808381526020019081526020015f2060050160149054906101000a900460ff16156105dd576040517f08c379a00000000000000000000000000000000000000000000000000000000081526004016105d490610da4565b60405180910390fd5b805f808481526020019081526020015f206005015f6101000a81548173ffffffffffffffffffffffffffffffffffffffff021916908373ffffffffffffffffffffffffffffffffffffffff16021790555060015f808481526020019081526020015f2060050160146101000a81548160ff0219169083151502179055507f53c1c7735e6a2afcb3a5e7344ea23b412a0cbba46d8c9a08a8dcdcf3a93c2566825f808581526020019081526020015f2060010133846040516106a19493929190610eb2565b60405180910390a15050565b60015f8154809291906106bf90610f29565b91905055505f6040518060e0016040528060015481526020018381526020013373ffffffffffffffffffffffffffffffffffffffff1681526020015f73ffffffffffffffffffffffffffffffffffffffff1681526020015f73ffffffffffffffffffffffffffffffffffffffff1681526020015f73ffffffffffffffffffffffffffffffffffffffff1681526020015f15158152509050805f8060015481526020019081526020015f205f820151815f0155602082015181600101908161078691906110fb565b506040820151816002015f6101000a81548173ffffffffffffffffffffffffffffffffffffffff021916908373ffffffffffffffffffffffffffffffffffffffff1602179055506060820151816003015f6101000a81548173ffffffffffffffffffffffffffffffffffffffff021916908373ffffffffffffffffffffffffffffffffffffffff1602179055506080820151816004015f6101000a81548173ffffffffffffffffffffffffffffffffffffffff021916908373ffffffffffffffffffffffffffffffffffffffff16021790555060a0820151816005015f6101000a81548173ffffffffffffffffffffffffffffffffffffffff021916908373ffffffffffffffffffffffffffffffffffffffff16021790555060c08201518160050160146101000a81548160ff0219169083151502179055509050507f8193aac6f424277fc758106db15a98f50eaf850bfd0b9178fbfa308e153b049560015483336040516108f7939291906111ca565b60405180910390a15050565b5f819050919050565b61091581610903565b82525050565b5f60208201905061092e5f83018461090c565b92915050565b5f604051905090565b5f80fd5b5f80fd5b61094e81610903565b8114610958575f80fd5b50565b5f8135905061096981610945565b92915050565b5f73ffffffffffffffffffffffffffffffffffffffff82169050919050565b5f6109988261096f565b9050919050565b6109a88161098e565b81146109b2575f80fd5b50565b5f813590506109c38161099f565b92915050565b5f80604083850312156109df576109de61093d565b5b5f6109ec8582860161095b565b92505060206109fd858286016109b5565b9150509250929050565b5f60208284031215610a1c57610a1b61093d565b5b5f610a298482850161095b565b91505092915050565b5f81519050919050565b5f82825260208201905092915050565b5f5b83811015610a69578082015181840152602081019050610a4e565b5f8484015250505050565b5f601f19601f8301169050919050565b5f610a8e82610a32565b610a988185610a3c565b9350610aa8818560208601610a4c565b610ab181610a74565b840191505092915050565b610ac58161098e565b82525050565b5f8115159050919050565b610adf81610acb565b82525050565b5f60e082019050610af85f83018a61090c565b8181036020830152610b0a8189610a84565b9050610b196040830188610abc565b610b266060830187610abc565b610b336080830186610abc565b610b4060a0830185610abc565b610b4d60c0830184610ad6565b98975050505050505050565b5f80fd5b5f80fd5b7f4e487b71000000000000000000000000000000000000000000000000000000005f52604160045260245ffd5b610b9782610a74565b810181811067ffffffffffffffff82111715610bb657610bb5610b61565b5b80604052505050565b5f610bc8610934565b9050610bd48282610b8e565b919050565b5f67ffffffffffffffff821115610bf357610bf2610b61565b5b610bfc82610a74565b9050602081019050919050565b828183375f83830152505050565b5f610c29610c2484610bd9565b610bbf565b905082815260208101848484011115610c4557610c44610b5d565b5b610c50848285610c09565b509392505050565b5f82601f830112610c6c57610c6b610b59565b5b8135610c7c848260208601610c17565b91505092915050565b5f60208284031215610c9a57610c9961093d565b5b5f82013567ffffffffffffffff811115610cb757610cb6610941565b5b610cc384828501610c58565b91505092915050565b7f4f6e6c79207468652070726f64756365722063616e2073656c6c2074686520705f8201527f726f647563742e00000000000000000000000000000000000000000000000000602082015250565b5f610d26602783610a3c565b9150610d3182610ccc565b604082019050919050565b5f6020820190508181035f830152610d5381610d1a565b9050919050565b7f50726f6475637420697320616c726561647920736f6c642e00000000000000005f82015250565b5f610d8e601883610a3c565b9150610d9982610d5a565b602082019050919050565b5f6020820190508181035f830152610dbb81610d82565b9050919050565b7f4e487b71000000000000000000000000000000000000000000000000000000005f52602260045260245ffd5b5f6002820490506001821680610e0657607f821691505b602082108103610e1957610e18610dc2565b5b50919050565b5f819050815f5260205f209050919050565b5f8154610e3d81610def565b610e478186610a3c565b9450600182165f8114610e615760018114610e7757610ea9565b60ff198316865281151560200286019350610ea9565b610e8085610e1f565b5f5b83811015610ea157815481890152600182019150602081019050610e82565b808801955050505b50505092915050565b5f608082019050610ec55f83018761090c565b8181036020830152610ed78186610e31565b9050610ee66040830185610abc565b610ef36060830184610abc565b95945050505050565b7f4e487b71000000000000000000000000000000000000000000000000000000005f52601160045260245ffd5b5f610f3382610903565b91507fffffffffffffffffffffffffffffffffffffffffffffffffffffffffffffffff8203610f6557610f64610efc565b5b600182019050919050565b5f6020601f8301049050919050565b5f82821b905092915050565b5f60088302610fba7fffffffffffffffffffffffffffffffffffffffffffffffffffffffffffffffff82610f7f565b610fc48683610f7f565b95508019841693508086168417925050509392505050565b5f819050919050565b5f610fff610ffa610ff584610903565b610fdc565b610903565b9050919050565b5f819050919050565b61101883610fe5565b61102c61102482611006565b848454610f8b565b825550505050565b5f90565b611040611034565b61104b81848461100f565b505050565b5b8181101561106e576110635f82611038565b600181019050611051565b5050565b601f8211156110b35761108481610e1f565b61108d84610f70565b8101602085101561109c578190505b6110b06110a885610f70565b830182611050565b50505b505050565b5f82821c905092915050565b5f6110d35f19846008026110b8565b1980831691505092915050565b5f6110eb83836110c4565b9150826002028217905092915050565b61110482610a32565b67ffffffffffffffff81111561111d5761111c610b61565b5b6111278254610def565b611132828285611072565b5f60209050601f831160018114611163575f8415611151578287015190505b61115b85826110e0565b8655506111c2565b601f19841661117186610e1f565b5f5b8281101561119857848901518255600182019150602085019450602081019050611173565b868310156111b557848901516111b1601f8916826110c4565b8355505b6001600288020188555050505b505050505050565b5f6060820190506111dd5f83018661090c565b81810360208301526111ef8185610a84565b90506111fe6040830184610abc565b94935050505056fea2646970667358221220a40588ad59ca3644ca156c0268334b0707a9d44d4d4adef9a907fd30713c5c5964736f6c63430008160033",
			"opcodes": "PUSH1 0x80 PUSH1 0x40 MSTORE CALLVALUE DUP1 ISZERO PUSH2 0xF JUMPI PUSH0 DUP1 REVERT JUMPDEST POP PUSH2 0x123C DUP1 PUSH2 0x1D PUSH0 CODECOPY PUSH0 RETURN INVALID PUSH1 0x80 PUSH1 0x40 MSTORE CALLVALUE DUP1 ISZERO PUSH2 0xF JUMPI PUSH0 DUP1 REVERT JUMPDEST POP PUSH1 0x4 CALLDATASIZE LT PUSH2 0x60 JUMPI PUSH0 CALLDATALOAD PUSH1 0xE0 SHR DUP1 PUSH4 0x1F16653B EQ PUSH2 0x64 JUMPI DUP1 PUSH4 0x2BD63206 EQ PUSH2 0x82 JUMPI DUP1 PUSH4 0x3CC131A1 EQ PUSH2 0x9E JUMPI DUP1 PUSH4 0x7ACC0B20 EQ PUSH2 0xBA JUMPI DUP1 PUSH4 0xBF191169 EQ PUSH2 0xF0 JUMPI DUP1 PUSH4 0xDFE00C51 EQ PUSH2 0x10C JUMPI JUMPDEST PUSH0 DUP1 REVERT JUMPDEST PUSH2 0x6C PUSH2 0x128 JUMP JUMPDEST PUSH1 0x40 MLOAD PUSH2 0x79 SWAP2 SWAP1 PUSH2 0x91B JUMP JUMPDEST PUSH1 0x40 MLOAD DUP1 SWAP2 SUB SWAP1 RETURN JUMPDEST PUSH2 0x9C PUSH1 0x4 DUP1 CALLDATASIZE SUB DUP2 ADD SWAP1 PUSH2 0x97 SWAP2 SWAP1 PUSH2 0x9C9 JUMP JUMPDEST PUSH2 0x12E JUMP JUMPDEST STOP JUMPDEST PUSH2 0xB8 PUSH1 0x4 DUP1 CALLDATASIZE SUB DUP2 ADD SWAP1 PUSH2 0xB3 SWAP2 SWAP1 PUSH2 0x9C9 JUMP JUMPDEST PUSH2 0x2FF JUMP JUMPDEST STOP JUMPDEST PUSH2 0xD4 PUSH1 0x4 DUP1 CALLDATASIZE SUB DUP2 ADD SWAP1 PUSH2 0xCF SWAP2 SWAP1 PUSH2 0xA07 JUMP JUMPDEST PUSH2 0x430 JUMP JUMPDEST PUSH1 0x40 MLOAD PUSH2 0xE7 SWAP8 SWAP7 SWAP6 SWAP5 SWAP4 SWAP3 SWAP2 SWAP1 PUSH2 0xAE5 JUMP JUMPDEST PUSH1 0x40 MLOAD DUP1 SWAP2 SUB SWAP1 RETURN JUMPDEST PUSH2 0x10A PUSH1 0x4 DUP1 CALLDATASIZE SUB DUP2 ADD SWAP1 PUSH2 0x105 SWAP2 SWAP1 PUSH2 0x9C9 JUMP JUMPDEST PUSH2 0x57C JUMP JUMPDEST STOP JUMPDEST PUSH2 0x126 PUSH1 0x4 DUP1 CALLDATASIZE SUB DUP2 ADD SWAP1 PUSH2 0x121 SWAP2 SWAP1 PUSH2 0xC85 JUMP JUMPDEST PUSH2 0x6AD JUMP JUMPDEST STOP JUMPDEST PUSH1 0x1 SLOAD DUP2 JUMP JUMPDEST CALLER PUSH20 0xFFFFFFFFFFFFFFFFFFFFFFFFFFFFFFFFFFFFFFFF AND PUSH0 DUP1 DUP5 DUP2 MSTORE PUSH1 0x20 ADD SWAP1 DUP2 MSTORE PUSH1 0x20 ADD PUSH0 KECCAK256 PUSH1 0x2 ADD PUSH0 SWAP1 SLOAD SWAP1 PUSH2 0x100 EXP SWAP1 DIV PUSH20 0xFFFFFFFFFFFFFFFFFFFFFFFFFFFFFFFFFFFFFFFF AND PUSH20 0xFFFFFFFFFFFFFFFFFFFFFFFFFFFFFFFFFFFFFFFF AND EQ PUSH2 0x1CE JUMPI PUSH1 0x40 MLOAD PUSH32 0x8C379A000000000000000000000000000000000000000000000000000000000 DUP2 MSTORE PUSH1 0x4 ADD PUSH2 0x1C5 SWAP1 PUSH2 0xD3C JUMP JUMPDEST PUSH1 0x40 MLOAD DUP1 SWAP2 SUB SWAP1 REVERT JUMPDEST PUSH0 DUP1 DUP4 DUP2 MSTORE PUSH1 0x20 ADD SWAP1 DUP2 MSTORE PUSH1 0x20 ADD PUSH0 KECCAK256 PUSH1 0x5 ADD PUSH1 0x14 SWAP1 SLOAD SWAP1 PUSH2 0x100 EXP SWAP1 DIV PUSH1 0xFF AND ISZERO PUSH2 0x22F JUMPI PUSH1 0x40 MLOAD PUSH32 0x8C379A000000000000000000000000000000000000000000000000000000000 DUP2 MSTORE PUSH1 0x4 ADD PUSH2 0x226 SWAP1 PUSH2 0xDA4 JUMP JUMPDEST PUSH1 0x40 MLOAD DUP1 SWAP2 SUB SWAP1 REVERT JUMPDEST DUP1 PUSH0 DUP1 DUP5 DUP2 MSTORE PUSH1 0x20 ADD SWAP1 DUP2 MSTORE PUSH1 0x20 ADD PUSH0 KECCAK256 PUSH1 0x3 ADD PUSH0 PUSH2 0x100 EXP DUP2 SLOAD DUP2 PUSH20 0xFFFFFFFFFFFFFFFFFFFFFFFFFFFFFFFFFFFFFFFF MUL NOT AND SWAP1 DUP4 PUSH20 0xFFFFFFFFFFFFFFFFFFFFFFFFFFFFFFFFFFFFFFFF AND MUL OR SWAP1 SSTORE POP PUSH1 0x1 PUSH0 DUP1 DUP5 DUP2 MSTORE PUSH1 0x20 ADD SWAP1 DUP2 MSTORE PUSH1 0x20 ADD PUSH0 KECCAK256 PUSH1 0x5 ADD PUSH1 0x14 PUSH2 0x100 EXP DUP2 SLOAD DUP2 PUSH1 0xFF MUL NOT AND SWAP1 DUP4 ISZERO ISZERO MUL OR SWAP1 SSTORE POP PUSH32 0x53C1C7735E6A2AFCB3A5E7344EA23B412A0CBBA46D8C9A08A8DCDCF3A93C2566 DUP3 PUSH0 DUP1 DUP6 DUP2 MSTORE PUSH1 0x20 ADD SWAP1 DUP2 MSTORE PUSH1 0x20 ADD PUSH0 KECCAK256 PUSH1 0x1 ADD CALLER DUP5 PUSH1 0x40 MLOAD PUSH2 0x2F3 SWAP5 SWAP4 SWAP3 SWAP2 SWAP1 PUSH2 0xEB2 JUMP JUMPDEST PUSH1 0x40 MLOAD DUP1 SWAP2 SUB SWAP1 LOG1 POP POP JUMP JUMPDEST PUSH0 DUP1 DUP4 DUP2 MSTORE PUSH1 0x20 ADD SWAP1 DUP2 MSTORE PUSH1 0x20 ADD PUSH0 KECCAK256 PUSH1 0x5 ADD PUSH1 0x14 SWAP1 SLOAD SWAP1 PUSH2 0x100 EXP SWAP1 DIV PUSH1 0xFF AND ISZERO PUSH2 0x360 JUMPI PUSH1 0x40 MLOAD PUSH32 0x8C379A000000000000000000000000000000000000000000000000000000000 DUP2 MSTORE PUSH1 0x4 ADD PUSH2 0x357 SWAP1 PUSH2 0xDA4 JUMP JUMPDEST PUSH1 0x40 MLOAD DUP1 SWAP2 SUB SWAP1 REVERT JUMPDEST DUP1 PUSH0 DUP1 DUP5 DUP2 MSTORE PUSH1 0x20 ADD SWAP1 DUP2 MSTORE PUSH1 0x20 ADD PUSH0 KECCAK256 PUSH1 0x4 ADD PUSH0 PUSH2 0x100 EXP DUP2 SLOAD DUP2 PUSH20 0xFFFFFFFFFFFFFFFFFFFFFFFFFFFFFFFFFFFFFFFF MUL NOT AND SWAP1 DUP4 PUSH20 0xFFFFFFFFFFFFFFFFFFFFFFFFFFFFFFFFFFFFFFFF AND MUL OR SWAP1 SSTORE POP PUSH1 0x1 PUSH0 DUP1 DUP5 DUP2 MSTORE PUSH1 0x20 ADD SWAP1 DUP2 MSTORE PUSH1 0x20 ADD PUSH0 KECCAK256 PUSH1 0x5 ADD PUSH1 0x14 PUSH2 0x100 EXP DUP2 SLOAD DUP2 PUSH1 0xFF MUL NOT AND SWAP1 DUP4 ISZERO ISZERO MUL OR SWAP1 SSTORE POP PUSH32 0x53C1C7735E6A2AFCB3A5E7344EA23B412A0CBBA46D8C9A08A8DCDCF3A93C2566 DUP3 PUSH0 DUP1 DUP6 DUP2 MSTORE PUSH1 0x20 ADD SWAP1 DUP2 MSTORE PUSH1 0x20 ADD PUSH0 KECCAK256 PUSH1 0x1 ADD CALLER DUP5 PUSH1 0x40 MLOAD PUSH2 0x424 SWAP5 SWAP4 SWAP3 SWAP2 SWAP1 PUSH2 0xEB2 JUMP JUMPDEST PUSH1 0x40 MLOAD DUP1 SWAP2 SUB SWAP1 LOG1 POP POP JUMP JUMPDEST PUSH0 PUSH1 0x20 MSTORE DUP1 PUSH0 MSTORE PUSH1 0x40 PUSH0 KECCAK256 PUSH0 SWAP2 POP SWAP1 POP DUP1 PUSH0 ADD SLOAD SWAP1 DUP1 PUSH1 0x1 ADD DUP1 SLOAD PUSH2 0x454 SWAP1 PUSH2 0xDEF JUMP JUMPDEST DUP1 PUSH1 0x1F ADD PUSH1 0x20 DUP1 SWAP2 DIV MUL PUSH1 0x20 ADD PUSH1 0x40 MLOAD SWAP1 DUP2 ADD PUSH1 0x40 MSTORE DUP1 SWAP3 SWAP2 SWAP1 DUP2 DUP2 MSTORE PUSH1 0x20 ADD DUP3 DUP1 SLOAD PUSH2 0x480 SWAP1 PUSH2 0xDEF JUMP JUMPDEST DUP1 ISZERO PUSH2 0x4CB JUMPI DUP1 PUSH1 0x1F LT PUSH2 0x4A2 JUMPI PUSH2 0x100 DUP1 DUP4 SLOAD DIV MUL DUP4 MSTORE SWAP2 PUSH1 0x20 ADD SWAP2 PUSH2 0x4CB JUMP JUMPDEST DUP3 ADD SWAP2 SWAP1 PUSH0 MSTORE PUSH1 0x20 PUSH0 KECCAK256 SWAP1 JUMPDEST DUP2 SLOAD DUP2 MSTORE SWAP1 PUSH1 0x1 ADD SWAP1 PUSH1 0x20 ADD DUP1 DUP4 GT PUSH2 0x4AE JUMPI DUP3 SWAP1 SUB PUSH1 0x1F AND DUP3 ADD SWAP2 JUMPDEST POP POP POP POP POP SWAP1 DUP1 PUSH1 0x2 ADD PUSH0 SWAP1 SLOAD SWAP1 PUSH2 0x100 EXP SWAP1 DIV PUSH20 0xFFFFFFFFFFFFFFFFFFFFFFFFFFFFFFFFFFFFFFFF AND SWAP1 DUP1 PUSH1 0x3 ADD PUSH0 SWAP1 SLOAD SWAP1 PUSH2 0x100 EXP SWAP1 DIV PUSH20 0xFFFFFFFFFFFFFFFFFFFFFFFFFFFFFFFFFFFFFFFF AND SWAP1 DUP1 PUSH1 0x4 ADD PUSH0 SWAP1 SLOAD SWAP1 PUSH2 0x100 EXP SWAP1 DIV PUSH20 0xFFFFFFFFFFFFFFFFFFFFFFFFFFFFFFFFFFFFFFFF AND SWAP1 DUP1 PUSH1 0x5 ADD PUSH0 SWAP1 SLOAD SWAP1 PUSH2 0x100 EXP SWAP1 DIV PUSH20 0xFFFFFFFFFFFFFFFFFFFFFFFFFFFFFFFFFFFFFFFF AND SWAP1 DUP1 PUSH1 0x5 ADD PUSH1 0x14 SWAP1 SLOAD SWAP1 PUSH2 0x100 EXP SWAP1 DIV PUSH1 0xFF AND SWAP1 POP DUP8 JUMP JUMPDEST PUSH0 DUP1 DUP4 DUP2 MSTORE PUSH1 0x20 ADD SWAP1 DUP2 MSTORE PUSH1 0x20 ADD PUSH0 KECCAK256 PUSH1 0x5 ADD PUSH1 0x14 SWAP1 SLOAD SWAP1 PUSH2 0x100 EXP SWAP1 DIV PUSH1 0xFF AND ISZERO PUSH2 0x5DD JUMPI PUSH1 0x40 MLOAD PUSH32 0x8C379A000000000000000000000000000000000000000000000000000000000 DUP2 MSTORE PUSH1 0x4 ADD PUSH2 0x5D4 SWAP1 PUSH2 0xDA4 JUMP JUMPDEST PUSH1 0x40 MLOAD DUP1 SWAP2 SUB SWAP1 REVERT JUMPDEST DUP1 PUSH0 DUP1 DUP5 DUP2 MSTORE PUSH1 0x20 ADD SWAP1 DUP2 MSTORE PUSH1 0x20 ADD PUSH0 KECCAK256 PUSH1 0x5 ADD PUSH0 PUSH2 0x100 EXP DUP2 SLOAD DUP2 PUSH20 0xFFFFFFFFFFFFFFFFFFFFFFFFFFFFFFFFFFFFFFFF MUL NOT AND SWAP1 DUP4 PUSH20 0xFFFFFFFFFFFFFFFFFFFFFFFFFFFFFFFFFFFFFFFF AND MUL OR SWAP1 SSTORE POP PUSH1 0x1 PUSH0 DUP1 DUP5 DUP2 MSTORE PUSH1 0x20 ADD SWAP1 DUP2 MSTORE PUSH1 0x20 ADD PUSH0 KECCAK256 PUSH1 0x5 ADD PUSH1 0x14 PUSH2 0x100 EXP DUP2 SLOAD DUP2 PUSH1 0xFF MUL NOT AND SWAP1 DUP4 ISZERO ISZERO MUL OR SWAP1 SSTORE POP PUSH32 0x53C1C7735E6A2AFCB3A5E7344EA23B412A0CBBA46D8C9A08A8DCDCF3A93C2566 DUP3 PUSH0 DUP1 DUP6 DUP2 MSTORE PUSH1 0x20 ADD SWAP1 DUP2 MSTORE PUSH1 0x20 ADD PUSH0 KECCAK256 PUSH1 0x1 ADD CALLER DUP5 PUSH1 0x40 MLOAD PUSH2 0x6A1 SWAP5 SWAP4 SWAP3 SWAP2 SWAP1 PUSH2 0xEB2 JUMP JUMPDEST PUSH1 0x40 MLOAD DUP1 SWAP2 SUB SWAP1 LOG1 POP POP JUMP JUMPDEST PUSH1 0x1 PUSH0 DUP2 SLOAD DUP1 SWAP3 SWAP2 SWAP1 PUSH2 0x6BF SWAP1 PUSH2 0xF29 JUMP JUMPDEST SWAP2 SWAP1 POP SSTORE POP PUSH0 PUSH1 0x40 MLOAD DUP1 PUSH1 0xE0 ADD PUSH1 0x40 MSTORE DUP1 PUSH1 0x1 SLOAD DUP2 MSTORE PUSH1 0x20 ADD DUP4 DUP2 MSTORE PUSH1 0x20 ADD CALLER PUSH20 0xFFFFFFFFFFFFFFFFFFFFFFFFFFFFFFFFFFFFFFFF AND DUP2 MSTORE PUSH1 0x20 ADD PUSH0 PUSH20 0xFFFFFFFFFFFFFFFFFFFFFFFFFFFFFFFFFFFFFFFF AND DUP2 MSTORE PUSH1 0x20 ADD PUSH0 PUSH20 0xFFFFFFFFFFFFFFFFFFFFFFFFFFFFFFFFFFFFFFFF AND DUP2 MSTORE PUSH1 0x20 ADD PUSH0 PUSH20 0xFFFFFFFFFFFFFFFFFFFFFFFFFFFFFFFFFFFFFFFF AND DUP2 MSTORE PUSH1 0x20 ADD PUSH0 ISZERO ISZERO DUP2 MSTORE POP SWAP1 POP DUP1 PUSH0 DUP1 PUSH1 0x1 SLOAD DUP2 MSTORE PUSH1 0x20 ADD SWAP1 DUP2 MSTORE PUSH1 0x20 ADD PUSH0 KECCAK256 PUSH0 DUP3 ADD MLOAD DUP2 PUSH0 ADD SSTORE PUSH1 0x20 DUP3 ADD MLOAD DUP2 PUSH1 0x1 ADD SWAP1 DUP2 PUSH2 0x786 SWAP2 SWAP1 PUSH2 0x10FB JUMP JUMPDEST POP PUSH1 0x40 DUP3 ADD MLOAD DUP2 PUSH1 0x2 ADD PUSH0 PUSH2 0x100 EXP DUP2 SLOAD DUP2 PUSH20 0xFFFFFFFFFFFFFFFFFFFFFFFFFFFFFFFFFFFFFFFF MUL NOT AND SWAP1 DUP4 PUSH20 0xFFFFFFFFFFFFFFFFFFFFFFFFFFFFFFFFFFFFFFFF AND MUL OR SWAP1 SSTORE POP PUSH1 0x60 DUP3 ADD MLOAD DUP2 PUSH1 0x3 ADD PUSH0 PUSH2 0x100 EXP DUP2 SLOAD DUP2 PUSH20 0xFFFFFFFFFFFFFFFFFFFFFFFFFFFFFFFFFFFFFFFF MUL NOT AND SWAP1 DUP4 PUSH20 0xFFFFFFFFFFFFFFFFFFFFFFFFFFFFFFFFFFFFFFFF AND MUL OR SWAP1 SSTORE POP PUSH1 0x80 DUP3 ADD MLOAD DUP2 PUSH1 0x4 ADD PUSH0 PUSH2 0x100 EXP DUP2 SLOAD DUP2 PUSH20 0xFFFFFFFFFFFFFFFFFFFFFFFFFFFFFFFFFFFFFFFF MUL NOT AND SWAP1 DUP4 PUSH20 0xFFFFFFFFFFFFFFFFFFFFFFFFFFFFFFFFFFFFFFFF AND MUL OR SWAP1 SSTORE POP PUSH1 0xA0 DUP3 ADD MLOAD DUP2 PUSH1 0x5 ADD PUSH0 PUSH2 0x100 EXP DUP2 SLOAD DUP2 PUSH20 0xFFFFFFFFFFFFFFFFFFFFFFFFFFFFFFFFFFFFFFFF MUL NOT AND SWAP1 DUP4 PUSH20 0xFFFFFFFFFFFFFFFFFFFFFFFFFFFFFFFFFFFFFFFF AND MUL OR SWAP1 SSTORE POP PUSH1 0xC0 DUP3 ADD MLOAD DUP2 PUSH1 0x5 ADD PUSH1 0x14 PUSH2 0x100 EXP DUP2 SLOAD DUP2 PUSH1 0xFF MUL NOT AND SWAP1 DUP4 ISZERO ISZERO MUL OR SWAP1 SSTORE POP SWAP1 POP POP PUSH32 0x8193AAC6F424277FC758106DB15A98F50EAF850BFD0B9178FBFA308E153B0495 PUSH1 0x1 SLOAD DUP4 CALLER PUSH1 0x40 MLOAD PUSH2 0x8F7 SWAP4 SWAP3 SWAP2 SWAP1 PUSH2 0x11CA JUMP JUMPDEST PUSH1 0x40 MLOAD DUP1 SWAP2 SUB SWAP1 LOG1 POP POP JUMP JUMPDEST PUSH0 DUP2 SWAP1 POP SWAP2 SWAP1 POP JUMP JUMPDEST PUSH2 0x915 DUP2 PUSH2 0x903 JUMP JUMPDEST DUP3 MSTORE POP POP JUMP JUMPDEST PUSH0 PUSH1 0x20 DUP3 ADD SWAP1 POP PUSH2 0x92E PUSH0 DUP4 ADD DUP5 PUSH2 0x90C JUMP JUMPDEST SWAP3 SWAP2 POP POP JUMP JUMPDEST PUSH0 PUSH1 0x40 MLOAD SWAP1 POP SWAP1 JUMP JUMPDEST PUSH0 DUP1 REVERT JUMPDEST PUSH0 DUP1 REVERT JUMPDEST PUSH2 0x94E DUP2 PUSH2 0x903 JUMP JUMPDEST DUP2 EQ PUSH2 0x958 JUMPI PUSH0 DUP1 REVERT JUMPDEST POP JUMP JUMPDEST PUSH0 DUP2 CALLDATALOAD SWAP1 POP PUSH2 0x969 DUP2 PUSH2 0x945 JUMP JUMPDEST SWAP3 SWAP2 POP POP JUMP JUMPDEST PUSH0 PUSH20 0xFFFFFFFFFFFFFFFFFFFFFFFFFFFFFFFFFFFFFFFF DUP3 AND SWAP1 POP SWAP2 SWAP1 POP JUMP JUMPDEST PUSH0 PUSH2 0x998 DUP3 PUSH2 0x96F JUMP JUMPDEST SWAP1 POP SWAP2 SWAP1 POP JUMP JUMPDEST PUSH2 0x9A8 DUP2 PUSH2 0x98E JUMP JUMPDEST DUP2 EQ PUSH2 0x9B2 JUMPI PUSH0 DUP1 REVERT JUMPDEST POP JUMP JUMPDEST PUSH0 DUP2 CALLDATALOAD SWAP1 POP PUSH2 0x9C3 DUP2 PUSH2 0x99F JUMP JUMPDEST SWAP3 SWAP2 POP POP JUMP JUMPDEST PUSH0 DUP1 PUSH1 0x40 DUP4 DUP6 SUB SLT ISZERO PUSH2 0x9DF JUMPI PUSH2 0x9DE PUSH2 0x93D JUMP JUMPDEST JUMPDEST PUSH0 PUSH2 0x9EC DUP6 DUP3 DUP7 ADD PUSH2 0x95B JUMP JUMPDEST SWAP3 POP POP PUSH1 0x20 PUSH2 0x9FD DUP6 DUP3 DUP7 ADD PUSH2 0x9B5 JUMP JUMPDEST SWAP2 POP POP SWAP3 POP SWAP3 SWAP1 POP JUMP JUMPDEST PUSH0 PUSH1 0x20 DUP3 DUP5 SUB SLT ISZERO PUSH2 0xA1C JUMPI PUSH2 0xA1B PUSH2 0x93D JUMP JUMPDEST JUMPDEST PUSH0 PUSH2 0xA29 DUP5 DUP3 DUP6 ADD PUSH2 0x95B JUMP JUMPDEST SWAP2 POP POP SWAP3 SWAP2 POP POP JUMP JUMPDEST PUSH0 DUP2 MLOAD SWAP1 POP SWAP2 SWAP1 POP JUMP JUMPDEST PUSH0 DUP3 DUP3 MSTORE PUSH1 0x20 DUP3 ADD SWAP1 POP SWAP3 SWAP2 POP POP JUMP JUMPDEST PUSH0 JUMPDEST DUP4 DUP2 LT ISZERO PUSH2 0xA69 JUMPI DUP1 DUP3 ADD MLOAD DUP2 DUP5 ADD MSTORE PUSH1 0x20 DUP2 ADD SWAP1 POP PUSH2 0xA4E JUMP JUMPDEST PUSH0 DUP5 DUP5 ADD MSTORE POP POP POP POP JUMP JUMPDEST PUSH0 PUSH1 0x1F NOT PUSH1 0x1F DUP4 ADD AND SWAP1 POP SWAP2 SWAP1 POP JUMP JUMPDEST PUSH0 PUSH2 0xA8E DUP3 PUSH2 0xA32 JUMP JUMPDEST PUSH2 0xA98 DUP2 DUP6 PUSH2 0xA3C JUMP JUMPDEST SWAP4 POP PUSH2 0xAA8 DUP2 DUP6 PUSH1 0x20 DUP7 ADD PUSH2 0xA4C JUMP JUMPDEST PUSH2 0xAB1 DUP2 PUSH2 0xA74 JUMP JUMPDEST DUP5 ADD SWAP2 POP POP SWAP3 SWAP2 POP POP JUMP JUMPDEST PUSH2 0xAC5 DUP2 PUSH2 0x98E JUMP JUMPDEST DUP3 MSTORE POP POP JUMP JUMPDEST PUSH0 DUP2 ISZERO ISZERO SWAP1 POP SWAP2 SWAP1 POP JUMP JUMPDEST PUSH2 0xADF DUP2 PUSH2 0xACB JUMP JUMPDEST DUP3 MSTORE POP POP JUMP JUMPDEST PUSH0 PUSH1 0xE0 DUP3 ADD SWAP1 POP PUSH2 0xAF8 PUSH0 DUP4 ADD DUP11 PUSH2 0x90C JUMP JUMPDEST DUP2 DUP2 SUB PUSH1 0x20 DUP4 ADD MSTORE PUSH2 0xB0A DUP2 DUP10 PUSH2 0xA84 JUMP JUMPDEST SWAP1 POP PUSH2 0xB19 PUSH1 0x40 DUP4 ADD DUP9 PUSH2 0xABC JUMP JUMPDEST PUSH2 0xB26 PUSH1 0x60 DUP4 ADD DUP8 PUSH2 0xABC JUMP JUMPDEST PUSH2 0xB33 PUSH1 0x80 DUP4 ADD DUP7 PUSH2 0xABC JUMP JUMPDEST PUSH2 0xB40 PUSH1 0xA0 DUP4 ADD DUP6 PUSH2 0xABC JUMP JUMPDEST PUSH2 0xB4D PUSH1 0xC0 DUP4 ADD DUP5 PUSH2 0xAD6 JUMP JUMPDEST SWAP9 SWAP8 POP POP POP POP POP POP POP POP JUMP JUMPDEST PUSH0 DUP1 REVERT JUMPDEST PUSH0 DUP1 REVERT JUMPDEST PUSH32 0x4E487B7100000000000000000000000000000000000000000000000000000000 PUSH0 MSTORE PUSH1 0x41 PUSH1 0x4 MSTORE PUSH1 0x24 PUSH0 REVERT JUMPDEST PUSH2 0xB97 DUP3 PUSH2 0xA74 JUMP JUMPDEST DUP2 ADD DUP2 DUP2 LT PUSH8 0xFFFFFFFFFFFFFFFF DUP3 GT OR ISZERO PUSH2 0xBB6 JUMPI PUSH2 0xBB5 PUSH2 0xB61 JUMP JUMPDEST JUMPDEST DUP1 PUSH1 0x40 MSTORE POP POP POP JUMP JUMPDEST PUSH0 PUSH2 0xBC8 PUSH2 0x934 JUMP JUMPDEST SWAP1 POP PUSH2 0xBD4 DUP3 DUP3 PUSH2 0xB8E JUMP JUMPDEST SWAP2 SWAP1 POP JUMP JUMPDEST PUSH0 PUSH8 0xFFFFFFFFFFFFFFFF DUP3 GT ISZERO PUSH2 0xBF3 JUMPI PUSH2 0xBF2 PUSH2 0xB61 JUMP JUMPDEST JUMPDEST PUSH2 0xBFC DUP3 PUSH2 0xA74 JUMP JUMPDEST SWAP1 POP PUSH1 0x20 DUP2 ADD SWAP1 POP SWAP2 SWAP1 POP JUMP JUMPDEST DUP3 DUP2 DUP4 CALLDATACOPY PUSH0 DUP4 DUP4 ADD MSTORE POP POP POP JUMP JUMPDEST PUSH0 PUSH2 0xC29 PUSH2 0xC24 DUP5 PUSH2 0xBD9 JUMP JUMPDEST PUSH2 0xBBF JUMP JUMPDEST SWAP1 POP DUP3 DUP2 MSTORE PUSH1 0x20 DUP2 ADD DUP5 DUP5 DUP5 ADD GT ISZERO PUSH2 0xC45 JUMPI PUSH2 0xC44 PUSH2 0xB5D JUMP JUMPDEST JUMPDEST PUSH2 0xC50 DUP5 DUP3 DUP6 PUSH2 0xC09 JUMP JUMPDEST POP SWAP4 SWAP3 POP POP POP JUMP JUMPDEST PUSH0 DUP3 PUSH1 0x1F DUP4 ADD SLT PUSH2 0xC6C JUMPI PUSH2 0xC6B PUSH2 0xB59 JUMP JUMPDEST JUMPDEST DUP2 CALLDATALOAD PUSH2 0xC7C DUP5 DUP3 PUSH1 0x20 DUP7 ADD PUSH2 0xC17 JUMP JUMPDEST SWAP2 POP POP SWAP3 SWAP2 POP POP JUMP JUMPDEST PUSH0 PUSH1 0x20 DUP3 DUP5 SUB SLT ISZERO PUSH2 0xC9A JUMPI PUSH2 0xC99 PUSH2 0x93D JUMP JUMPDEST JUMPDEST PUSH0 DUP3 ADD CALLDATALOAD PUSH8 0xFFFFFFFFFFFFFFFF DUP2 GT ISZERO PUSH2 0xCB7 JUMPI PUSH2 0xCB6 PUSH2 0x941 JUMP JUMPDEST JUMPDEST PUSH2 0xCC3 DUP5 DUP3 DUP6 ADD PUSH2 0xC58 JUMP JUMPDEST SWAP2 POP POP SWAP3 SWAP2 POP POP JUMP JUMPDEST PUSH32 0x4F6E6C79207468652070726F64756365722063616E2073656C6C207468652070 PUSH0 DUP3 ADD MSTORE PUSH32 0x726F647563742E00000000000000000000000000000000000000000000000000 PUSH1 0x20 DUP3 ADD MSTORE POP JUMP JUMPDEST PUSH0 PUSH2 0xD26 PUSH1 0x27 DUP4 PUSH2 0xA3C JUMP JUMPDEST SWAP2 POP PUSH2 0xD31 DUP3 PUSH2 0xCCC JUMP JUMPDEST PUSH1 0x40 DUP3 ADD SWAP1 POP SWAP2 SWAP1 POP JUMP JUMPDEST PUSH0 PUSH1 0x20 DUP3 ADD SWAP1 POP DUP2 DUP2 SUB PUSH0 DUP4 ADD MSTORE PUSH2 0xD53 DUP2 PUSH2 0xD1A JUMP JUMPDEST SWAP1 POP SWAP2 SWAP1 POP JUMP JUMPDEST PUSH32 0x50726F6475637420697320616C726561647920736F6C642E0000000000000000 PUSH0 DUP3 ADD MSTORE POP JUMP JUMPDEST PUSH0 PUSH2 0xD8E PUSH1 0x18 DUP4 PUSH2 0xA3C JUMP JUMPDEST SWAP2 POP PUSH2 0xD99 DUP3 PUSH2 0xD5A JUMP JUMPDEST PUSH1 0x20 DUP3 ADD SWAP1 POP SWAP2 SWAP1 POP JUMP JUMPDEST PUSH0 PUSH1 0x20 DUP3 ADD SWAP1 POP DUP2 DUP2 SUB PUSH0 DUP4 ADD MSTORE PUSH2 0xDBB DUP2 PUSH2 0xD82 JUMP JUMPDEST SWAP1 POP SWAP2 SWAP1 POP JUMP JUMPDEST PUSH32 0x4E487B7100000000000000000000000000000000000000000000000000000000 PUSH0 MSTORE PUSH1 0x22 PUSH1 0x4 MSTORE PUSH1 0x24 PUSH0 REVERT JUMPDEST PUSH0 PUSH1 0x2 DUP3 DIV SWAP1 POP PUSH1 0x1 DUP3 AND DUP1 PUSH2 0xE06 JUMPI PUSH1 0x7F DUP3 AND SWAP2 POP JUMPDEST PUSH1 0x20 DUP3 LT DUP2 SUB PUSH2 0xE19 JUMPI PUSH2 0xE18 PUSH2 0xDC2 JUMP JUMPDEST JUMPDEST POP SWAP2 SWAP1 POP JUMP JUMPDEST PUSH0 DUP2 SWAP1 POP DUP2 PUSH0 MSTORE PUSH1 0x20 PUSH0 KECCAK256 SWAP1 POP SWAP2 SWAP1 POP JUMP JUMPDEST PUSH0 DUP2 SLOAD PUSH2 0xE3D DUP2 PUSH2 0xDEF JUMP JUMPDEST PUSH2 0xE47 DUP2 DUP7 PUSH2 0xA3C JUMP JUMPDEST SWAP5 POP PUSH1 0x1 DUP3 AND PUSH0 DUP2 EQ PUSH2 0xE61 JUMPI PUSH1 0x1 DUP2 EQ PUSH2 0xE77 JUMPI PUSH2 0xEA9 JUMP JUMPDEST PUSH1 0xFF NOT DUP4 AND DUP7 MSTORE DUP2 ISZERO ISZERO PUSH1 0x20 MUL DUP7 ADD SWAP4 POP PUSH2 0xEA9 JUMP JUMPDEST PUSH2 0xE80 DUP6 PUSH2 0xE1F JUMP JUMPDEST PUSH0 JUMPDEST DUP4 DUP2 LT ISZERO PUSH2 0xEA1 JUMPI DUP2 SLOAD DUP2 DUP10 ADD MSTORE PUSH1 0x1 DUP3 ADD SWAP2 POP PUSH1 0x20 DUP2 ADD SWAP1 POP PUSH2 0xE82 JUMP JUMPDEST DUP1 DUP9 ADD SWAP6 POP POP POP JUMPDEST POP POP POP SWAP3 SWAP2 POP POP JUMP JUMPDEST PUSH0 PUSH1 0x80 DUP3 ADD SWAP1 POP PUSH2 0xEC5 PUSH0 DUP4 ADD DUP8 PUSH2 0x90C JUMP JUMPDEST DUP2 DUP2 SUB PUSH1 0x20 DUP4 ADD MSTORE PUSH2 0xED7 DUP2 DUP7 PUSH2 0xE31 JUMP JUMPDEST SWAP1 POP PUSH2 0xEE6 PUSH1 0x40 DUP4 ADD DUP6 PUSH2 0xABC JUMP JUMPDEST PUSH2 0xEF3 PUSH1 0x60 DUP4 ADD DUP5 PUSH2 0xABC JUMP JUMPDEST SWAP6 SWAP5 POP POP POP POP POP JUMP JUMPDEST PUSH32 0x4E487B7100000000000000000000000000000000000000000000000000000000 PUSH0 MSTORE PUSH1 0x11 PUSH1 0x4 MSTORE PUSH1 0x24 PUSH0 REVERT JUMPDEST PUSH0 PUSH2 0xF33 DUP3 PUSH2 0x903 JUMP JUMPDEST SWAP2 POP PUSH32 0xFFFFFFFFFFFFFFFFFFFFFFFFFFFFFFFFFFFFFFFFFFFFFFFFFFFFFFFFFFFFFFFF DUP3 SUB PUSH2 0xF65 JUMPI PUSH2 0xF64 PUSH2 0xEFC JUMP JUMPDEST JUMPDEST PUSH1 0x1 DUP3 ADD SWAP1 POP SWAP2 SWAP1 POP JUMP JUMPDEST PUSH0 PUSH1 0x20 PUSH1 0x1F DUP4 ADD DIV SWAP1 POP SWAP2 SWAP1 POP JUMP JUMPDEST PUSH0 DUP3 DUP3 SHL SWAP1 POP SWAP3 SWAP2 POP POP JUMP JUMPDEST PUSH0 PUSH1 0x8 DUP4 MUL PUSH2 0xFBA PUSH32 0xFFFFFFFFFFFFFFFFFFFFFFFFFFFFFFFFFFFFFFFFFFFFFFFFFFFFFFFFFFFFFFFF DUP3 PUSH2 0xF7F JUMP JUMPDEST PUSH2 0xFC4 DUP7 DUP4 PUSH2 0xF7F JUMP JUMPDEST SWAP6 POP DUP1 NOT DUP5 AND SWAP4 POP DUP1 DUP7 AND DUP5 OR SWAP3 POP POP POP SWAP4 SWAP3 POP POP POP JUMP JUMPDEST PUSH0 DUP2 SWAP1 POP SWAP2 SWAP1 POP JUMP JUMPDEST PUSH0 PUSH2 0xFFF PUSH2 0xFFA PUSH2 0xFF5 DUP5 PUSH2 0x903 JUMP JUMPDEST PUSH2 0xFDC JUMP JUMPDEST PUSH2 0x903 JUMP JUMPDEST SWAP1 POP SWAP2 SWAP1 POP JUMP JUMPDEST PUSH0 DUP2 SWAP1 POP SWAP2 SWAP1 POP JUMP JUMPDEST PUSH2 0x1018 DUP4 PUSH2 0xFE5 JUMP JUMPDEST PUSH2 0x102C PUSH2 0x1024 DUP3 PUSH2 0x1006 JUMP JUMPDEST DUP5 DUP5 SLOAD PUSH2 0xF8B JUMP JUMPDEST DUP3 SSTORE POP POP POP POP JUMP JUMPDEST PUSH0 SWAP1 JUMP JUMPDEST PUSH2 0x1040 PUSH2 0x1034 JUMP JUMPDEST PUSH2 0x104B DUP2 DUP5 DUP5 PUSH2 0x100F JUMP JUMPDEST POP POP POP JUMP JUMPDEST JUMPDEST DUP2 DUP2 LT ISZERO PUSH2 0x106E JUMPI PUSH2 0x1063 PUSH0 DUP3 PUSH2 0x1038 JUMP JUMPDEST PUSH1 0x1 DUP2 ADD SWAP1 POP PUSH2 0x1051 JUMP JUMPDEST POP POP JUMP JUMPDEST PUSH1 0x1F DUP3 GT ISZERO PUSH2 0x10B3 JUMPI PUSH2 0x1084 DUP2 PUSH2 0xE1F JUMP JUMPDEST PUSH2 0x108D DUP5 PUSH2 0xF70 JUMP JUMPDEST DUP2 ADD PUSH1 0x20 DUP6 LT ISZERO PUSH2 0x109C JUMPI DUP2 SWAP1 POP JUMPDEST PUSH2 0x10B0 PUSH2 0x10A8 DUP6 PUSH2 0xF70 JUMP JUMPDEST DUP4 ADD DUP3 PUSH2 0x1050 JUMP JUMPDEST POP POP JUMPDEST POP POP POP JUMP JUMPDEST PUSH0 DUP3 DUP3 SHR SWAP1 POP SWAP3 SWAP2 POP POP JUMP JUMPDEST PUSH0 PUSH2 0x10D3 PUSH0 NOT DUP5 PUSH1 0x8 MUL PUSH2 0x10B8 JUMP JUMPDEST NOT DUP1 DUP4 AND SWAP2 POP POP SWAP3 SWAP2 POP POP JUMP JUMPDEST PUSH0 PUSH2 0x10EB DUP4 DUP4 PUSH2 0x10C4 JUMP JUMPDEST SWAP2 POP DUP3 PUSH1 0x2 MUL DUP3 OR SWAP1 POP SWAP3 SWAP2 POP POP JUMP JUMPDEST PUSH2 0x1104 DUP3 PUSH2 0xA32 JUMP JUMPDEST PUSH8 0xFFFFFFFFFFFFFFFF DUP2 GT ISZERO PUSH2 0x111D JUMPI PUSH2 0x111C PUSH2 0xB61 JUMP JUMPDEST JUMPDEST PUSH2 0x1127 DUP3 SLOAD PUSH2 0xDEF JUMP JUMPDEST PUSH2 0x1132 DUP3 DUP3 DUP6 PUSH2 0x1072 JUMP JUMPDEST PUSH0 PUSH1 0x20 SWAP1 POP PUSH1 0x1F DUP4 GT PUSH1 0x1 DUP2 EQ PUSH2 0x1163 JUMPI PUSH0 DUP5 ISZERO PUSH2 0x1151 JUMPI DUP3 DUP8 ADD MLOAD SWAP1 POP JUMPDEST PUSH2 0x115B DUP6 DUP3 PUSH2 0x10E0 JUMP JUMPDEST DUP7 SSTORE POP PUSH2 0x11C2 JUMP JUMPDEST PUSH1 0x1F NOT DUP5 AND PUSH2 0x1171 DUP7 PUSH2 0xE1F JUMP JUMPDEST PUSH0 JUMPDEST DUP3 DUP2 LT ISZERO PUSH2 0x1198 JUMPI DUP5 DUP10 ADD MLOAD DUP3 SSTORE PUSH1 0x1 DUP3 ADD SWAP2 POP PUSH1 0x20 DUP6 ADD SWAP5 POP PUSH1 0x20 DUP2 ADD SWAP1 POP PUSH2 0x1173 JUMP JUMPDEST DUP7 DUP4 LT ISZERO PUSH2 0x11B5 JUMPI DUP5 DUP10 ADD MLOAD PUSH2 0x11B1 PUSH1 0x1F DUP10 AND DUP3 PUSH2 0x10C4 JUMP JUMPDEST DUP4 SSTORE POP JUMPDEST PUSH1 0x1 PUSH1 0x2 DUP9 MUL ADD DUP9 SSTORE POP POP POP JUMPDEST POP POP POP POP POP POP JUMP JUMPDEST PUSH0 PUSH1 0x60 DUP3 ADD SWAP1 POP PUSH2 0x11DD PUSH0 DUP4 ADD DUP7 PUSH2 0x90C JUMP JUMPDEST DUP2 DUP2 SUB PUSH1 0x20 DUP4 ADD MSTORE PUSH2 0x11EF DUP2 DUP6 PUSH2 0xA84 JUMP JUMPDEST SWAP1 POP PUSH2 0x11FE PUSH1 0x40 DUP4 ADD DUP5 PUSH2 0xABC JUMP JUMPDEST SWAP5 SWAP4 POP POP POP POP JUMP INVALID LOG2 PUSH5 0x6970667358 0x22 SLT KECCAK256 LOG4 SDIV DUP9 0xAD MSIZE 0xCA CALLDATASIZE PREVRANDAO 0xCA ISZERO PUSH13 0x268334B0707A9D44D4D4ADEF9 0xA9 SMOD REVERT ADDRESS PUSH18 0x3C5C5964736F6C6343000816003300000000 "
		},
		"gasEstimates": {
			"creation": {
				"codeDepositCost": "933600",
				"executionCost": "966",
				"totalCost": "934566"
			},
			"external": {
				"addProduct(string)": "infinite",
				"productCounter()": "2403",
				"products(uint256)": "infinite",
				"sellToConsumer(uint256,address)": "infinite",
				"sellToDistributor(uint256,address)": "infinite",
				"sellToRetailer(uint256,address)": "infinite"
			}
		},
		"methodIdentifiers": {
			"addProduct(string)": "dfe00c51",
			"productCounter()": "1f16653b",
			"products(uint256)": "7acc0b20",
			"sellToConsumer(uint256,address)": "bf191169",
			"sellToDistributor(uint256,address)": "2bd63206",
			"sellToRetailer(uint256,address)": "3cc131a1"
		}
	},
	"abi": [
		{
			"anonymous": false,
			"inputs": [
				{
					"indexed": false,
					"internalType": "uint256",
					"name": "productId",
					"type": "uint256"
				},
				{
					"indexed": false,
					"internalType": "string",
					"name": "productName",
					"type": "string"
				},
				{
					"indexed": false,
					"internalType": "address",
					"name": "producer",
					"type": "address"
				}
			],
			"name": "ProductAdded",
			"type": "event"
		},
		{
			"anonymous": false,
			"inputs": [
				{
					"indexed": false,
					"internalType": "uint256",
					"name": "productId",
					"type": "uint256"
				},
				{
					"indexed": false,
					"internalType": "string",
					"name": "productName",
					"type": "string"
				},
				{
					"indexed": false,
					"internalType": "address",
					"name": "seller",
					"type": "address"
				},
				{
					"indexed": false,
					"internalType": "address",
					"name": "buyer",
					"type": "address"
				}
			],
			"name": "ProductSold",
			"type": "event"
		},
		{
			"inputs": [
				{
					"internalType": "string",
					"name": "_productName",
					"type": "string"
				}
			],
			"name": "addProduct",
			"outputs": [],
			"stateMutability": "nonpayable",
			"type": "function"
		},
		{
			"inputs": [],
			"name": "productCounter",
			"outputs": [
				{
					"internalType": "uint256",
					"name": "",
					"type": "uint256"
				}
			],
			"stateMutability": "view",
			"type": "function"
		},
		{
			"inputs": [
				{
					"internalType": "uint256",
					"name": "",
					"type": "uint256"
				}
			],
			"name": "products",
			"outputs": [
				{
					"internalType": "uint256",
					"name": "productId",
					"type": "uint256"
				},
				{
					"internalType": "string",
					"name": "productName",
					"type": "string"
				},
				{
					"internalType": "address",
					"name": "producer",
					"type": "address"
				},
				{
					"internalType": "address",
					"name": "distributor",
					"type": "address"
				},
				{
					"internalType": "address",
					"name": "retailer",
					"type": "address"
				},
				{
					"internalType": "address",
					"name": "consumer",
					"type": "address"
				},
				{
					"internalType": "bool",
					"name": "isSold",
					"type": "bool"
				}
			],
			"stateMutability": "view",
			"type": "function"
		},
		{
			"inputs": [
				{
					"internalType": "uint256",
					"name": "_productId",
					"type": "uint256"
				},
				{
					"internalType": "address",
					"name": "_consumer",
					"type": "address"
				}
			],
			"name": "sellToConsumer",
			"outputs": [],
			"stateMutability": "nonpayable",
			"type": "function"
		},
		{
			"inputs": [
				{
					"internalType": "uint256",
					"name": "_productId",
					"type": "uint256"
				},
				{
					"internalType": "address",
					"name": "_distributor",
					"type": "address"
				}
			],
			"name": "sellToDistributor",
			"outputs": [],
			"stateMutability": "nonpayable",
			"type": "function"
		},
		{
			"inputs": [
				{
					"internalType": "uint256",
					"name": "_productId",
					"type": "uint256"
				},
				{
					"internalType": "address",
					"name": "_retailer",
					"type": "address"
				}
			],
			"name": "sellToRetailer",
			"outputs": [],
			"stateMutability": "nonpayable",
			"type": "function"
		}
	]
}