{
	"Dapps/lottry.sol": {
		"Lottery": {
			"abi": [
				{
					"inputs": [],
					"stateMutability": "nonpayable",
					"type": "constructor"
				},
				{
					"inputs": [],
					"name": "enter",
					"outputs": [],
					"stateMutability": "payable",
					"type": "function"
				},
				{
					"inputs": [],
					"name": "owner",
					"outputs": [
						{
							"internalType": "address",
							"name": "",
							"type": "address"
						}
					],
					"stateMutability": "view",
					"type": "function"
				},
				{
					"inputs": [],
					"name": "pickWinner",
					"outputs": [],
					"stateMutability": "nonpayable",
					"type": "function"
				},
				{
					"inputs": [
						{
							"internalType": "uint256",
							"name": "",
							"type": "uint256"
						}
					],
					"name": "players",
					"outputs": [
						{
							"internalType": "address payable",
							"name": "",
							"type": "address"
						}
					],
					"stateMutability": "view",
					"type": "function"
				},
				{
					"inputs": [],
					"name": "random",
					"outputs": [
						{
							"internalType": "uint8",
							"name": "",
							"type": "uint8"
						}
					],
					"stateMutability": "view",
					"type": "function"
				},
				{
					"inputs": [],
					"name": "winner",
					"outputs": [
						{
							"internalType": "address",
							"name": "",
							"type": "address"
						}
					],
					"stateMutability": "view",
					"type": "function"
				}
			],
			"devdoc": {
				"kind": "dev",
				"methods": {},
				"version": 1
			},
			"evm": {
				"assembly": "    /* \"Dapps/lottry.sol\":57:1906  contract Lottery {... */\n  mstore(0x40, 0x80)\n    /* \"Dapps/lottry.sol\":292:408  constructor() {... */\n  callvalue\n  dup1\n  iszero\n  tag_1\n  jumpi\n  0x00\n  dup1\n  revert\ntag_1:\n  pop\n    /* \"Dapps/lottry.sol\":324:334  msg.sender */\n  caller\n    /* \"Dapps/lottry.sol\":316:321  owner */\n  0x00\n  dup1\n    /* \"Dapps/lottry.sol\":316:334  owner = msg.sender */\n  0x0100\n  exp\n  dup2\n  sload\n  dup2\n  0xffffffffffffffffffffffffffffffffffffffff\n  mul\n  not\n  and\n  swap1\n  dup4\n  0xffffffffffffffffffffffffffffffffffffffff\n  and\n  mul\n  or\n  swap1\n  sstore\n  pop\n    /* \"Dapps/lottry.sol\":57:1906  contract Lottery {... */\n  dataSize(sub_0)\n  dup1\n  dataOffset(sub_0)\n  0x00\n  codecopy\n  0x00\n  return\nstop\n\nsub_0: assembly {\n        /* \"Dapps/lottry.sol\":57:1906  contract Lottery {... */\n      mstore(0x40, 0x80)\n      jumpi(tag_1, lt(calldatasize, 0x04))\n      shr(0xe0, calldataload(0x00))\n      dup1\n      0x5d495aea\n      eq\n      tag_2\n      jumpi\n      dup1\n      0x5ec01e4d\n      eq\n      tag_3\n      jumpi\n      dup1\n      0x8da5cb5b\n      eq\n      tag_4\n      jumpi\n      dup1\n      0xdfbf53ae\n      eq\n      tag_5\n      jumpi\n      dup1\n      0xe97dcb62\n      eq\n      tag_6\n      jumpi\n      dup1\n      0xf71d96cb\n      eq\n      tag_7\n      jumpi\n    tag_1:\n      0x00\n      dup1\n      revert\n        /* \"Dapps/lottry.sol\":1462:1904  function pickWinner() public onlyOwner {... */\n    tag_2:\n      callvalue\n      dup1\n      iszero\n      tag_8\n      jumpi\n      0x00\n      dup1\n      revert\n    tag_8:\n      pop\n      tag_9\n      tag_10\n      jump\t// in\n    tag_9:\n      stop\n        /* \"Dapps/lottry.sol\":988:1387  function random() public view returns (uint8) {... */\n    tag_3:\n      callvalue\n      dup1\n      iszero\n      tag_11\n      jumpi\n      0x00\n      dup1\n      revert\n    tag_11:\n      pop\n      tag_12\n      tag_13\n      jump\t// in\n    tag_12:\n      mload(0x40)\n      tag_14\n      swap2\n      swap1\n      tag_15\n      jump\t// in\n    tag_14:\n      mload(0x40)\n      dup1\n      swap2\n      sub\n      swap1\n      return\n        /* \"Dapps/lottry.sol\":80:100  address public owner */\n    tag_4:\n      callvalue\n      dup1\n      iszero\n      tag_16\n      jumpi\n      0x00\n      dup1\n      revert\n    tag_16:\n      pop\n      tag_17\n      tag_18\n      jump\t// in\n    tag_17:\n      mload(0x40)\n      tag_19\n      swap2\n      swap1\n      tag_20\n      jump\t// in\n    tag_19:\n      mload(0x40)\n      dup1\n      swap2\n      sub\n      swap1\n      return\n        /* \"Dapps/lottry.sol\":228:249  address public winner */\n    tag_5:\n      callvalue\n      dup1\n      iszero\n      tag_21\n      jumpi\n      0x00\n      dup1\n      revert\n    tag_21:\n      pop\n      tag_22\n      tag_23\n      jump\t// in\n    tag_22:\n      mload(0x40)\n      tag_24\n      swap2\n      swap1\n      tag_20\n      jump\t// in\n    tag_24:\n      mload(0x40)\n      dup1\n      swap2\n      sub\n      swap1\n      return\n        /* \"Dapps/lottry.sol\":682:890  function enter() public payable {... */\n    tag_6:\n      tag_25\n      tag_26\n      jump\t// in\n    tag_25:\n      stop\n        /* \"Dapps/lottry.sol\":151:183  address payable[] public players */\n    tag_7:\n      callvalue\n      dup1\n      iszero\n      tag_27\n      jumpi\n      0x00\n      dup1\n      revert\n    tag_27:\n      pop\n      tag_28\n      0x04\n      dup1\n      calldatasize\n      sub\n      dup2\n      add\n      swap1\n      tag_29\n      swap2\n      swap1\n      tag_30\n      jump\t// in\n    tag_29:\n      tag_31\n      jump\t// in\n    tag_28:\n      mload(0x40)\n      tag_32\n      swap2\n      swap1\n      tag_33\n      jump\t// in\n    tag_32:\n      mload(0x40)\n      dup1\n      swap2\n      sub\n      swap1\n      return\n        /* \"Dapps/lottry.sol\":1462:1904  function pickWinner() public onlyOwner {... */\n    tag_10:\n        /* \"Dapps/lottry.sol\":543:548  owner */\n      0x00\n      dup1\n      sload\n      swap1\n      0x0100\n      exp\n      swap1\n      div\n      0xffffffffffffffffffffffffffffffffffffffff\n      and\n        /* \"Dapps/lottry.sol\":529:548  msg.sender == owner */\n      0xffffffffffffffffffffffffffffffffffffffff\n      and\n        /* \"Dapps/lottry.sol\":529:539  msg.sender */\n      caller\n        /* \"Dapps/lottry.sol\":529:548  msg.sender == owner */\n      0xffffffffffffffffffffffffffffffffffffffff\n      and\n      eq\n        /* \"Dapps/lottry.sol\":521:590  require(msg.sender == owner, \"Only the owner can call this function\") */\n      tag_35\n      jumpi\n      mload(0x40)\n      0x08c379a000000000000000000000000000000000000000000000000000000000\n      dup2\n      mstore\n      0x04\n      add\n      tag_36\n      swap1\n      tag_37\n      jump\t// in\n    tag_36:\n      mload(0x40)\n      dup1\n      swap2\n      sub\n      swap1\n      revert\n    tag_35:\n        /* \"Dapps/lottry.sol\":1511:1524  uint256 index */\n      0x00\n        /* \"Dapps/lottry.sol\":1538:1545  players */\n      0x01\n        /* \"Dapps/lottry.sol\":1538:1552  players.length */\n      dup1\n      sload\n      swap1\n      pop\n        /* \"Dapps/lottry.sol\":1527:1535  random() */\n      tag_39\n        /* \"Dapps/lottry.sol\":1527:1533  random */\n      tag_13\n        /* \"Dapps/lottry.sol\":1527:1535  random() */\n      jump\t// in\n    tag_39:\n        /* \"Dapps/lottry.sol\":1527:1552  random() % players.length */\n      0xff\n      and\n      tag_40\n      swap2\n      swap1\n      tag_41\n      jump\t// in\n    tag_40:\n        /* \"Dapps/lottry.sol\":1511:1552  uint256 index = random() % players.length */\n      swap1\n      pop\n        /* \"Dapps/lottry.sol\":1664:1671  players */\n      0x01\n        /* \"Dapps/lottry.sol\":1672:1677  index */\n      dup2\n        /* \"Dapps/lottry.sol\":1664:1678  players[index] */\n      dup2\n      sload\n      dup2\n      lt\n      tag_42\n      jumpi\n      tag_43\n      tag_44\n      jump\t// in\n    tag_43:\n    tag_42:\n      swap1\n      0x00\n      mstore\n      keccak256(0x00, 0x20)\n      add\n      0x00\n      swap1\n      sload\n      swap1\n      0x0100\n      exp\n      swap1\n      div\n      0xffffffffffffffffffffffffffffffffffffffff\n      and\n        /* \"Dapps/lottry.sol\":1664:1687  players[index].transfer */\n      0xffffffffffffffffffffffffffffffffffffffff\n      and\n        /* \"Dapps/lottry.sol\":1664:1710  players[index].transfer(address(this).balance) */\n      0x08fc\n        /* \"Dapps/lottry.sol\":1688:1709  address(this).balance */\n      selfbalance\n        /* \"Dapps/lottry.sol\":1664:1710  players[index].transfer(address(this).balance) */\n      swap1\n      dup2\n      iszero\n      mul\n      swap1\n      mload(0x40)\n      0x00\n      mload(0x40)\n      dup1\n      dup4\n      sub\n      dup2\n      dup6\n      dup9\n      dup9\n      call\n      swap4\n      pop\n      pop\n      pop\n      pop\n      iszero\n      dup1\n      iszero\n      tag_47\n      jumpi\n      returndatasize\n      0x00\n      dup1\n      returndatacopy\n      revert(0x00, returndatasize)\n    tag_47:\n      pop\n        /* \"Dapps/lottry.sol\":1729:1736  players */\n      0x01\n        /* \"Dapps/lottry.sol\":1737:1742  index */\n      dup2\n        /* \"Dapps/lottry.sol\":1729:1743  players[index] */\n      dup2\n      sload\n      dup2\n      lt\n      tag_48\n      jumpi\n      tag_49\n      tag_44\n      jump\t// in\n    tag_49:\n    tag_48:\n      swap1\n      0x00\n      mstore\n      keccak256(0x00, 0x20)\n      add\n      0x00\n      swap1\n      sload\n      swap1\n      0x0100\n      exp\n      swap1\n      div\n      0xffffffffffffffffffffffffffffffffffffffff\n      and\n        /* \"Dapps/lottry.sol\":1720:1726  winner */\n      0x02\n      0x00\n        /* \"Dapps/lottry.sol\":1720:1743  winner = players[index] */\n      0x0100\n      exp\n      dup2\n      sload\n      dup2\n      0xffffffffffffffffffffffffffffffffffffffff\n      mul\n      not\n      and\n      swap1\n      dup4\n      0xffffffffffffffffffffffffffffffffffffffff\n      and\n      mul\n      or\n      swap1\n      sstore\n      pop\n        /* \"Dapps/lottry.sol\":1895:1896  0 */\n      0x00\n        /* \"Dapps/lottry.sol\":1873:1897  new address payable[](0) */\n      0xffffffffffffffff\n      dup2\n      gt\n      iszero\n      tag_51\n      jumpi\n      tag_52\n      tag_53\n      jump\t// in\n    tag_52:\n    tag_51:\n      mload(0x40)\n      swap1\n      dup1\n      dup3\n      mstore\n      dup1\n      0x20\n      mul\n      0x20\n      add\n      dup3\n      add\n      0x40\n      mstore\n      dup1\n      iszero\n      tag_54\n      jumpi\n      dup2\n      0x20\n      add\n      0x20\n      dup3\n      mul\n      dup1\n      calldatasize\n      dup4\n      calldatacopy\n      dup1\n      dup3\n      add\n      swap2\n      pop\n      pop\n      swap1\n      pop\n    tag_54:\n      pop\n        /* \"Dapps/lottry.sol\":1863:1870  players */\n      0x01\n        /* \"Dapps/lottry.sol\":1863:1897  players = new address payable[](0) */\n      swap1\n      dup1\n      mload\n      swap1\n      0x20\n      add\n      swap1\n      tag_55\n      swap3\n      swap2\n      swap1\n      tag_56\n      jump\t// in\n    tag_55:\n      pop\n        /* \"Dapps/lottry.sol\":1501:1904  {... */\n      pop\n        /* \"Dapps/lottry.sol\":1462:1904  function pickWinner() public onlyOwner {... */\n      jump\t// out\n        /* \"Dapps/lottry.sol\":988:1387  function random() public view returns (uint8) {... */\n    tag_13:\n        /* \"Dapps/lottry.sol\":1027:1032  uint8 */\n      0x00\n        /* \"Dapps/lottry.sol\":1363:1366  251 */\n      0xfb\n        /* \"Dapps/lottry.sol\":1196:1211  block.timestamp */\n      timestamp\n        /* \"Dapps/lottry.sol\":1241:1257  block.difficulty */\n      prevrandao\n        /* \"Dapps/lottry.sol\":1287:1294  players */\n      0x01\n        /* \"Dapps/lottry.sol\":1150:1320  abi.encodePacked(... */\n      add(0x20, mload(0x40))\n      tag_58\n      swap4\n      swap3\n      swap2\n      swap1\n      tag_59\n      jump\t// in\n    tag_58:\n      mload(0x40)\n      0x20\n      dup2\n      dup4\n      sub\n      sub\n      dup2\n      mstore\n      swap1\n      0x40\n      mstore\n        /* \"Dapps/lottry.sol\":1115:1342  keccak256(... */\n      dup1\n      mload\n      swap1\n      0x20\n      add\n      keccak256\n        /* \"Dapps/lottry.sol\":1086:1360  uint256(... */\n      0x00\n      shr\n        /* \"Dapps/lottry.sol\":1086:1366  uint256(... */\n      tag_60\n      swap2\n      swap1\n      tag_41\n      jump\t// in\n    tag_60:\n        /* \"Dapps/lottry.sol\":1044:1380  return... */\n      swap1\n      pop\n        /* \"Dapps/lottry.sol\":988:1387  function random() public view returns (uint8) {... */\n      swap1\n      jump\t// out\n        /* \"Dapps/lottry.sol\":80:100  address public owner */\n    tag_18:\n      0x00\n      dup1\n      sload\n      swap1\n      0x0100\n      exp\n      swap1\n      div\n      0xffffffffffffffffffffffffffffffffffffffff\n      and\n      dup2\n      jump\t// out\n        /* \"Dapps/lottry.sol\":228:249  address public winner */\n    tag_23:\n      0x02\n      0x00\n      swap1\n      sload\n      swap1\n      0x0100\n      exp\n      swap1\n      div\n      0xffffffffffffffffffffffffffffffffffffffff\n      and\n      dup2\n      jump\t// out\n        /* \"Dapps/lottry.sol\":682:890  function enter() public payable {... */\n    tag_26:\n        /* \"Dapps/lottry.sol\":745:752  1 ether */\n      0x0de0b6b3a7640000\n        /* \"Dapps/lottry.sol\":732:741  msg.value */\n      callvalue\n        /* \"Dapps/lottry.sol\":732:752  msg.value == 1 ether */\n      eq\n        /* \"Dapps/lottry.sol\":724:791  require(msg.value == 1 ether, \"Must send exactly 1 ether to enter\") */\n      tag_62\n      jumpi\n      mload(0x40)\n      0x08c379a000000000000000000000000000000000000000000000000000000000\n      dup2\n      mstore\n      0x04\n      add\n      tag_63\n      swap1\n      tag_64\n      jump\t// in\n    tag_63:\n      mload(0x40)\n      dup1\n      swap2\n      sub\n      swap1\n      revert\n    tag_62:\n        /* \"Dapps/lottry.sol\":801:808  players */\n      0x01\n        /* \"Dapps/lottry.sol\":822:832  msg.sender */\n      caller\n        /* \"Dapps/lottry.sol\":801:834  players.push(payable(msg.sender)) */\n      swap1\n      dup1\n      0x01\n      dup2\n      sload\n      add\n      dup1\n      dup3\n      sstore\n      dup1\n      swap2\n      pop\n      pop\n      0x01\n      swap1\n      sub\n      swap1\n      0x00\n      mstore\n      keccak256(0x00, 0x20)\n      add\n      0x00\n      swap1\n      swap2\n      swap1\n      swap2\n      swap1\n      swap2\n      0x0100\n      exp\n      dup2\n      sload\n      dup2\n      0xffffffffffffffffffffffffffffffffffffffff\n      mul\n      not\n      and\n      swap1\n      dup4\n      0xffffffffffffffffffffffffffffffffffffffff\n      and\n      mul\n      or\n      swap1\n      sstore\n      pop\n        /* \"Dapps/lottry.sol\":682:890  function enter() public payable {... */\n      jump\t// out\n        /* \"Dapps/lottry.sol\":151:183  address payable[] public players */\n    tag_31:\n      0x01\n      dup2\n      dup2\n      sload\n      dup2\n      lt\n      tag_66\n      jumpi\n      0x00\n      dup1\n      revert\n    tag_66:\n      swap1\n      0x00\n      mstore\n      keccak256(0x00, 0x20)\n      add\n      0x00\n      swap2\n      pop\n      sload\n      swap1\n      0x0100\n      exp\n      swap1\n      div\n      0xffffffffffffffffffffffffffffffffffffffff\n      and\n      dup2\n      jump\t// out\n    tag_56:\n      dup3\n      dup1\n      sload\n      dup3\n      dup3\n      sstore\n      swap1\n      0x00\n      mstore\n      keccak256(0x00, 0x20)\n      swap1\n      dup2\n      add\n      swap3\n      dup3\n      iszero\n      tag_68\n      jumpi\n      swap2\n      0x20\n      mul\n      dup3\n      add\n    tag_69:\n      dup3\n      dup2\n      gt\n      iszero\n      tag_70\n      jumpi\n      dup3\n      mload\n      dup3\n      exp(0x0100, 0x00)\n      dup2\n      sload\n      dup2\n      0xffffffffffffffffffffffffffffffffffffffff\n      mul\n      not\n      and\n      swap1\n      dup4\n      0xffffffffffffffffffffffffffffffffffffffff\n      and\n      mul\n      or\n      swap1\n      sstore\n      pop\n      swap2\n      0x20\n      add\n      swap2\n      swap1\n      0x01\n      add\n      swap1\n      jump(tag_69)\n    tag_70:\n    tag_68:\n      pop\n      swap1\n      pop\n      tag_71\n      swap2\n      swap1\n      tag_72\n      jump\t// in\n    tag_71:\n      pop\n      swap1\n      jump\t// out\n    tag_72:\n    tag_73:\n      dup1\n      dup3\n      gt\n      iszero\n      tag_74\n      jumpi\n      0x00\n      dup2\n      0x00\n      swap1\n      sstore\n      pop\n      0x01\n      add\n      jump(tag_73)\n    tag_74:\n      pop\n      swap1\n      jump\t// out\n        /* \"#utility.yul\":7:93   */\n    tag_75:\n        /* \"#utility.yul\":42:49   */\n      0x00\n        /* \"#utility.yul\":82:86   */\n      0xff\n        /* \"#utility.yul\":75:80   */\n      dup3\n        /* \"#utility.yul\":71:87   */\n      and\n        /* \"#utility.yul\":60:87   */\n      swap1\n      pop\n        /* \"#utility.yul\":7:93   */\n      swap2\n      swap1\n      pop\n      jump\t// out\n        /* \"#utility.yul\":99:211   */\n    tag_76:\n        /* \"#utility.yul\":182:204   */\n      tag_110\n        /* \"#utility.yul\":198:203   */\n      dup2\n        /* \"#utility.yul\":182:204   */\n      tag_75\n      jump\t// in\n    tag_110:\n        /* \"#utility.yul\":177:180   */\n      dup3\n        /* \"#utility.yul\":170:205   */\n      mstore\n        /* \"#utility.yul\":99:211   */\n      pop\n      pop\n      jump\t// out\n        /* \"#utility.yul\":217:431   */\n    tag_15:\n        /* \"#utility.yul\":306:310   */\n      0x00\n        /* \"#utility.yul\":344:346   */\n      0x20\n        /* \"#utility.yul\":333:342   */\n      dup3\n        /* \"#utility.yul\":329:347   */\n      add\n        /* \"#utility.yul\":321:347   */\n      swap1\n      pop\n        /* \"#utility.yul\":357:424   */\n      tag_112\n        /* \"#utility.yul\":421:422   */\n      0x00\n        /* \"#utility.yul\":410:419   */\n      dup4\n        /* \"#utility.yul\":406:423   */\n      add\n        /* \"#utility.yul\":397:403   */\n      dup5\n        /* \"#utility.yul\":357:424   */\n      tag_76\n      jump\t// in\n    tag_112:\n        /* \"#utility.yul\":217:431   */\n      swap3\n      swap2\n      pop\n      pop\n      jump\t// out\n        /* \"#utility.yul\":437:563   */\n    tag_77:\n        /* \"#utility.yul\":474:481   */\n      0x00\n        /* \"#utility.yul\":514:556   */\n      0xffffffffffffffffffffffffffffffffffffffff\n        /* \"#utility.yul\":507:512   */\n      dup3\n        /* \"#utility.yul\":503:557   */\n      and\n        /* \"#utility.yul\":492:557   */\n      swap1\n      pop\n        /* \"#utility.yul\":437:563   */\n      swap2\n      swap1\n      pop\n      jump\t// out\n        /* \"#utility.yul\":569:665   */\n    tag_78:\n        /* \"#utility.yul\":606:613   */\n      0x00\n        /* \"#utility.yul\":635:659   */\n      tag_115\n        /* \"#utility.yul\":653:658   */\n      dup3\n        /* \"#utility.yul\":635:659   */\n      tag_77\n      jump\t// in\n    tag_115:\n        /* \"#utility.yul\":624:659   */\n      swap1\n      pop\n        /* \"#utility.yul\":569:665   */\n      swap2\n      swap1\n      pop\n      jump\t// out\n        /* \"#utility.yul\":671:789   */\n    tag_79:\n        /* \"#utility.yul\":758:782   */\n      tag_117\n        /* \"#utility.yul\":776:781   */\n      dup2\n        /* \"#utility.yul\":758:782   */\n      tag_78\n      jump\t// in\n    tag_117:\n        /* \"#utility.yul\":753:756   */\n      dup3\n        /* \"#utility.yul\":746:783   */\n      mstore\n        /* \"#utility.yul\":671:789   */\n      pop\n      pop\n      jump\t// out\n        /* \"#utility.yul\":795:1017   */\n    tag_20:\n        /* \"#utility.yul\":888:892   */\n      0x00\n        /* \"#utility.yul\":926:928   */\n      0x20\n        /* \"#utility.yul\":915:924   */\n      dup3\n        /* \"#utility.yul\":911:929   */\n      add\n        /* \"#utility.yul\":903:929   */\n      swap1\n      pop\n        /* \"#utility.yul\":939:1010   */\n      tag_119\n        /* \"#utility.yul\":1007:1008   */\n      0x00\n        /* \"#utility.yul\":996:1005   */\n      dup4\n        /* \"#utility.yul\":992:1009   */\n      add\n        /* \"#utility.yul\":983:989   */\n      dup5\n        /* \"#utility.yul\":939:1010   */\n      tag_79\n      jump\t// in\n    tag_119:\n        /* \"#utility.yul\":795:1017   */\n      swap3\n      swap2\n      pop\n      pop\n      jump\t// out\n        /* \"#utility.yul\":1104:1221   */\n    tag_81:\n        /* \"#utility.yul\":1213:1214   */\n      0x00\n        /* \"#utility.yul\":1210:1211   */\n      dup1\n        /* \"#utility.yul\":1203:1215   */\n      revert\n        /* \"#utility.yul\":1350:1427   */\n    tag_83:\n        /* \"#utility.yul\":1387:1394   */\n      0x00\n        /* \"#utility.yul\":1416:1421   */\n      dup2\n        /* \"#utility.yul\":1405:1421   */\n      swap1\n      pop\n        /* \"#utility.yul\":1350:1427   */\n      swap2\n      swap1\n      pop\n      jump\t// out\n        /* \"#utility.yul\":1433:1555   */\n    tag_84:\n        /* \"#utility.yul\":1506:1530   */\n      tag_125\n        /* \"#utility.yul\":1524:1529   */\n      dup2\n        /* \"#utility.yul\":1506:1530   */\n      tag_83\n      jump\t// in\n    tag_125:\n        /* \"#utility.yul\":1499:1504   */\n      dup2\n        /* \"#utility.yul\":1496:1531   */\n      eq\n        /* \"#utility.yul\":1486:1549   */\n      tag_126\n      jumpi\n        /* \"#utility.yul\":1545:1546   */\n      0x00\n        /* \"#utility.yul\":1542:1543   */\n      dup1\n        /* \"#utility.yul\":1535:1547   */\n      revert\n        /* \"#utility.yul\":1486:1549   */\n    tag_126:\n        /* \"#utility.yul\":1433:1555   */\n      pop\n      jump\t// out\n        /* \"#utility.yul\":1561:1700   */\n    tag_85:\n        /* \"#utility.yul\":1607:1612   */\n      0x00\n        /* \"#utility.yul\":1645:1651   */\n      dup2\n        /* \"#utility.yul\":1632:1652   */\n      calldataload\n        /* \"#utility.yul\":1623:1652   */\n      swap1\n      pop\n        /* \"#utility.yul\":1661:1694   */\n      tag_128\n        /* \"#utility.yul\":1688:1693   */\n      dup2\n        /* \"#utility.yul\":1661:1694   */\n      tag_84\n      jump\t// in\n    tag_128:\n        /* \"#utility.yul\":1561:1700   */\n      swap3\n      swap2\n      pop\n      pop\n      jump\t// out\n        /* \"#utility.yul\":1706:2035   */\n    tag_30:\n        /* \"#utility.yul\":1765:1771   */\n      0x00\n        /* \"#utility.yul\":1814:1816   */\n      0x20\n        /* \"#utility.yul\":1802:1811   */\n      dup3\n        /* \"#utility.yul\":1793:1800   */\n      dup5\n        /* \"#utility.yul\":1789:1812   */\n      sub\n        /* \"#utility.yul\":1785:1817   */\n      slt\n        /* \"#utility.yul\":1782:1901   */\n      iszero\n      tag_130\n      jumpi\n        /* \"#utility.yul\":1820:1899   */\n      tag_131\n      tag_81\n      jump\t// in\n    tag_131:\n        /* \"#utility.yul\":1782:1901   */\n    tag_130:\n        /* \"#utility.yul\":1940:1941   */\n      0x00\n        /* \"#utility.yul\":1965:2018   */\n      tag_132\n        /* \"#utility.yul\":2010:2017   */\n      dup5\n        /* \"#utility.yul\":2001:2007   */\n      dup3\n        /* \"#utility.yul\":1990:1999   */\n      dup6\n        /* \"#utility.yul\":1986:2008   */\n      add\n        /* \"#utility.yul\":1965:2018   */\n      tag_85\n      jump\t// in\n    tag_132:\n        /* \"#utility.yul\":1955:2018   */\n      swap2\n      pop\n        /* \"#utility.yul\":1911:2028   */\n      pop\n        /* \"#utility.yul\":1706:2035   */\n      swap3\n      swap2\n      pop\n      pop\n      jump\t// out\n        /* \"#utility.yul\":2041:2145   */\n    tag_86:\n        /* \"#utility.yul\":2086:2093   */\n      0x00\n        /* \"#utility.yul\":2115:2139   */\n      tag_134\n        /* \"#utility.yul\":2133:2138   */\n      dup3\n        /* \"#utility.yul\":2115:2139   */\n      tag_77\n      jump\t// in\n    tag_134:\n        /* \"#utility.yul\":2104:2139   */\n      swap1\n      pop\n        /* \"#utility.yul\":2041:2145   */\n      swap2\n      swap1\n      pop\n      jump\t// out\n        /* \"#utility.yul\":2151:2293   */\n    tag_87:\n        /* \"#utility.yul\":2254:2286   */\n      tag_136\n        /* \"#utility.yul\":2280:2285   */\n      dup2\n        /* \"#utility.yul\":2254:2286   */\n      tag_86\n      jump\t// in\n    tag_136:\n        /* \"#utility.yul\":2249:2252   */\n      dup3\n        /* \"#utility.yul\":2242:2287   */\n      mstore\n        /* \"#utility.yul\":2151:2293   */\n      pop\n      pop\n      jump\t// out\n        /* \"#utility.yul\":2299:2553   */\n    tag_33:\n        /* \"#utility.yul\":2408:2412   */\n      0x00\n        /* \"#utility.yul\":2446:2448   */\n      0x20\n        /* \"#utility.yul\":2435:2444   */\n      dup3\n        /* \"#utility.yul\":2431:2449   */\n      add\n        /* \"#utility.yul\":2423:2449   */\n      swap1\n      pop\n        /* \"#utility.yul\":2459:2546   */\n      tag_138\n        /* \"#utility.yul\":2543:2544   */\n      0x00\n        /* \"#utility.yul\":2532:2541   */\n      dup4\n        /* \"#utility.yul\":2528:2545   */\n      add\n        /* \"#utility.yul\":2519:2525   */\n      dup5\n        /* \"#utility.yul\":2459:2546   */\n      tag_87\n      jump\t// in\n    tag_138:\n        /* \"#utility.yul\":2299:2553   */\n      swap3\n      swap2\n      pop\n      pop\n      jump\t// out\n        /* \"#utility.yul\":2559:2728   */\n    tag_88:\n        /* \"#utility.yul\":2643:2654   */\n      0x00\n        /* \"#utility.yul\":2677:2683   */\n      dup3\n        /* \"#utility.yul\":2672:2675   */\n      dup3\n        /* \"#utility.yul\":2665:2684   */\n      mstore\n        /* \"#utility.yul\":2717:2721   */\n      0x20\n        /* \"#utility.yul\":2712:2715   */\n      dup3\n        /* \"#utility.yul\":2708:2722   */\n      add\n        /* \"#utility.yul\":2693:2722   */\n      swap1\n      pop\n        /* \"#utility.yul\":2559:2728   */\n      swap3\n      swap2\n      pop\n      pop\n      jump\t// out\n        /* \"#utility.yul\":2734:2958   */\n    tag_89:\n        /* \"#utility.yul\":2874:2908   */\n      0x4f6e6c7920746865206f776e65722063616e2063616c6c20746869732066756e\n        /* \"#utility.yul\":2870:2871   */\n      0x00\n        /* \"#utility.yul\":2862:2868   */\n      dup3\n        /* \"#utility.yul\":2858:2872   */\n      add\n        /* \"#utility.yul\":2851:2909   */\n      mstore\n        /* \"#utility.yul\":2943:2950   */\n      0x6374696f6e000000000000000000000000000000000000000000000000000000\n        /* \"#utility.yul\":2938:2940   */\n      0x20\n        /* \"#utility.yul\":2930:2936   */\n      dup3\n        /* \"#utility.yul\":2926:2941   */\n      add\n        /* \"#utility.yul\":2919:2951   */\n      mstore\n        /* \"#utility.yul\":2734:2958   */\n      pop\n      jump\t// out\n        /* \"#utility.yul\":2964:3330   */\n    tag_90:\n        /* \"#utility.yul\":3106:3109   */\n      0x00\n        /* \"#utility.yul\":3127:3194   */\n      tag_142\n        /* \"#utility.yul\":3191:3193   */\n      0x25\n        /* \"#utility.yul\":3186:3189   */\n      dup4\n        /* \"#utility.yul\":3127:3194   */\n      tag_88\n      jump\t// in\n    tag_142:\n        /* \"#utility.yul\":3120:3194   */\n      swap2\n      pop\n        /* \"#utility.yul\":3203:3296   */\n      tag_143\n        /* \"#utility.yul\":3292:3295   */\n      dup3\n        /* \"#utility.yul\":3203:3296   */\n      tag_89\n      jump\t// in\n    tag_143:\n        /* \"#utility.yul\":3321:3323   */\n      0x40\n        /* \"#utility.yul\":3316:3319   */\n      dup3\n        /* \"#utility.yul\":3312:3324   */\n      add\n        /* \"#utility.yul\":3305:3324   */\n      swap1\n      pop\n        /* \"#utility.yul\":2964:3330   */\n      swap2\n      swap1\n      pop\n      jump\t// out\n        /* \"#utility.yul\":3336:3755   */\n    tag_37:\n        /* \"#utility.yul\":3502:3506   */\n      0x00\n        /* \"#utility.yul\":3540:3542   */\n      0x20\n        /* \"#utility.yul\":3529:3538   */\n      dup3\n        /* \"#utility.yul\":3525:3543   */\n      add\n        /* \"#utility.yul\":3517:3543   */\n      swap1\n      pop\n        /* \"#utility.yul\":3589:3598   */\n      dup2\n        /* \"#utility.yul\":3583:3587   */\n      dup2\n        /* \"#utility.yul\":3579:3599   */\n      sub\n        /* \"#utility.yul\":3575:3576   */\n      0x00\n        /* \"#utility.yul\":3564:3573   */\n      dup4\n        /* \"#utility.yul\":3560:3577   */\n      add\n        /* \"#utility.yul\":3553:3600   */\n      mstore\n        /* \"#utility.yul\":3617:3748   */\n      tag_145\n        /* \"#utility.yul\":3743:3747   */\n      dup2\n        /* \"#utility.yul\":3617:3748   */\n      tag_90\n      jump\t// in\n    tag_145:\n        /* \"#utility.yul\":3609:3748   */\n      swap1\n      pop\n        /* \"#utility.yul\":3336:3755   */\n      swap2\n      swap1\n      pop\n      jump\t// out\n        /* \"#utility.yul\":3761:3941   */\n    tag_91:\n        /* \"#utility.yul\":3809:3886   */\n      0x4e487b7100000000000000000000000000000000000000000000000000000000\n        /* \"#utility.yul\":3806:3807   */\n      0x00\n        /* \"#utility.yul\":3799:3887   */\n      mstore\n        /* \"#utility.yul\":3906:3910   */\n      0x12\n        /* \"#utility.yul\":3903:3904   */\n      0x04\n        /* \"#utility.yul\":3896:3911   */\n      mstore\n        /* \"#utility.yul\":3930:3934   */\n      0x24\n        /* \"#utility.yul\":3927:3928   */\n      0x00\n        /* \"#utility.yul\":3920:3935   */\n      revert\n        /* \"#utility.yul\":3947:4123   */\n    tag_41:\n        /* \"#utility.yul\":3979:3980   */\n      0x00\n        /* \"#utility.yul\":3996:4016   */\n      tag_148\n        /* \"#utility.yul\":4014:4015   */\n      dup3\n        /* \"#utility.yul\":3996:4016   */\n      tag_83\n      jump\t// in\n    tag_148:\n        /* \"#utility.yul\":3991:4016   */\n      swap2\n      pop\n        /* \"#utility.yul\":4030:4050   */\n      tag_149\n        /* \"#utility.yul\":4048:4049   */\n      dup4\n        /* \"#utility.yul\":4030:4050   */\n      tag_83\n      jump\t// in\n    tag_149:\n        /* \"#utility.yul\":4025:4050   */\n      swap3\n      pop\n        /* \"#utility.yul\":4069:4070   */\n      dup3\n        /* \"#utility.yul\":4059:4094   */\n      tag_150\n      jumpi\n        /* \"#utility.yul\":4074:4092   */\n      tag_151\n      tag_91\n      jump\t// in\n    tag_151:\n        /* \"#utility.yul\":4059:4094   */\n    tag_150:\n        /* \"#utility.yul\":4115:4116   */\n      dup3\n        /* \"#utility.yul\":4112:4113   */\n      dup3\n        /* \"#utility.yul\":4108:4117   */\n      mod\n        /* \"#utility.yul\":4103:4117   */\n      swap1\n      pop\n        /* \"#utility.yul\":3947:4123   */\n      swap3\n      swap2\n      pop\n      pop\n      jump\t// out\n        /* \"#utility.yul\":4129:4309   */\n    tag_44:\n        /* \"#utility.yul\":4177:4254   */\n      0x4e487b7100000000000000000000000000000000000000000000000000000000\n        /* \"#utility.yul\":4174:4175   */\n      0x00\n        /* \"#utility.yul\":4167:4255   */\n      mstore\n        /* \"#utility.yul\":4274:4278   */\n      0x32\n        /* \"#utility.yul\":4271:4272   */\n      0x04\n        /* \"#utility.yul\":4264:4279   */\n      mstore\n        /* \"#utility.yul\":4298:4302   */\n      0x24\n        /* \"#utility.yul\":4295:4296   */\n      0x00\n        /* \"#utility.yul\":4288:4303   */\n      revert\n        /* \"#utility.yul\":4315:4495   */\n    tag_53:\n        /* \"#utility.yul\":4363:4440   */\n      0x4e487b7100000000000000000000000000000000000000000000000000000000\n        /* \"#utility.yul\":4360:4361   */\n      0x00\n        /* \"#utility.yul\":4353:4441   */\n      mstore\n        /* \"#utility.yul\":4460:4464   */\n      0x41\n        /* \"#utility.yul\":4457:4458   */\n      0x04\n        /* \"#utility.yul\":4450:4465   */\n      mstore\n        /* \"#utility.yul\":4484:4488   */\n      0x24\n        /* \"#utility.yul\":4481:4482   */\n      0x00\n        /* \"#utility.yul\":4474:4489   */\n      revert\n        /* \"#utility.yul\":4501:4580   */\n    tag_92:\n        /* \"#utility.yul\":4540:4547   */\n      0x00\n        /* \"#utility.yul\":4569:4574   */\n      dup2\n        /* \"#utility.yul\":4558:4574   */\n      swap1\n      pop\n        /* \"#utility.yul\":4501:4580   */\n      swap2\n      swap1\n      pop\n      jump\t// out\n        /* \"#utility.yul\":4586:4743   */\n    tag_93:\n        /* \"#utility.yul\":4691:4736   */\n      tag_156\n        /* \"#utility.yul\":4711:4735   */\n      tag_157\n        /* \"#utility.yul\":4729:4734   */\n      dup3\n        /* \"#utility.yul\":4711:4735   */\n      tag_83\n      jump\t// in\n    tag_157:\n        /* \"#utility.yul\":4691:4736   */\n      tag_92\n      jump\t// in\n    tag_156:\n        /* \"#utility.yul\":4686:4689   */\n      dup3\n        /* \"#utility.yul\":4679:4737   */\n      mstore\n        /* \"#utility.yul\":4586:4743   */\n      pop\n      pop\n      jump\t// out\n        /* \"#utility.yul\":4749:4868   */\n    tag_94:\n        /* \"#utility.yul\":4821:4827   */\n      0x00\n        /* \"#utility.yul\":4855:4860   */\n      dup2\n        /* \"#utility.yul\":4849:4861   */\n      sload\n        /* \"#utility.yul\":4839:4861   */\n      swap1\n      pop\n        /* \"#utility.yul\":4749:4868   */\n      swap2\n      swap1\n      pop\n      jump\t// out\n        /* \"#utility.yul\":4874:5045   */\n    tag_95:\n        /* \"#utility.yul\":4999:5010   */\n      0x00\n        /* \"#utility.yul\":5036:5039   */\n      dup2\n        /* \"#utility.yul\":5021:5039   */\n      swap1\n      pop\n        /* \"#utility.yul\":4874:5045   */\n      swap3\n      swap2\n      pop\n      pop\n      jump\t// out\n        /* \"#utility.yul\":5051:5215   */\n    tag_96:\n        /* \"#utility.yul\":5123:5127   */\n      0x00\n        /* \"#utility.yul\":5146:5149   */\n      dup2\n        /* \"#utility.yul\":5138:5149   */\n      swap1\n      pop\n        /* \"#utility.yul\":5169:5172   */\n      dup2\n        /* \"#utility.yul\":5166:5167   */\n      0x00\n        /* \"#utility.yul\":5159:5173   */\n      mstore\n        /* \"#utility.yul\":5203:5207   */\n      0x20\n        /* \"#utility.yul\":5200:5201   */\n      0x00\n        /* \"#utility.yul\":5190:5208   */\n      keccak256\n        /* \"#utility.yul\":5182:5208   */\n      swap1\n      pop\n        /* \"#utility.yul\":5051:5215   */\n      swap2\n      swap1\n      pop\n      jump\t// out\n        /* \"#utility.yul\":5221:5361   */\n    tag_97:\n        /* \"#utility.yul\":5322:5354   */\n      tag_162\n        /* \"#utility.yul\":5348:5353   */\n      dup2\n        /* \"#utility.yul\":5322:5354   */\n      tag_86\n      jump\t// in\n    tag_162:\n        /* \"#utility.yul\":5317:5320   */\n      dup3\n        /* \"#utility.yul\":5310:5355   */\n      mstore\n        /* \"#utility.yul\":5221:5361   */\n      pop\n      pop\n      jump\t// out\n        /* \"#utility.yul\":5367:5594   */\n    tag_98:\n        /* \"#utility.yul\":5460:5470   */\n      0x00\n        /* \"#utility.yul\":5481:5551   */\n      tag_164\n        /* \"#utility.yul\":5547:5550   */\n      dup4\n        /* \"#utility.yul\":5539:5545   */\n      dup4\n        /* \"#utility.yul\":5481:5551   */\n      tag_97\n      jump\t// in\n    tag_164:\n        /* \"#utility.yul\":5583:5587   */\n      0x20\n        /* \"#utility.yul\":5578:5581   */\n      dup4\n        /* \"#utility.yul\":5574:5588   */\n      add\n        /* \"#utility.yul\":5560:5588   */\n      swap1\n      pop\n        /* \"#utility.yul\":5367:5594   */\n      swap3\n      swap2\n      pop\n      pop\n      jump\t// out\n        /* \"#utility.yul\":5600:5702   */\n    tag_99:\n        /* \"#utility.yul\":5642:5650   */\n      0x00\n        /* \"#utility.yul\":5689:5694   */\n      dup2\n        /* \"#utility.yul\":5686:5687   */\n      0x00\n        /* \"#utility.yul\":5682:5695   */\n      shr\n        /* \"#utility.yul\":5661:5695   */\n      swap1\n      pop\n        /* \"#utility.yul\":5600:5702   */\n      swap2\n      swap1\n      pop\n      jump\t// out\n        /* \"#utility.yul\":5708:5855   */\n    tag_100:\n        /* \"#utility.yul\":5766:5773   */\n      0x00\n        /* \"#utility.yul\":5806:5848   */\n      0xffffffffffffffffffffffffffffffffffffffff\n        /* \"#utility.yul\":5799:5804   */\n      dup3\n        /* \"#utility.yul\":5795:5849   */\n      and\n        /* \"#utility.yul\":5784:5849   */\n      swap1\n      pop\n        /* \"#utility.yul\":5708:5855   */\n      swap2\n      swap1\n      pop\n      jump\t// out\n        /* \"#utility.yul\":5861:6043   */\n    tag_101:\n        /* \"#utility.yul\":5938:5943   */\n      0x00\n        /* \"#utility.yul\":5963:6037   */\n      tag_168\n        /* \"#utility.yul\":6002:6036   */\n      tag_169\n        /* \"#utility.yul\":6025:6035   */\n      dup4\n        /* \"#utility.yul\":6002:6036   */\n      tag_99\n      jump\t// in\n    tag_169:\n        /* \"#utility.yul\":5963:6037   */\n      tag_100\n      jump\t// in\n    tag_168:\n        /* \"#utility.yul\":5954:6037   */\n      swap1\n      pop\n        /* \"#utility.yul\":5861:6043   */\n      swap2\n      swap1\n      pop\n      jump\t// out\n        /* \"#utility.yul\":6049:6209   */\n    tag_102:\n        /* \"#utility.yul\":6112:6117   */\n      0x00\n        /* \"#utility.yul\":6137:6202   */\n      tag_171\n        /* \"#utility.yul\":6196:6200   */\n      dup3\n        /* \"#utility.yul\":6190:6201   */\n      sload\n        /* \"#utility.yul\":6137:6202   */\n      tag_101\n      jump\t// in\n    tag_171:\n        /* \"#utility.yul\":6128:6202   */\n      swap1\n      pop\n        /* \"#utility.yul\":6049:6209   */\n      swap2\n      swap1\n      pop\n      jump\t// out\n        /* \"#utility.yul\":6215:6333   */\n    tag_103:\n        /* \"#utility.yul\":6290:6294   */\n      0x00\n        /* \"#utility.yul\":6322:6326   */\n      0x01\n        /* \"#utility.yul\":6317:6320   */\n      dup3\n        /* \"#utility.yul\":6313:6327   */\n      add\n        /* \"#utility.yul\":6305:6327   */\n      swap1\n      pop\n        /* \"#utility.yul\":6215:6333   */\n      swap2\n      swap1\n      pop\n      jump\t// out\n        /* \"#utility.yul\":6385:7252   */\n    tag_104:\n        /* \"#utility.yul\":6535:6538   */\n      0x00\n        /* \"#utility.yul\":6564:6623   */\n      tag_174\n        /* \"#utility.yul\":6617:6622   */\n      dup3\n        /* \"#utility.yul\":6564:6623   */\n      tag_94\n      jump\t// in\n    tag_174:\n        /* \"#utility.yul\":6639:6751   */\n      tag_175\n        /* \"#utility.yul\":6744:6750   */\n      dup2\n        /* \"#utility.yul\":6739:6742   */\n      dup6\n        /* \"#utility.yul\":6639:6751   */\n      tag_95\n      jump\t// in\n    tag_175:\n        /* \"#utility.yul\":6632:6751   */\n      swap4\n      pop\n        /* \"#utility.yul\":6775:6836   */\n      tag_176\n        /* \"#utility.yul\":6830:6835   */\n      dup4\n        /* \"#utility.yul\":6775:6836   */\n      tag_96\n      jump\t// in\n    tag_176:\n        /* \"#utility.yul\":6859:6866   */\n      dup1\n        /* \"#utility.yul\":6890:6891   */\n      0x00\n        /* \"#utility.yul\":6875:7227   */\n    tag_177:\n        /* \"#utility.yul\":6900:6906   */\n      dup4\n        /* \"#utility.yul\":6897:6898   */\n      dup2\n        /* \"#utility.yul\":6894:6907   */\n      lt\n        /* \"#utility.yul\":6875:7227   */\n      iszero\n      tag_179\n      jumpi\n        /* \"#utility.yul\":6970:7022   */\n      tag_180\n        /* \"#utility.yul\":7015:7021   */\n      dup3\n        /* \"#utility.yul\":6970:7022   */\n      tag_102\n      jump\t// in\n    tag_180:\n        /* \"#utility.yul\":7042:7129   */\n      tag_181\n        /* \"#utility.yul\":7125:7128   */\n      dup9\n        /* \"#utility.yul\":7110:7123   */\n      dup3\n        /* \"#utility.yul\":7042:7129   */\n      tag_98\n      jump\t// in\n    tag_181:\n        /* \"#utility.yul\":7035:7129   */\n      swap8\n      pop\n        /* \"#utility.yul\":7152:7217   */\n      tag_182\n        /* \"#utility.yul\":7210:7216   */\n      dup4\n        /* \"#utility.yul\":7152:7217   */\n      tag_103\n      jump\t// in\n    tag_182:\n        /* \"#utility.yul\":7142:7217   */\n      swap3\n      pop\n        /* \"#utility.yul\":6935:7227   */\n      pop\n        /* \"#utility.yul\":6922:6923   */\n      0x01\n        /* \"#utility.yul\":6919:6920   */\n      dup2\n        /* \"#utility.yul\":6915:6924   */\n      add\n        /* \"#utility.yul\":6910:6924   */\n      swap1\n      pop\n        /* \"#utility.yul\":6875:7227   */\n      jump(tag_177)\n    tag_179:\n        /* \"#utility.yul\":6879:6893   */\n      pop\n        /* \"#utility.yul\":7243:7246   */\n      dup6\n        /* \"#utility.yul\":7236:7246   */\n      swap4\n      pop\n        /* \"#utility.yul\":6540:7252   */\n      pop\n      pop\n      pop\n        /* \"#utility.yul\":6385:7252   */\n      swap3\n      swap2\n      pop\n      pop\n      jump\t// out\n        /* \"#utility.yul\":7258:7901   */\n    tag_59:\n        /* \"#utility.yul\":7489:7492   */\n      0x00\n        /* \"#utility.yul\":7504:7579   */\n      tag_184\n        /* \"#utility.yul\":7575:7578   */\n      dup3\n        /* \"#utility.yul\":7566:7572   */\n      dup7\n        /* \"#utility.yul\":7504:7579   */\n      tag_93\n      jump\t// in\n    tag_184:\n        /* \"#utility.yul\":7604:7606   */\n      0x20\n        /* \"#utility.yul\":7599:7602   */\n      dup3\n        /* \"#utility.yul\":7595:7607   */\n      add\n        /* \"#utility.yul\":7588:7607   */\n      swap2\n      pop\n        /* \"#utility.yul\":7617:7692   */\n      tag_185\n        /* \"#utility.yul\":7688:7691   */\n      dup3\n        /* \"#utility.yul\":7679:7685   */\n      dup6\n        /* \"#utility.yul\":7617:7692   */\n      tag_93\n      jump\t// in\n    tag_185:\n        /* \"#utility.yul\":7717:7719   */\n      0x20\n        /* \"#utility.yul\":7712:7715   */\n      dup3\n        /* \"#utility.yul\":7708:7720   */\n      add\n        /* \"#utility.yul\":7701:7720   */\n      swap2\n      pop\n        /* \"#utility.yul\":7737:7875   */\n      tag_186\n        /* \"#utility.yul\":7871:7874   */\n      dup3\n        /* \"#utility.yul\":7862:7868   */\n      dup5\n        /* \"#utility.yul\":7737:7875   */\n      tag_104\n      jump\t// in\n    tag_186:\n        /* \"#utility.yul\":7730:7875   */\n      swap2\n      pop\n        /* \"#utility.yul\":7892:7895   */\n      dup2\n        /* \"#utility.yul\":7885:7895   */\n      swap1\n      pop\n        /* \"#utility.yul\":7258:7901   */\n      swap5\n      swap4\n      pop\n      pop\n      pop\n      pop\n      jump\t// out\n        /* \"#utility.yul\":7907:8128   */\n    tag_105:\n        /* \"#utility.yul\":8047:8081   */\n      0x4d7573742073656e642065786163746c79203120657468657220746f20656e74\n        /* \"#utility.yul\":8043:8044   */\n      0x00\n        /* \"#utility.yul\":8035:8041   */\n      dup3\n        /* \"#utility.yul\":8031:8045   */\n      add\n        /* \"#utility.yul\":8024:8082   */\n      mstore\n        /* \"#utility.yul\":8116:8120   */\n      0x6572000000000000000000000000000000000000000000000000000000000000\n        /* \"#utility.yul\":8111:8113   */\n      0x20\n        /* \"#utility.yul\":8103:8109   */\n      dup3\n        /* \"#utility.yul\":8099:8114   */\n      add\n        /* \"#utility.yul\":8092:8121   */\n      mstore\n        /* \"#utility.yul\":7907:8128   */\n      pop\n      jump\t// out\n        /* \"#utility.yul\":8134:8500   */\n    tag_106:\n        /* \"#utility.yul\":8276:8279   */\n      0x00\n        /* \"#utility.yul\":8297:8364   */\n      tag_189\n        /* \"#utility.yul\":8361:8363   */\n      0x22\n        /* \"#utility.yul\":8356:8359   */\n      dup4\n        /* \"#utility.yul\":8297:8364   */\n      tag_88\n      jump\t// in\n    tag_189:\n        /* \"#utility.yul\":8290:8364   */\n      swap2\n      pop\n        /* \"#utility.yul\":8373:8466   */\n      tag_190\n        /* \"#utility.yul\":8462:8465   */\n      dup3\n        /* \"#utility.yul\":8373:8466   */\n      tag_105\n      jump\t// in\n    tag_190:\n        /* \"#utility.yul\":8491:8493   */\n      0x40\n        /* \"#utility.yul\":8486:8489   */\n      dup3\n        /* \"#utility.yul\":8482:8494   */\n      add\n        /* \"#utility.yul\":8475:8494   */\n      swap1\n      pop\n        /* \"#utility.yul\":8134:8500   */\n      swap2\n      swap1\n      pop\n      jump\t// out\n        /* \"#utility.yul\":8506:8925   */\n    tag_64:\n        /* \"#utility.yul\":8672:8676   */\n      0x00\n        /* \"#utility.yul\":8710:8712   */\n      0x20\n        /* \"#utility.yul\":8699:8708   */\n      dup3\n        /* \"#utility.yul\":8695:8713   */\n      add\n        /* \"#utility.yul\":8687:8713   */\n      swap1\n      pop\n        /* \"#utility.yul\":8759:8768   */\n      dup2\n        /* \"#utility.yul\":8753:8757   */\n      dup2\n        /* \"#utility.yul\":8749:8769   */\n      sub\n        /* \"#utility.yul\":8745:8746   */\n      0x00\n        /* \"#utility.yul\":8734:8743   */\n      dup4\n        /* \"#utility.yul\":8730:8747   */\n      add\n        /* \"#utility.yul\":8723:8770   */\n      mstore\n        /* \"#utility.yul\":8787:8918   */\n      tag_192\n        /* \"#utility.yul\":8913:8917   */\n      dup2\n        /* \"#utility.yul\":8787:8918   */\n      tag_106\n      jump\t// in\n    tag_192:\n        /* \"#utility.yul\":8779:8918   */\n      swap1\n      pop\n        /* \"#utility.yul\":8506:8925   */\n      swap2\n      swap1\n      pop\n      jump\t// out\n\n    auxdata: 0xa2646970667358221220c5cfe808414cd59e77aa61d356e15ec584f49b07c20c2718b4574a7838234a8664736f6c63430008160033\n}\n",
				"bytecode": {
					"linkReferences": {},
					"object": "608060405234801561000f575f80fd5b50335f806101000a81548173ffffffffffffffffffffffffffffffffffffffff021916908373ffffffffffffffffffffffffffffffffffffffff1602179055506109f28061005c5f395ff3fe608060405260043610610054575f3560e01c80635d495aea146100585780635ec01e4d1461006e5780638da5cb5b14610098578063dfbf53ae146100c2578063e97dcb62146100ec578063f71d96cb146100f6575b5f80fd5b348015610063575f80fd5b5061006c610132565b005b348015610079575f80fd5b50610082610339565b60405161008f9190610565565b60405180910390f35b3480156100a3575f80fd5b506100ac610379565b6040516100b991906105bd565b60405180910390f35b3480156100cd575f80fd5b506100d661039c565b6040516100e391906105bd565b60405180910390f35b6100f46103c1565b005b348015610101575f80fd5b5061011c6004803603810190610117919061060d565b61046d565b6040516101299190610658565b60405180910390f35b5f8054906101000a900473ffffffffffffffffffffffffffffffffffffffff1673ffffffffffffffffffffffffffffffffffffffff163373ffffffffffffffffffffffffffffffffffffffff16146101bf576040517f08c379a00000000000000000000000000000000000000000000000000000000081526004016101b6906106f1565b60405180910390fd5b5f6001805490506101ce610339565b60ff166101db919061073c565b9050600181815481106101f1576101f061076c565b5b905f5260205f20015f9054906101000a900473ffffffffffffffffffffffffffffffffffffffff1673ffffffffffffffffffffffffffffffffffffffff166108fc4790811502906040515f60405180830381858888f1935050505015801561025b573d5f803e3d5ffd5b50600181815481106102705761026f61076c565b5b905f5260205f20015f9054906101000a900473ffffffffffffffffffffffffffffffffffffffff1660025f6101000a81548173ffffffffffffffffffffffffffffffffffffffff021916908373ffffffffffffffffffffffffffffffffffffffff1602179055505f67ffffffffffffffff8111156102f1576102f0610799565b5b60405190808252806020026020018201604052801561031f5781602001602082028036833780820191505090505b50600190805190602001906103359291906104a8565b5050565b5f60fb42446001604051602001610352939291906108f6565b604051602081830303815290604052805190602001205f1c610374919061073c565b905090565b5f8054906101000a900473ffffffffffffffffffffffffffffffffffffffff1681565b60025f9054906101000a900473ffffffffffffffffffffffffffffffffffffffff1681565b670de0b6b3a7640000341461040b576040517f08c379a00000000000000000000000000000000000000000000000000000000081526004016104029061099e565b60405180910390fd5b600133908060018154018082558091505060019003905f5260205f20015f9091909190916101000a81548173ffffffffffffffffffffffffffffffffffffffff021916908373ffffffffffffffffffffffffffffffffffffffff160217905550565b6001818154811061047c575f80fd5b905f5260205f20015f915054906101000a900473ffffffffffffffffffffffffffffffffffffffff1681565b828054828255905f5260205f2090810192821561051e579160200282015b8281111561051d578251825f6101000a81548173ffffffffffffffffffffffffffffffffffffffff021916908373ffffffffffffffffffffffffffffffffffffffff160217905550916020019190600101906104c6565b5b50905061052b919061052f565b5090565b5b80821115610546575f815f905550600101610530565b5090565b5f60ff82169050919050565b61055f8161054a565b82525050565b5f6020820190506105785f830184610556565b92915050565b5f73ffffffffffffffffffffffffffffffffffffffff82169050919050565b5f6105a78261057e565b9050919050565b6105b78161059d565b82525050565b5f6020820190506105d05f8301846105ae565b92915050565b5f80fd5b5f819050919050565b6105ec816105da565b81146105f6575f80fd5b50565b5f81359050610607816105e3565b92915050565b5f60208284031215610622576106216105d6565b5b5f61062f848285016105f9565b91505092915050565b5f6106428261057e565b9050919050565b61065281610638565b82525050565b5f60208201905061066b5f830184610649565b92915050565b5f82825260208201905092915050565b7f4f6e6c7920746865206f776e65722063616e2063616c6c20746869732066756e5f8201527f6374696f6e000000000000000000000000000000000000000000000000000000602082015250565b5f6106db602583610671565b91506106e682610681565b604082019050919050565b5f6020820190508181035f830152610708816106cf565b9050919050565b7f4e487b71000000000000000000000000000000000000000000000000000000005f52601260045260245ffd5b5f610746826105da565b9150610751836105da565b9250826107615761076061070f565b5b828206905092915050565b7f4e487b71000000000000000000000000000000000000000000000000000000005f52603260045260245ffd5b7f4e487b71000000000000000000000000000000000000000000000000000000005f52604160045260245ffd5b5f819050919050565b6107e06107db826105da565b6107c6565b82525050565b5f81549050919050565b5f81905092915050565b5f819050815f5260205f209050919050565b61081581610638565b82525050565b5f610826838361080c565b60208301905092915050565b5f815f1c9050919050565b5f73ffffffffffffffffffffffffffffffffffffffff82169050919050565b5f61086e61086983610832565b61083d565b9050919050565b5f610880825461085c565b9050919050565b5f600182019050919050565b5f61089d826107e6565b6108a781856107f0565b93506108b2836107fa565b805f5b838110156108e9576108c682610875565b6108d0888261081b565b97506108db83610887565b9250506001810190506108b5565b5085935050505092915050565b5f61090182866107cf565b60208201915061091182856107cf565b6020820191506109218284610893565b9150819050949350505050565b7f4d7573742073656e642065786163746c79203120657468657220746f20656e745f8201527f6572000000000000000000000000000000000000000000000000000000000000602082015250565b5f610988602283610671565b91506109938261092e565b604082019050919050565b5f6020820190508181035f8301526109b58161097c565b905091905056fea2646970667358221220c5cfe808414cd59e77aa61d356e15ec584f49b07c20c2718b4574a7838234a8664736f6c63430008160033",
					"opcodes": "PUSH1 0x80 PUSH1 0x40 MSTORE CALLVALUE DUP1 ISZERO PUSH2 0xF JUMPI PUSH0 DUP1 REVERT JUMPDEST POP CALLER PUSH0 DUP1 PUSH2 0x100 EXP DUP2 SLOAD DUP2 PUSH20 0xFFFFFFFFFFFFFFFFFFFFFFFFFFFFFFFFFFFFFFFF MUL NOT AND SWAP1 DUP4 PUSH20 0xFFFFFFFFFFFFFFFFFFFFFFFFFFFFFFFFFFFFFFFF AND MUL OR SWAP1 SSTORE POP PUSH2 0x9F2 DUP1 PUSH2 0x5C PUSH0 CODECOPY PUSH0 RETURN INVALID PUSH1 0x80 PUSH1 0x40 MSTORE PUSH1 0x4 CALLDATASIZE LT PUSH2 0x54 JUMPI PUSH0 CALLDATALOAD PUSH1 0xE0 SHR DUP1 PUSH4 0x5D495AEA EQ PUSH2 0x58 JUMPI DUP1 PUSH4 0x5EC01E4D EQ PUSH2 0x6E JUMPI DUP1 PUSH4 0x8DA5CB5B EQ PUSH2 0x98 JUMPI DUP1 PUSH4 0xDFBF53AE EQ PUSH2 0xC2 JUMPI DUP1 PUSH4 0xE97DCB62 EQ PUSH2 0xEC JUMPI DUP1 PUSH4 0xF71D96CB EQ PUSH2 0xF6 JUMPI JUMPDEST PUSH0 DUP1 REVERT JUMPDEST CALLVALUE DUP1 ISZERO PUSH2 0x63 JUMPI PUSH0 DUP1 REVERT JUMPDEST POP PUSH2 0x6C PUSH2 0x132 JUMP JUMPDEST STOP JUMPDEST CALLVALUE DUP1 ISZERO PUSH2 0x79 JUMPI PUSH0 DUP1 REVERT JUMPDEST POP PUSH2 0x82 PUSH2 0x339 JUMP JUMPDEST PUSH1 0x40 MLOAD PUSH2 0x8F SWAP2 SWAP1 PUSH2 0x565 JUMP JUMPDEST PUSH1 0x40 MLOAD DUP1 SWAP2 SUB SWAP1 RETURN JUMPDEST CALLVALUE DUP1 ISZERO PUSH2 0xA3 JUMPI PUSH0 DUP1 REVERT JUMPDEST POP PUSH2 0xAC PUSH2 0x379 JUMP JUMPDEST PUSH1 0x40 MLOAD PUSH2 0xB9 SWAP2 SWAP1 PUSH2 0x5BD JUMP JUMPDEST PUSH1 0x40 MLOAD DUP1 SWAP2 SUB SWAP1 RETURN JUMPDEST CALLVALUE DUP1 ISZERO PUSH2 0xCD JUMPI PUSH0 DUP1 REVERT JUMPDEST POP PUSH2 0xD6 PUSH2 0x39C JUMP JUMPDEST PUSH1 0x40 MLOAD PUSH2 0xE3 SWAP2 SWAP1 PUSH2 0x5BD JUMP JUMPDEST PUSH1 0x40 MLOAD DUP1 SWAP2 SUB SWAP1 RETURN JUMPDEST PUSH2 0xF4 PUSH2 0x3C1 JUMP JUMPDEST STOP JUMPDEST CALLVALUE DUP1 ISZERO PUSH2 0x101 JUMPI PUSH0 DUP1 REVERT JUMPDEST POP PUSH2 0x11C PUSH1 0x4 DUP1 CALLDATASIZE SUB DUP2 ADD SWAP1 PUSH2 0x117 SWAP2 SWAP1 PUSH2 0x60D JUMP JUMPDEST PUSH2 0x46D JUMP JUMPDEST PUSH1 0x40 MLOAD PUSH2 0x129 SWAP2 SWAP1 PUSH2 0x658 JUMP JUMPDEST PUSH1 0x40 MLOAD DUP1 SWAP2 SUB SWAP1 RETURN JUMPDEST PUSH0 DUP1 SLOAD SWAP1 PUSH2 0x100 EXP SWAP1 DIV PUSH20 0xFFFFFFFFFFFFFFFFFFFFFFFFFFFFFFFFFFFFFFFF AND PUSH20 0xFFFFFFFFFFFFFFFFFFFFFFFFFFFFFFFFFFFFFFFF AND CALLER PUSH20 0xFFFFFFFFFFFFFFFFFFFFFFFFFFFFFFFFFFFFFFFF AND EQ PUSH2 0x1BF JUMPI PUSH1 0x40 MLOAD PUSH32 0x8C379A000000000000000000000000000000000000000000000000000000000 DUP2 MSTORE PUSH1 0x4 ADD PUSH2 0x1B6 SWAP1 PUSH2 0x6F1 JUMP JUMPDEST PUSH1 0x40 MLOAD DUP1 SWAP2 SUB SWAP1 REVERT JUMPDEST PUSH0 PUSH1 0x1 DUP1 SLOAD SWAP1 POP PUSH2 0x1CE PUSH2 0x339 JUMP JUMPDEST PUSH1 0xFF AND PUSH2 0x1DB SWAP2 SWAP1 PUSH2 0x73C JUMP JUMPDEST SWAP1 POP PUSH1 0x1 DUP2 DUP2 SLOAD DUP2 LT PUSH2 0x1F1 JUMPI PUSH2 0x1F0 PUSH2 0x76C JUMP JUMPDEST JUMPDEST SWAP1 PUSH0 MSTORE PUSH1 0x20 PUSH0 KECCAK256 ADD PUSH0 SWAP1 SLOAD SWAP1 PUSH2 0x100 EXP SWAP1 DIV PUSH20 0xFFFFFFFFFFFFFFFFFFFFFFFFFFFFFFFFFFFFFFFF AND PUSH20 0xFFFFFFFFFFFFFFFFFFFFFFFFFFFFFFFFFFFFFFFF AND PUSH2 0x8FC SELFBALANCE SWAP1 DUP2 ISZERO MUL SWAP1 PUSH1 0x40 MLOAD PUSH0 PUSH1 0x40 MLOAD DUP1 DUP4 SUB DUP2 DUP6 DUP9 DUP9 CALL SWAP4 POP POP POP POP ISZERO DUP1 ISZERO PUSH2 0x25B JUMPI RETURNDATASIZE PUSH0 DUP1 RETURNDATACOPY RETURNDATASIZE PUSH0 REVERT JUMPDEST POP PUSH1 0x1 DUP2 DUP2 SLOAD DUP2 LT PUSH2 0x270 JUMPI PUSH2 0x26F PUSH2 0x76C JUMP JUMPDEST JUMPDEST SWAP1 PUSH0 MSTORE PUSH1 0x20 PUSH0 KECCAK256 ADD PUSH0 SWAP1 SLOAD SWAP1 PUSH2 0x100 EXP SWAP1 DIV PUSH20 0xFFFFFFFFFFFFFFFFFFFFFFFFFFFFFFFFFFFFFFFF AND PUSH1 0x2 PUSH0 PUSH2 0x100 EXP DUP2 SLOAD DUP2 PUSH20 0xFFFFFFFFFFFFFFFFFFFFFFFFFFFFFFFFFFFFFFFF MUL NOT AND SWAP1 DUP4 PUSH20 0xFFFFFFFFFFFFFFFFFFFFFFFFFFFFFFFFFFFFFFFF AND MUL OR SWAP1 SSTORE POP PUSH0 PUSH8 0xFFFFFFFFFFFFFFFF DUP2 GT ISZERO PUSH2 0x2F1 JUMPI PUSH2 0x2F0 PUSH2 0x799 JUMP JUMPDEST JUMPDEST PUSH1 0x40 MLOAD SWAP1 DUP1 DUP3 MSTORE DUP1 PUSH1 0x20 MUL PUSH1 0x20 ADD DUP3 ADD PUSH1 0x40 MSTORE DUP1 ISZERO PUSH2 0x31F JUMPI DUP2 PUSH1 0x20 ADD PUSH1 0x20 DUP3 MUL DUP1 CALLDATASIZE DUP4 CALLDATACOPY DUP1 DUP3 ADD SWAP2 POP POP SWAP1 POP JUMPDEST POP PUSH1 0x1 SWAP1 DUP1 MLOAD SWAP1 PUSH1 0x20 ADD SWAP1 PUSH2 0x335 SWAP3 SWAP2 SWAP1 PUSH2 0x4A8 JUMP JUMPDEST POP POP JUMP JUMPDEST PUSH0 PUSH1 0xFB TIMESTAMP PREVRANDAO PUSH1 0x1 PUSH1 0x40 MLOAD PUSH1 0x20 ADD PUSH2 0x352 SWAP4 SWAP3 SWAP2 SWAP1 PUSH2 0x8F6 JUMP JUMPDEST PUSH1 0x40 MLOAD PUSH1 0x20 DUP2 DUP4 SUB SUB DUP2 MSTORE SWAP1 PUSH1 0x40 MSTORE DUP1 MLOAD SWAP1 PUSH1 0x20 ADD KECCAK256 PUSH0 SHR PUSH2 0x374 SWAP2 SWAP1 PUSH2 0x73C JUMP JUMPDEST SWAP1 POP SWAP1 JUMP JUMPDEST PUSH0 DUP1 SLOAD SWAP1 PUSH2 0x100 EXP SWAP1 DIV PUSH20 0xFFFFFFFFFFFFFFFFFFFFFFFFFFFFFFFFFFFFFFFF AND DUP2 JUMP JUMPDEST PUSH1 0x2 PUSH0 SWAP1 SLOAD SWAP1 PUSH2 0x100 EXP SWAP1 DIV PUSH20 0xFFFFFFFFFFFFFFFFFFFFFFFFFFFFFFFFFFFFFFFF AND DUP2 JUMP JUMPDEST PUSH8 0xDE0B6B3A7640000 CALLVALUE EQ PUSH2 0x40B JUMPI PUSH1 0x40 MLOAD PUSH32 0x8C379A000000000000000000000000000000000000000000000000000000000 DUP2 MSTORE PUSH1 0x4 ADD PUSH2 0x402 SWAP1 PUSH2 0x99E JUMP JUMPDEST PUSH1 0x40 MLOAD DUP1 SWAP2 SUB SWAP1 REVERT JUMPDEST PUSH1 0x1 CALLER SWAP1 DUP1 PUSH1 0x1 DUP2 SLOAD ADD DUP1 DUP3 SSTORE DUP1 SWAP2 POP POP PUSH1 0x1 SWAP1 SUB SWAP1 PUSH0 MSTORE PUSH1 0x20 PUSH0 KECCAK256 ADD PUSH0 SWAP1 SWAP2 SWAP1 SWAP2 SWAP1 SWAP2 PUSH2 0x100 EXP DUP2 SLOAD DUP2 PUSH20 0xFFFFFFFFFFFFFFFFFFFFFFFFFFFFFFFFFFFFFFFF MUL NOT AND SWAP1 DUP4 PUSH20 0xFFFFFFFFFFFFFFFFFFFFFFFFFFFFFFFFFFFFFFFF AND MUL OR SWAP1 SSTORE POP JUMP JUMPDEST PUSH1 0x1 DUP2 DUP2 SLOAD DUP2 LT PUSH2 0x47C JUMPI PUSH0 DUP1 REVERT JUMPDEST SWAP1 PUSH0 MSTORE PUSH1 0x20 PUSH0 KECCAK256 ADD PUSH0 SWAP2 POP SLOAD SWAP1 PUSH2 0x100 EXP SWAP1 DIV PUSH20 0xFFFFFFFFFFFFFFFFFFFFFFFFFFFFFFFFFFFFFFFF AND DUP2 JUMP JUMPDEST DUP3 DUP1 SLOAD DUP3 DUP3 SSTORE SWAP1 PUSH0 MSTORE PUSH1 0x20 PUSH0 KECCAK256 SWAP1 DUP2 ADD SWAP3 DUP3 ISZERO PUSH2 0x51E JUMPI SWAP2 PUSH1 0x20 MUL DUP3 ADD JUMPDEST DUP3 DUP2 GT ISZERO PUSH2 0x51D JUMPI DUP3 MLOAD DUP3 PUSH0 PUSH2 0x100 EXP DUP2 SLOAD DUP2 PUSH20 0xFFFFFFFFFFFFFFFFFFFFFFFFFFFFFFFFFFFFFFFF MUL NOT AND SWAP1 DUP4 PUSH20 0xFFFFFFFFFFFFFFFFFFFFFFFFFFFFFFFFFFFFFFFF AND MUL OR SWAP1 SSTORE POP SWAP2 PUSH1 0x20 ADD SWAP2 SWAP1 PUSH1 0x1 ADD SWAP1 PUSH2 0x4C6 JUMP JUMPDEST JUMPDEST POP SWAP1 POP PUSH2 0x52B SWAP2 SWAP1 PUSH2 0x52F JUMP JUMPDEST POP SWAP1 JUMP JUMPDEST JUMPDEST DUP1 DUP3 GT ISZERO PUSH2 0x546 JUMPI PUSH0 DUP2 PUSH0 SWAP1 SSTORE POP PUSH1 0x1 ADD PUSH2 0x530 JUMP JUMPDEST POP SWAP1 JUMP JUMPDEST PUSH0 PUSH1 0xFF DUP3 AND SWAP1 POP SWAP2 SWAP1 POP JUMP JUMPDEST PUSH2 0x55F DUP2 PUSH2 0x54A JUMP JUMPDEST DUP3 MSTORE POP POP JUMP JUMPDEST PUSH0 PUSH1 0x20 DUP3 ADD SWAP1 POP PUSH2 0x578 PUSH0 DUP4 ADD DUP5 PUSH2 0x556 JUMP JUMPDEST SWAP3 SWAP2 POP POP JUMP JUMPDEST PUSH0 PUSH20 0xFFFFFFFFFFFFFFFFFFFFFFFFFFFFFFFFFFFFFFFF DUP3 AND SWAP1 POP SWAP2 SWAP1 POP JUMP JUMPDEST PUSH0 PUSH2 0x5A7 DUP3 PUSH2 0x57E JUMP JUMPDEST SWAP1 POP SWAP2 SWAP1 POP JUMP JUMPDEST PUSH2 0x5B7 DUP2 PUSH2 0x59D JUMP JUMPDEST DUP3 MSTORE POP POP JUMP JUMPDEST PUSH0 PUSH1 0x20 DUP3 ADD SWAP1 POP PUSH2 0x5D0 PUSH0 DUP4 ADD DUP5 PUSH2 0x5AE JUMP JUMPDEST SWAP3 SWAP2 POP POP JUMP JUMPDEST PUSH0 DUP1 REVERT JUMPDEST PUSH0 DUP2 SWAP1 POP SWAP2 SWAP1 POP JUMP JUMPDEST PUSH2 0x5EC DUP2 PUSH2 0x5DA JUMP JUMPDEST DUP2 EQ PUSH2 0x5F6 JUMPI PUSH0 DUP1 REVERT JUMPDEST POP JUMP JUMPDEST PUSH0 DUP2 CALLDATALOAD SWAP1 POP PUSH2 0x607 DUP2 PUSH2 0x5E3 JUMP JUMPDEST SWAP3 SWAP2 POP POP JUMP JUMPDEST PUSH0 PUSH1 0x20 DUP3 DUP5 SUB SLT ISZERO PUSH2 0x622 JUMPI PUSH2 0x621 PUSH2 0x5D6 JUMP JUMPDEST JUMPDEST PUSH0 PUSH2 0x62F DUP5 DUP3 DUP6 ADD PUSH2 0x5F9 JUMP JUMPDEST SWAP2 POP POP SWAP3 SWAP2 POP POP JUMP JUMPDEST PUSH0 PUSH2 0x642 DUP3 PUSH2 0x57E JUMP JUMPDEST SWAP1 POP SWAP2 SWAP1 POP JUMP JUMPDEST PUSH2 0x652 DUP2 PUSH2 0x638 JUMP JUMPDEST DUP3 MSTORE POP POP JUMP JUMPDEST PUSH0 PUSH1 0x20 DUP3 ADD SWAP1 POP PUSH2 0x66B PUSH0 DUP4 ADD DUP5 PUSH2 0x649 JUMP JUMPDEST SWAP3 SWAP2 POP POP JUMP JUMPDEST PUSH0 DUP3 DUP3 MSTORE PUSH1 0x20 DUP3 ADD SWAP1 POP SWAP3 SWAP2 POP POP JUMP JUMPDEST PUSH32 0x4F6E6C7920746865206F776E65722063616E2063616C6C20746869732066756E PUSH0 DUP3 ADD MSTORE PUSH32 0x6374696F6E000000000000000000000000000000000000000000000000000000 PUSH1 0x20 DUP3 ADD MSTORE POP JUMP JUMPDEST PUSH0 PUSH2 0x6DB PUSH1 0x25 DUP4 PUSH2 0x671 JUMP JUMPDEST SWAP2 POP PUSH2 0x6E6 DUP3 PUSH2 0x681 JUMP JUMPDEST PUSH1 0x40 DUP3 ADD SWAP1 POP SWAP2 SWAP1 POP JUMP JUMPDEST PUSH0 PUSH1 0x20 DUP3 ADD SWAP1 POP DUP2 DUP2 SUB PUSH0 DUP4 ADD MSTORE PUSH2 0x708 DUP2 PUSH2 0x6CF JUMP JUMPDEST SWAP1 POP SWAP2 SWAP1 POP JUMP JUMPDEST PUSH32 0x4E487B7100000000000000000000000000000000000000000000000000000000 PUSH0 MSTORE PUSH1 0x12 PUSH1 0x4 MSTORE PUSH1 0x24 PUSH0 REVERT JUMPDEST PUSH0 PUSH2 0x746 DUP3 PUSH2 0x5DA JUMP JUMPDEST SWAP2 POP PUSH2 0x751 DUP4 PUSH2 0x5DA JUMP JUMPDEST SWAP3 POP DUP3 PUSH2 0x761 JUMPI PUSH2 0x760 PUSH2 0x70F JUMP JUMPDEST JUMPDEST DUP3 DUP3 MOD SWAP1 POP SWAP3 SWAP2 POP POP JUMP JUMPDEST PUSH32 0x4E487B7100000000000000000000000000000000000000000000000000000000 PUSH0 MSTORE PUSH1 0x32 PUSH1 0x4 MSTORE PUSH1 0x24 PUSH0 REVERT JUMPDEST PUSH32 0x4E487B7100000000000000000000000000000000000000000000000000000000 PUSH0 MSTORE PUSH1 0x41 PUSH1 0x4 MSTORE PUSH1 0x24 PUSH0 REVERT JUMPDEST PUSH0 DUP2 SWAP1 POP SWAP2 SWAP1 POP JUMP JUMPDEST PUSH2 0x7E0 PUSH2 0x7DB DUP3 PUSH2 0x5DA JUMP JUMPDEST PUSH2 0x7C6 JUMP JUMPDEST DUP3 MSTORE POP POP JUMP JUMPDEST PUSH0 DUP2 SLOAD SWAP1 POP SWAP2 SWAP1 POP JUMP JUMPDEST PUSH0 DUP2 SWAP1 POP SWAP3 SWAP2 POP POP JUMP JUMPDEST PUSH0 DUP2 SWAP1 POP DUP2 PUSH0 MSTORE PUSH1 0x20 PUSH0 KECCAK256 SWAP1 POP SWAP2 SWAP1 POP JUMP JUMPDEST PUSH2 0x815 DUP2 PUSH2 0x638 JUMP JUMPDEST DUP3 MSTORE POP POP JUMP JUMPDEST PUSH0 PUSH2 0x826 DUP4 DUP4 PUSH2 0x80C JUMP JUMPDEST PUSH1 0x20 DUP4 ADD SWAP1 POP SWAP3 SWAP2 POP POP JUMP JUMPDEST PUSH0 DUP2 PUSH0 SHR SWAP1 POP SWAP2 SWAP1 POP JUMP JUMPDEST PUSH0 PUSH20 0xFFFFFFFFFFFFFFFFFFFFFFFFFFFFFFFFFFFFFFFF DUP3 AND SWAP1 POP SWAP2 SWAP1 POP JUMP JUMPDEST PUSH0 PUSH2 0x86E PUSH2 0x869 DUP4 PUSH2 0x832 JUMP JUMPDEST PUSH2 0x83D JUMP JUMPDEST SWAP1 POP SWAP2 SWAP1 POP JUMP JUMPDEST PUSH0 PUSH2 0x880 DUP3 SLOAD PUSH2 0x85C JUMP JUMPDEST SWAP1 POP SWAP2 SWAP1 POP JUMP JUMPDEST PUSH0 PUSH1 0x1 DUP3 ADD SWAP1 POP SWAP2 SWAP1 POP JUMP JUMPDEST PUSH0 PUSH2 0x89D DUP3 PUSH2 0x7E6 JUMP JUMPDEST PUSH2 0x8A7 DUP2 DUP6 PUSH2 0x7F0 JUMP JUMPDEST SWAP4 POP PUSH2 0x8B2 DUP4 PUSH2 0x7FA JUMP JUMPDEST DUP1 PUSH0 JUMPDEST DUP4 DUP2 LT ISZERO PUSH2 0x8E9 JUMPI PUSH2 0x8C6 DUP3 PUSH2 0x875 JUMP JUMPDEST PUSH2 0x8D0 DUP9 DUP3 PUSH2 0x81B JUMP JUMPDEST SWAP8 POP PUSH2 0x8DB DUP4 PUSH2 0x887 JUMP JUMPDEST SWAP3 POP POP PUSH1 0x1 DUP2 ADD SWAP1 POP PUSH2 0x8B5 JUMP JUMPDEST POP DUP6 SWAP4 POP POP POP POP SWAP3 SWAP2 POP POP JUMP JUMPDEST PUSH0 PUSH2 0x901 DUP3 DUP7 PUSH2 0x7CF JUMP JUMPDEST PUSH1 0x20 DUP3 ADD SWAP2 POP PUSH2 0x911 DUP3 DUP6 PUSH2 0x7CF JUMP JUMPDEST PUSH1 0x20 DUP3 ADD SWAP2 POP PUSH2 0x921 DUP3 DUP5 PUSH2 0x893 JUMP JUMPDEST SWAP2 POP DUP2 SWAP1 POP SWAP5 SWAP4 POP POP POP POP JUMP JUMPDEST PUSH32 0x4D7573742073656E642065786163746C79203120657468657220746F20656E74 PUSH0 DUP3 ADD MSTORE PUSH32 0x6572000000000000000000000000000000000000000000000000000000000000 PUSH1 0x20 DUP3 ADD MSTORE POP JUMP JUMPDEST PUSH0 PUSH2 0x988 PUSH1 0x22 DUP4 PUSH2 0x671 JUMP JUMPDEST SWAP2 POP PUSH2 0x993 DUP3 PUSH2 0x92E JUMP JUMPDEST PUSH1 0x40 DUP3 ADD SWAP1 POP SWAP2 SWAP1 POP JUMP JUMPDEST PUSH0 PUSH1 0x20 DUP3 ADD SWAP1 POP DUP2 DUP2 SUB PUSH0 DUP4 ADD MSTORE PUSH2 0x9B5 DUP2 PUSH2 0x97C JUMP JUMPDEST SWAP1 POP SWAP2 SWAP1 POP JUMP INVALID LOG2 PUSH5 0x6970667358 0x22 SLT KECCAK256 0xC5 0xCF 0xE8 ADDMOD COINBASE 0x4C 0xD5 SWAP15 PUSH24 0xAA61D356E15EC584F49B07C20C2718B4574A7838234A8664 PUSH20 0x6F6C634300081600330000000000000000000000 "
				},
				"gasEstimates": {
					"creation": {
						"codeDepositCost": "509200",
						"executionCost": "24806",
						"totalCost": "534006"
					},
					"external": {
						"enter()": "48782",
						"owner()": "2527",
						"pickWinner()": "infinite",
						"players(uint256)": "5032",
						"random()": "infinite",
						"winner()": "2552"
					}
				},
				"methodIdentifiers": {
					"enter()": "e97dcb62",
					"owner()": "8da5cb5b",
					"pickWinner()": "5d495aea",
					"players(uint256)": "f71d96cb",
					"random()": "5ec01e4d",
					"winner()": "dfbf53ae"
				}
			},
			"storageLayout": {
				"storage": [
					{
						"astId": 3,
						"contract": "Dapps/lottry.sol:Lottery",
						"label": "owner",
						"offset": 0,
						"slot": "0",
						"type": "t_address"
					},
					{
						"astId": 6,
						"contract": "Dapps/lottry.sol:Lottery",
						"label": "players",
						"offset": 0,
						"slot": "1",
						"type": "t_array(t_address_payable)dyn_storage"
					},
					{
						"astId": 8,
						"contract": "Dapps/lottry.sol:Lottery",
						"label": "winner",
						"offset": 0,
						"slot": "2",
						"type": "t_address"
					}
				],
				"types": {
					"t_address": {
						"encoding": "inplace",
						"label": "address",
						"numberOfBytes": "20"
					},
					"t_address_payable": {
						"encoding": "inplace",
						"label": "address payable",
						"numberOfBytes": "20"
					},
					"t_array(t_address_payable)dyn_storage": {
						"base": "t_address_payable",
						"encoding": "dynamic_array",
						"label": "address payable[]",
						"numberOfBytes": "32"
					}
				}
			},
			"userdoc": {
				"kind": "user",
				"methods": {},
				"version": 1
			}
		}
	}
}