{
	"Dapps/1_Healthcare_Records.sol": {
		"HealthcareRecords": {
			"abi": [
				{
					"inputs": [],
					"stateMutability": "nonpayable",
					"type": "constructor"
				},
				{
					"anonymous": false,
					"inputs": [
						{
							"indexed": true,
							"internalType": "address",
							"name": "patient",
							"type": "address"
						},
						{
							"indexed": false,
							"internalType": "string",
							"name": "diagnosis",
							"type": "string"
						},
						{
							"indexed": false,
							"internalType": "string",
							"name": "treatment",
							"type": "string"
						},
						{
							"indexed": false,
							"internalType": "address",
							"name": "healthcareProvider",
							"type": "address"
						}
					],
					"name": "MedicalRecordAdded",
					"type": "event"
				},
				{
					"inputs": [
						{
							"internalType": "address",
							"name": "_patient",
							"type": "address"
						},
						{
							"internalType": "string",
							"name": "_patientName",
							"type": "string"
						},
						{
							"internalType": "uint256",
							"name": "_birthDate",
							"type": "uint256"
						},
						{
							"internalType": "string",
							"name": "_diagnosis",
							"type": "string"
						},
						{
							"internalType": "string",
							"name": "_treatment",
							"type": "string"
						}
					],
					"name": "addMedicalRecord",
					"outputs": [],
					"stateMutability": "nonpayable",
					"type": "function"
				},
				{
					"inputs": [
						{
							"internalType": "address",
							"name": "_provider",
							"type": "address"
						}
					],
					"name": "approveHealthcareProvider",
					"outputs": [],
					"stateMutability": "nonpayable",
					"type": "function"
				},
				{
					"inputs": [
						{
							"internalType": "address",
							"name": "",
							"type": "address"
						}
					],
					"name": "approvedProviders",
					"outputs": [
						{
							"internalType": "bool",
							"name": "",
							"type": "bool"
						}
					],
					"stateMutability": "view",
					"type": "function"
				},
				{
					"inputs": [
						{
							"internalType": "address",
							"name": "_provider",
							"type": "address"
						}
					],
					"name": "isApprovedProvider",
					"outputs": [
						{
							"internalType": "bool",
							"name": "",
							"type": "bool"
						}
					],
					"stateMutability": "view",
					"type": "function"
				},
				{
					"inputs": [
						{
							"internalType": "address",
							"name": "",
							"type": "address"
						}
					],
					"name": "medicalRecords",
					"outputs": [
						{
							"internalType": "string",
							"name": "patientName",
							"type": "string"
						},
						{
							"internalType": "uint256",
							"name": "birthDate",
							"type": "uint256"
						},
						{
							"internalType": "string",
							"name": "diagnosis",
							"type": "string"
						},
						{
							"internalType": "string",
							"name": "treatment",
							"type": "string"
						},
						{
							"internalType": "address",
							"name": "healthcareProvider",
							"type": "address"
						},
						{
							"internalType": "bool",
							"name": "isApproved",
							"type": "bool"
						}
					],
					"stateMutability": "view",
					"type": "function"
				},
				{
					"inputs": [],
					"name": "owner",
					"outputs": [
						{
							"internalType": "address",
							"name": "",
							"type": "address"
						}
					],
					"stateMutability": "view",
					"type": "function"
				}
			],
			"devdoc": {
				"kind": "dev",
				"methods": {},
				"version": 1
			},
			"evm": {
				"assembly": "    /* \"Dapps/1_Healthcare_Records.sol\":57:2645  contract HealthcareRecords {... */\n  mstore(0x40, 0x80)\n    /* \"Dapps/1_Healthcare_Records.sol\":2594:2643  constructor() {... */\n  callvalue\n  dup1\n  iszero\n  tag_1\n  jumpi\n  0x00\n  dup1\n  revert\ntag_1:\n  pop\n    /* \"Dapps/1_Healthcare_Records.sol\":2626:2636  msg.sender */\n  caller\n    /* \"Dapps/1_Healthcare_Records.sol\":2618:2623  owner */\n  0x02\n  0x00\n    /* \"Dapps/1_Healthcare_Records.sol\":2618:2636  owner = msg.sender */\n  0x0100\n  exp\n  dup2\n  sload\n  dup2\n  0xffffffffffffffffffffffffffffffffffffffff\n  mul\n  not\n  and\n  swap1\n  dup4\n  0xffffffffffffffffffffffffffffffffffffffff\n  and\n  mul\n  or\n  swap1\n  sstore\n  pop\n    /* \"Dapps/1_Healthcare_Records.sol\":57:2645  contract HealthcareRecords {... */\n  dataSize(sub_0)\n  dup1\n  dataOffset(sub_0)\n  0x00\n  codecopy\n  0x00\n  return\nstop\n\nsub_0: assembly {\n        /* \"Dapps/1_Healthcare_Records.sol\":57:2645  contract HealthcareRecords {... */\n      mstore(0x40, 0x80)\n      callvalue\n      dup1\n      iszero\n      tag_1\n      jumpi\n      0x00\n      dup1\n      revert\n    tag_1:\n      pop\n      jumpi(tag_2, lt(calldatasize, 0x04))\n      shr(0xe0, calldataload(0x00))\n      dup1\n      0x106d6170\n      eq\n      tag_3\n      jumpi\n      dup1\n      0x3e1cc60e\n      eq\n      tag_4\n      jumpi\n      dup1\n      0x56bd0cfc\n      eq\n      tag_5\n      jumpi\n      dup1\n      0x8139ef9a\n      eq\n      tag_6\n      jumpi\n      dup1\n      0x8da5cb5b\n      eq\n      tag_7\n      jumpi\n      dup1\n      0xa3bb58ff\n      eq\n      tag_8\n      jumpi\n    tag_2:\n      0x00\n      dup1\n      revert\n        /* \"Dapps/1_Healthcare_Records.sol\":418:473  mapping(address => MedicalRecord) public medicalRecords */\n    tag_3:\n      tag_9\n      0x04\n      dup1\n      calldatasize\n      sub\n      dup2\n      add\n      swap1\n      tag_10\n      swap2\n      swap1\n      tag_11\n      jump\t// in\n    tag_10:\n      tag_12\n      jump\t// in\n    tag_9:\n      mload(0x40)\n      tag_13\n      swap7\n      swap6\n      swap5\n      swap4\n      swap3\n      swap2\n      swap1\n      tag_14\n      jump\t// in\n    tag_13:\n      mload(0x40)\n      dup1\n      swap2\n      sub\n      swap1\n      return\n        /* \"Dapps/1_Healthcare_Records.sol\":2385:2511  function isApprovedProvider(address _provider) public view returns (bool) {... */\n    tag_4:\n      tag_15\n      0x04\n      dup1\n      calldatasize\n      sub\n      dup2\n      add\n      swap1\n      tag_16\n      swap2\n      swap1\n      tag_11\n      jump\t// in\n    tag_16:\n      tag_17\n      jump\t// in\n    tag_15:\n      mload(0x40)\n      tag_18\n      swap2\n      swap1\n      tag_19\n      jump\t// in\n    tag_18:\n      mload(0x40)\n      dup1\n      swap2\n      sub\n      swap1\n      return\n        /* \"Dapps/1_Healthcare_Records.sol\":1070:2028  function addMedicalRecord(... */\n    tag_5:\n      tag_20\n      0x04\n      dup1\n      calldatasize\n      sub\n      dup2\n      add\n      swap1\n      tag_21\n      swap2\n      swap1\n      tag_22\n      jump\t// in\n    tag_21:\n      tag_23\n      jump\t// in\n    tag_20:\n      stop\n        /* \"Dapps/1_Healthcare_Records.sol\":952:1001  mapping(address => bool) public approvedProviders */\n    tag_6:\n      tag_24\n      0x04\n      dup1\n      calldatasize\n      sub\n      dup2\n      add\n      swap1\n      tag_25\n      swap2\n      swap1\n      tag_11\n      jump\t// in\n    tag_25:\n      tag_26\n      jump\t// in\n    tag_24:\n      mload(0x40)\n      tag_27\n      swap2\n      swap1\n      tag_19\n      jump\t// in\n    tag_27:\n      mload(0x40)\n      dup1\n      swap2\n      sub\n      swap1\n      return\n        /* \"Dapps/1_Healthcare_Records.sol\":2539:2559  address public owner */\n    tag_7:\n      tag_28\n      tag_29\n      jump\t// in\n    tag_28:\n      mload(0x40)\n      tag_30\n      swap2\n      swap1\n      tag_31\n      jump\t// in\n    tag_30:\n      mload(0x40)\n      dup1\n      swap2\n      sub\n      swap1\n      return\n        /* \"Dapps/1_Healthcare_Records.sol\":2093:2305  function approveHealthcareProvider(address _provider) public {... */\n    tag_8:\n      tag_32\n      0x04\n      dup1\n      calldatasize\n      sub\n      dup2\n      add\n      swap1\n      tag_33\n      swap2\n      swap1\n      tag_11\n      jump\t// in\n    tag_33:\n      tag_34\n      jump\t// in\n    tag_32:\n      stop\n        /* \"Dapps/1_Healthcare_Records.sol\":418:473  mapping(address => MedicalRecord) public medicalRecords */\n    tag_12:\n      mstore(0x20, 0x00)\n      dup1\n      0x00\n      mstore\n      keccak256(0x00, 0x40)\n      0x00\n      swap2\n      pop\n      swap1\n      pop\n      dup1\n      0x00\n      add\n      dup1\n      sload\n      tag_35\n      swap1\n      tag_36\n      jump\t// in\n    tag_35:\n      dup1\n      0x1f\n      add\n      0x20\n      dup1\n      swap2\n      div\n      mul\n      0x20\n      add\n      mload(0x40)\n      swap1\n      dup2\n      add\n      0x40\n      mstore\n      dup1\n      swap3\n      swap2\n      swap1\n      dup2\n      dup2\n      mstore\n      0x20\n      add\n      dup3\n      dup1\n      sload\n      tag_37\n      swap1\n      tag_36\n      jump\t// in\n    tag_37:\n      dup1\n      iszero\n      tag_38\n      jumpi\n      dup1\n      0x1f\n      lt\n      tag_39\n      jumpi\n      0x0100\n      dup1\n      dup4\n      sload\n      div\n      mul\n      dup4\n      mstore\n      swap2\n      0x20\n      add\n      swap2\n      jump(tag_38)\n    tag_39:\n      dup3\n      add\n      swap2\n      swap1\n      0x00\n      mstore\n      keccak256(0x00, 0x20)\n      swap1\n    tag_40:\n      dup2\n      sload\n      dup2\n      mstore\n      swap1\n      0x01\n      add\n      swap1\n      0x20\n      add\n      dup1\n      dup4\n      gt\n      tag_40\n      jumpi\n      dup3\n      swap1\n      sub\n      0x1f\n      and\n      dup3\n      add\n      swap2\n    tag_38:\n      pop\n      pop\n      pop\n      pop\n      pop\n      swap1\n      dup1\n      0x01\n      add\n      sload\n      swap1\n      dup1\n      0x02\n      add\n      dup1\n      sload\n      tag_41\n      swap1\n      tag_36\n      jump\t// in\n    tag_41:\n      dup1\n      0x1f\n      add\n      0x20\n      dup1\n      swap2\n      div\n      mul\n      0x20\n      add\n      mload(0x40)\n      swap1\n      dup2\n      add\n      0x40\n      mstore\n      dup1\n      swap3\n      swap2\n      swap1\n      dup2\n      dup2\n      mstore\n      0x20\n      add\n      dup3\n      dup1\n      sload\n      tag_42\n      swap1\n      tag_36\n      jump\t// in\n    tag_42:\n      dup1\n      iszero\n      tag_43\n      jumpi\n      dup1\n      0x1f\n      lt\n      tag_44\n      jumpi\n      0x0100\n      dup1\n      dup4\n      sload\n      div\n      mul\n      dup4\n      mstore\n      swap2\n      0x20\n      add\n      swap2\n      jump(tag_43)\n    tag_44:\n      dup3\n      add\n      swap2\n      swap1\n      0x00\n      mstore\n      keccak256(0x00, 0x20)\n      swap1\n    tag_45:\n      dup2\n      sload\n      dup2\n      mstore\n      swap1\n      0x01\n      add\n      swap1\n      0x20\n      add\n      dup1\n      dup4\n      gt\n      tag_45\n      jumpi\n      dup3\n      swap1\n      sub\n      0x1f\n      and\n      dup3\n      add\n      swap2\n    tag_43:\n      pop\n      pop\n      pop\n      pop\n      pop\n      swap1\n      dup1\n      0x03\n      add\n      dup1\n      sload\n      tag_46\n      swap1\n      tag_36\n      jump\t// in\n    tag_46:\n      dup1\n      0x1f\n      add\n      0x20\n      dup1\n      swap2\n      div\n      mul\n      0x20\n      add\n      mload(0x40)\n      swap1\n      dup2\n      add\n      0x40\n      mstore\n      dup1\n      swap3\n      swap2\n      swap1\n      dup2\n      dup2\n      mstore\n      0x20\n      add\n      dup3\n      dup1\n      sload\n      tag_47\n      swap1\n      tag_36\n      jump\t// in\n    tag_47:\n      dup1\n      iszero\n      tag_48\n      jumpi\n      dup1\n      0x1f\n      lt\n      tag_49\n      jumpi\n      0x0100\n      dup1\n      dup4\n      sload\n      div\n      mul\n      dup4\n      mstore\n      swap2\n      0x20\n      add\n      swap2\n      jump(tag_48)\n    tag_49:\n      dup3\n      add\n      swap2\n      swap1\n      0x00\n      mstore\n      keccak256(0x00, 0x20)\n      swap1\n    tag_50:\n      dup2\n      sload\n      dup2\n      mstore\n      swap1\n      0x01\n      add\n      swap1\n      0x20\n      add\n      dup1\n      dup4\n      gt\n      tag_50\n      jumpi\n      dup3\n      swap1\n      sub\n      0x1f\n      and\n      dup3\n      add\n      swap2\n    tag_48:\n      pop\n      pop\n      pop\n      pop\n      pop\n      swap1\n      dup1\n      0x04\n      add\n      0x00\n      swap1\n      sload\n      swap1\n      0x0100\n      exp\n      swap1\n      div\n      0xffffffffffffffffffffffffffffffffffffffff\n      and\n      swap1\n      dup1\n      0x04\n      add\n      0x14\n      swap1\n      sload\n      swap1\n      0x0100\n      exp\n      swap1\n      div\n      0xff\n      and\n      swap1\n      pop\n      dup7\n      jump\t// out\n        /* \"Dapps/1_Healthcare_Records.sol\":2385:2511  function isApprovedProvider(address _provider) public view returns (bool) {... */\n    tag_17:\n        /* \"Dapps/1_Healthcare_Records.sol\":2453:2457  bool */\n      0x00\n        /* \"Dapps/1_Healthcare_Records.sol\":2476:2493  approvedProviders */\n      0x01\n        /* \"Dapps/1_Healthcare_Records.sol\":2476:2504  approvedProviders[_provider] */\n      0x00\n        /* \"Dapps/1_Healthcare_Records.sol\":2494:2503  _provider */\n      dup4\n        /* \"Dapps/1_Healthcare_Records.sol\":2476:2504  approvedProviders[_provider] */\n      0xffffffffffffffffffffffffffffffffffffffff\n      and\n      0xffffffffffffffffffffffffffffffffffffffff\n      and\n      dup2\n      mstore\n      0x20\n      add\n      swap1\n      dup2\n      mstore\n      0x20\n      add\n      0x00\n      keccak256\n      0x00\n      swap1\n      sload\n      swap1\n      0x0100\n      exp\n      swap1\n      div\n      0xff\n      and\n        /* \"Dapps/1_Healthcare_Records.sol\":2469:2504  return approvedProviders[_provider] */\n      swap1\n      pop\n        /* \"Dapps/1_Healthcare_Records.sol\":2385:2511  function isApprovedProvider(address _provider) public view returns (bool) {... */\n      swap2\n      swap1\n      pop\n      jump\t// out\n        /* \"Dapps/1_Healthcare_Records.sol\":1070:2028  function addMedicalRecord(... */\n    tag_23:\n        /* \"Dapps/1_Healthcare_Records.sol\":779:809  isApprovedProvider(msg.sender) */\n      tag_53\n        /* \"Dapps/1_Healthcare_Records.sol\":798:808  msg.sender */\n      caller\n        /* \"Dapps/1_Healthcare_Records.sol\":779:797  isApprovedProvider */\n      tag_17\n        /* \"Dapps/1_Healthcare_Records.sol\":779:809  isApprovedProvider(msg.sender) */\n      jump\t// in\n    tag_53:\n        /* \"Dapps/1_Healthcare_Records.sol\":771:874  require(isApprovedProvider(msg.sender), \"Only approved healthcare providers can access this function.\") */\n      tag_54\n      jumpi\n      mload(0x40)\n      0x08c379a000000000000000000000000000000000000000000000000000000000\n      dup2\n      mstore\n      0x04\n      add\n      tag_55\n      swap1\n      tag_56\n      jump\t// in\n    tag_55:\n      mload(0x40)\n      dup1\n      swap2\n      sub\n      swap1\n      revert\n    tag_54:\n        /* \"Dapps/1_Healthcare_Records.sol\":1431:1432  0 */\n      0x00\n        /* \"Dapps/1_Healthcare_Records.sol\":1376:1433  medicalRecords[_patient].healthcareProvider == address(0) */\n      0xffffffffffffffffffffffffffffffffffffffff\n      and\n        /* \"Dapps/1_Healthcare_Records.sol\":1376:1390  medicalRecords */\n      0x00\n        /* \"Dapps/1_Healthcare_Records.sol\":1376:1400  medicalRecords[_patient] */\n      dup1\n        /* \"Dapps/1_Healthcare_Records.sol\":1391:1399  _patient */\n      dup8\n        /* \"Dapps/1_Healthcare_Records.sol\":1376:1400  medicalRecords[_patient] */\n      0xffffffffffffffffffffffffffffffffffffffff\n      and\n      0xffffffffffffffffffffffffffffffffffffffff\n      and\n      dup2\n      mstore\n      0x20\n      add\n      swap1\n      dup2\n      mstore\n      0x20\n      add\n      0x00\n      keccak256\n        /* \"Dapps/1_Healthcare_Records.sol\":1376:1419  medicalRecords[_patient].healthcareProvider */\n      0x04\n      add\n      0x00\n      swap1\n      sload\n      swap1\n      0x0100\n      exp\n      swap1\n      div\n      0xffffffffffffffffffffffffffffffffffffffff\n      and\n        /* \"Dapps/1_Healthcare_Records.sol\":1376:1433  medicalRecords[_patient].healthcareProvider == address(0) */\n      0xffffffffffffffffffffffffffffffffffffffff\n      and\n      eq\n        /* \"Dapps/1_Healthcare_Records.sol\":1368:1485  require(medicalRecords[_patient].healthcareProvider == address(0), \"Medical record for this patient already exists.\") */\n      tag_58\n      jumpi\n      mload(0x40)\n      0x08c379a000000000000000000000000000000000000000000000000000000000\n      dup2\n      mstore\n      0x04\n      add\n      tag_59\n      swap1\n      tag_60\n      jump\t// in\n    tag_59:\n      mload(0x40)\n      dup1\n      swap2\n      sub\n      swap1\n      revert\n    tag_58:\n        /* \"Dapps/1_Healthcare_Records.sol\":1541:1571  MedicalRecord memory newRecord */\n      0x00\n        /* \"Dapps/1_Healthcare_Records.sol\":1574:1817  MedicalRecord({... */\n      mload(0x40)\n      dup1\n      0xc0\n      add\n      0x40\n      mstore\n      dup1\n        /* \"Dapps/1_Healthcare_Records.sol\":1615:1627  _patientName */\n      dup7\n        /* \"Dapps/1_Healthcare_Records.sol\":1574:1817  MedicalRecord({... */\n      dup2\n      mstore\n      0x20\n      add\n        /* \"Dapps/1_Healthcare_Records.sol\":1652:1662  _birthDate */\n      dup6\n        /* \"Dapps/1_Healthcare_Records.sol\":1574:1817  MedicalRecord({... */\n      dup2\n      mstore\n      0x20\n      add\n        /* \"Dapps/1_Healthcare_Records.sol\":1687:1697  _diagnosis */\n      dup5\n        /* \"Dapps/1_Healthcare_Records.sol\":1574:1817  MedicalRecord({... */\n      dup2\n      mstore\n      0x20\n      add\n        /* \"Dapps/1_Healthcare_Records.sol\":1722:1732  _treatment */\n      dup4\n        /* \"Dapps/1_Healthcare_Records.sol\":1574:1817  MedicalRecord({... */\n      dup2\n      mstore\n      0x20\n      add\n        /* \"Dapps/1_Healthcare_Records.sol\":1766:1776  msg.sender */\n      caller\n        /* \"Dapps/1_Healthcare_Records.sol\":1574:1817  MedicalRecord({... */\n      0xffffffffffffffffffffffffffffffffffffffff\n      and\n      dup2\n      mstore\n      0x20\n      add\n        /* \"Dapps/1_Healthcare_Records.sol\":1802:1806  true */\n      0x01\n        /* \"Dapps/1_Healthcare_Records.sol\":1574:1817  MedicalRecord({... */\n      iszero\n      iszero\n      dup2\n      mstore\n      pop\n        /* \"Dapps/1_Healthcare_Records.sol\":1541:1817  MedicalRecord memory newRecord = MedicalRecord({... */\n      swap1\n      pop\n        /* \"Dapps/1_Healthcare_Records.sol\":1906:1915  newRecord */\n      dup1\n        /* \"Dapps/1_Healthcare_Records.sol\":1879:1893  medicalRecords */\n      0x00\n        /* \"Dapps/1_Healthcare_Records.sol\":1879:1903  medicalRecords[_patient] */\n      dup1\n        /* \"Dapps/1_Healthcare_Records.sol\":1894:1902  _patient */\n      dup9\n        /* \"Dapps/1_Healthcare_Records.sol\":1879:1903  medicalRecords[_patient] */\n      0xffffffffffffffffffffffffffffffffffffffff\n      and\n      0xffffffffffffffffffffffffffffffffffffffff\n      and\n      dup2\n      mstore\n      0x20\n      add\n      swap1\n      dup2\n      mstore\n      0x20\n      add\n      0x00\n      keccak256\n        /* \"Dapps/1_Healthcare_Records.sol\":1879:1915  medicalRecords[_patient] = newRecord */\n      0x00\n      dup3\n      add\n      mload\n      dup2\n      0x00\n      add\n      swap1\n      dup2\n      tag_61\n      swap2\n      swap1\n      tag_62\n      jump\t// in\n    tag_61:\n      pop\n      0x20\n      dup3\n      add\n      mload\n      dup2\n      0x01\n      add\n      sstore\n      0x40\n      dup3\n      add\n      mload\n      dup2\n      0x02\n      add\n      swap1\n      dup2\n      tag_63\n      swap2\n      swap1\n      tag_62\n      jump\t// in\n    tag_63:\n      pop\n      0x60\n      dup3\n      add\n      mload\n      dup2\n      0x03\n      add\n      swap1\n      dup2\n      tag_64\n      swap2\n      swap1\n      tag_62\n      jump\t// in\n    tag_64:\n      pop\n      0x80\n      dup3\n      add\n      mload\n      dup2\n      0x04\n      add\n      exp(0x0100, 0x00)\n      dup2\n      sload\n      dup2\n      0xffffffffffffffffffffffffffffffffffffffff\n      mul\n      not\n      and\n      swap1\n      dup4\n      0xffffffffffffffffffffffffffffffffffffffff\n      and\n      mul\n      or\n      swap1\n      sstore\n      pop\n      0xa0\n      dup3\n      add\n      mload\n      dup2\n      0x04\n      add\n      exp(0x0100, 0x14)\n      dup2\n      sload\n      dup2\n      0xff\n      mul\n      not\n      and\n      swap1\n      dup4\n      iszero\n      iszero\n      mul\n      or\n      swap1\n      sstore\n      pop\n      swap1\n      pop\n      pop\n        /* \"Dapps/1_Healthcare_Records.sol\":1976:1984  _patient */\n      dup6\n        /* \"Dapps/1_Healthcare_Records.sol\":1957:2021  MedicalRecordAdded(_patient, _diagnosis, _treatment, msg.sender) */\n      0xffffffffffffffffffffffffffffffffffffffff\n      and\n      0x57e8cf977feaf93280711d1669e03eaff15d821be7c925435862e08dfda4ba6d\n        /* \"Dapps/1_Healthcare_Records.sol\":1986:1996  _diagnosis */\n      dup5\n        /* \"Dapps/1_Healthcare_Records.sol\":1998:2008  _treatment */\n      dup5\n        /* \"Dapps/1_Healthcare_Records.sol\":2010:2020  msg.sender */\n      caller\n        /* \"Dapps/1_Healthcare_Records.sol\":1957:2021  MedicalRecordAdded(_patient, _diagnosis, _treatment, msg.sender) */\n      mload(0x40)\n      tag_65\n      swap4\n      swap3\n      swap2\n      swap1\n      tag_66\n      jump\t// in\n    tag_65:\n      mload(0x40)\n      dup1\n      swap2\n      sub\n      swap1\n      log2\n        /* \"Dapps/1_Healthcare_Records.sol\":1288:2028  {... */\n      pop\n        /* \"Dapps/1_Healthcare_Records.sol\":1070:2028  function addMedicalRecord(... */\n      pop\n      pop\n      pop\n      pop\n      pop\n      jump\t// out\n        /* \"Dapps/1_Healthcare_Records.sol\":952:1001  mapping(address => bool) public approvedProviders */\n    tag_26:\n      mstore(0x20, 0x01)\n      dup1\n      0x00\n      mstore\n      keccak256(0x00, 0x40)\n      0x00\n      swap2\n      pop\n      sload\n      swap1\n      0x0100\n      exp\n      swap1\n      div\n      0xff\n      and\n      dup2\n      jump\t// out\n        /* \"Dapps/1_Healthcare_Records.sol\":2539:2559  address public owner */\n    tag_29:\n      0x02\n      0x00\n      swap1\n      sload\n      swap1\n      0x0100\n      exp\n      swap1\n      div\n      0xffffffffffffffffffffffffffffffffffffffff\n      and\n      dup2\n      jump\t// out\n        /* \"Dapps/1_Healthcare_Records.sol\":2093:2305  function approveHealthcareProvider(address _provider) public {... */\n    tag_34:\n        /* \"Dapps/1_Healthcare_Records.sol\":2186:2191  owner */\n      0x02\n      0x00\n      swap1\n      sload\n      swap1\n      0x0100\n      exp\n      swap1\n      div\n      0xffffffffffffffffffffffffffffffffffffffff\n      and\n        /* \"Dapps/1_Healthcare_Records.sol\":2172:2191  msg.sender == owner */\n      0xffffffffffffffffffffffffffffffffffffffff\n      and\n        /* \"Dapps/1_Healthcare_Records.sol\":2172:2182  msg.sender */\n      caller\n        /* \"Dapps/1_Healthcare_Records.sol\":2172:2191  msg.sender == owner */\n      0xffffffffffffffffffffffffffffffffffffffff\n      and\n      eq\n        /* \"Dapps/1_Healthcare_Records.sol\":2164:2253  require(msg.sender == owner, \"Only the contract owner can approve healthcare providers.\") */\n      tag_68\n      jumpi\n      mload(0x40)\n      0x08c379a000000000000000000000000000000000000000000000000000000000\n      dup2\n      mstore\n      0x04\n      add\n      tag_69\n      swap1\n      tag_70\n      jump\t// in\n    tag_69:\n      mload(0x40)\n      dup1\n      swap2\n      sub\n      swap1\n      revert\n    tag_68:\n        /* \"Dapps/1_Healthcare_Records.sol\":2294:2298  true */\n      0x01\n        /* \"Dapps/1_Healthcare_Records.sol\":2263:2280  approvedProviders */\n      dup1\n        /* \"Dapps/1_Healthcare_Records.sol\":2263:2291  approvedProviders[_provider] */\n      0x00\n        /* \"Dapps/1_Healthcare_Records.sol\":2281:2290  _provider */\n      dup4\n        /* \"Dapps/1_Healthcare_Records.sol\":2263:2291  approvedProviders[_provider] */\n      0xffffffffffffffffffffffffffffffffffffffff\n      and\n      0xffffffffffffffffffffffffffffffffffffffff\n      and\n      dup2\n      mstore\n      0x20\n      add\n      swap1\n      dup2\n      mstore\n      0x20\n      add\n      0x00\n      keccak256\n      0x00\n        /* \"Dapps/1_Healthcare_Records.sol\":2263:2298  approvedProviders[_provider] = true */\n      0x0100\n      exp\n      dup2\n      sload\n      dup2\n      0xff\n      mul\n      not\n      and\n      swap1\n      dup4\n      iszero\n      iszero\n      mul\n      or\n      swap1\n      sstore\n      pop\n        /* \"Dapps/1_Healthcare_Records.sol\":2093:2305  function approveHealthcareProvider(address _provider) public {... */\n      pop\n      jump\t// out\n        /* \"#utility.yul\":7:82   */\n    tag_71:\n        /* \"#utility.yul\":40:46   */\n      0x00\n        /* \"#utility.yul\":73:75   */\n      0x40\n        /* \"#utility.yul\":67:76   */\n      mload\n        /* \"#utility.yul\":57:76   */\n      swap1\n      pop\n        /* \"#utility.yul\":7:82   */\n      swap1\n      jump\t// out\n        /* \"#utility.yul\":88:205   */\n    tag_72:\n        /* \"#utility.yul\":197:198   */\n      0x00\n        /* \"#utility.yul\":194:195   */\n      dup1\n        /* \"#utility.yul\":187:199   */\n      revert\n        /* \"#utility.yul\":211:328   */\n    tag_73:\n        /* \"#utility.yul\":320:321   */\n      0x00\n        /* \"#utility.yul\":317:318   */\n      dup1\n        /* \"#utility.yul\":310:322   */\n      revert\n        /* \"#utility.yul\":334:460   */\n    tag_74:\n        /* \"#utility.yul\":371:378   */\n      0x00\n        /* \"#utility.yul\":411:453   */\n      0xffffffffffffffffffffffffffffffffffffffff\n        /* \"#utility.yul\":404:409   */\n      dup3\n        /* \"#utility.yul\":400:454   */\n      and\n        /* \"#utility.yul\":389:454   */\n      swap1\n      pop\n        /* \"#utility.yul\":334:460   */\n      swap2\n      swap1\n      pop\n      jump\t// out\n        /* \"#utility.yul\":466:562   */\n    tag_75:\n        /* \"#utility.yul\":503:510   */\n      0x00\n        /* \"#utility.yul\":532:556   */\n      tag_127\n        /* \"#utility.yul\":550:555   */\n      dup3\n        /* \"#utility.yul\":532:556   */\n      tag_74\n      jump\t// in\n    tag_127:\n        /* \"#utility.yul\":521:556   */\n      swap1\n      pop\n        /* \"#utility.yul\":466:562   */\n      swap2\n      swap1\n      pop\n      jump\t// out\n        /* \"#utility.yul\":568:690   */\n    tag_76:\n        /* \"#utility.yul\":641:665   */\n      tag_129\n        /* \"#utility.yul\":659:664   */\n      dup2\n        /* \"#utility.yul\":641:665   */\n      tag_75\n      jump\t// in\n    tag_129:\n        /* \"#utility.yul\":634:639   */\n      dup2\n        /* \"#utility.yul\":631:666   */\n      eq\n        /* \"#utility.yul\":621:684   */\n      tag_130\n      jumpi\n        /* \"#utility.yul\":680:681   */\n      0x00\n        /* \"#utility.yul\":677:678   */\n      dup1\n        /* \"#utility.yul\":670:682   */\n      revert\n        /* \"#utility.yul\":621:684   */\n    tag_130:\n        /* \"#utility.yul\":568:690   */\n      pop\n      jump\t// out\n        /* \"#utility.yul\":696:835   */\n    tag_77:\n        /* \"#utility.yul\":742:747   */\n      0x00\n        /* \"#utility.yul\":780:786   */\n      dup2\n        /* \"#utility.yul\":767:787   */\n      calldataload\n        /* \"#utility.yul\":758:787   */\n      swap1\n      pop\n        /* \"#utility.yul\":796:829   */\n      tag_132\n        /* \"#utility.yul\":823:828   */\n      dup2\n        /* \"#utility.yul\":796:829   */\n      tag_76\n      jump\t// in\n    tag_132:\n        /* \"#utility.yul\":696:835   */\n      swap3\n      swap2\n      pop\n      pop\n      jump\t// out\n        /* \"#utility.yul\":841:1170   */\n    tag_11:\n        /* \"#utility.yul\":900:906   */\n      0x00\n        /* \"#utility.yul\":949:951   */\n      0x20\n        /* \"#utility.yul\":937:946   */\n      dup3\n        /* \"#utility.yul\":928:935   */\n      dup5\n        /* \"#utility.yul\":924:947   */\n      sub\n        /* \"#utility.yul\":920:952   */\n      slt\n        /* \"#utility.yul\":917:1036   */\n      iszero\n      tag_134\n      jumpi\n        /* \"#utility.yul\":955:1034   */\n      tag_135\n      tag_72\n      jump\t// in\n    tag_135:\n        /* \"#utility.yul\":917:1036   */\n    tag_134:\n        /* \"#utility.yul\":1075:1076   */\n      0x00\n        /* \"#utility.yul\":1100:1153   */\n      tag_136\n        /* \"#utility.yul\":1145:1152   */\n      dup5\n        /* \"#utility.yul\":1136:1142   */\n      dup3\n        /* \"#utility.yul\":1125:1134   */\n      dup6\n        /* \"#utility.yul\":1121:1143   */\n      add\n        /* \"#utility.yul\":1100:1153   */\n      tag_77\n      jump\t// in\n    tag_136:\n        /* \"#utility.yul\":1090:1153   */\n      swap2\n      pop\n        /* \"#utility.yul\":1046:1163   */\n      pop\n        /* \"#utility.yul\":841:1170   */\n      swap3\n      swap2\n      pop\n      pop\n      jump\t// out\n        /* \"#utility.yul\":1176:1275   */\n    tag_78:\n        /* \"#utility.yul\":1228:1234   */\n      0x00\n        /* \"#utility.yul\":1262:1267   */\n      dup2\n        /* \"#utility.yul\":1256:1268   */\n      mload\n        /* \"#utility.yul\":1246:1268   */\n      swap1\n      pop\n        /* \"#utility.yul\":1176:1275   */\n      swap2\n      swap1\n      pop\n      jump\t// out\n        /* \"#utility.yul\":1281:1450   */\n    tag_79:\n        /* \"#utility.yul\":1365:1376   */\n      0x00\n        /* \"#utility.yul\":1399:1405   */\n      dup3\n        /* \"#utility.yul\":1394:1397   */\n      dup3\n        /* \"#utility.yul\":1387:1406   */\n      mstore\n        /* \"#utility.yul\":1439:1443   */\n      0x20\n        /* \"#utility.yul\":1434:1437   */\n      dup3\n        /* \"#utility.yul\":1430:1444   */\n      add\n        /* \"#utility.yul\":1415:1444   */\n      swap1\n      pop\n        /* \"#utility.yul\":1281:1450   */\n      swap3\n      swap2\n      pop\n      pop\n      jump\t// out\n        /* \"#utility.yul\":1456:1702   */\n    tag_80:\n        /* \"#utility.yul\":1537:1538   */\n      0x00\n        /* \"#utility.yul\":1547:1660   */\n    tag_140:\n        /* \"#utility.yul\":1561:1567   */\n      dup4\n        /* \"#utility.yul\":1558:1559   */\n      dup2\n        /* \"#utility.yul\":1555:1568   */\n      lt\n        /* \"#utility.yul\":1547:1660   */\n      iszero\n      tag_142\n      jumpi\n        /* \"#utility.yul\":1646:1647   */\n      dup1\n        /* \"#utility.yul\":1641:1644   */\n      dup3\n        /* \"#utility.yul\":1637:1648   */\n      add\n        /* \"#utility.yul\":1631:1649   */\n      mload\n        /* \"#utility.yul\":1627:1628   */\n      dup2\n        /* \"#utility.yul\":1622:1625   */\n      dup5\n        /* \"#utility.yul\":1618:1629   */\n      add\n        /* \"#utility.yul\":1611:1650   */\n      mstore\n        /* \"#utility.yul\":1583:1585   */\n      0x20\n        /* \"#utility.yul\":1580:1581   */\n      dup2\n        /* \"#utility.yul\":1576:1586   */\n      add\n        /* \"#utility.yul\":1571:1586   */\n      swap1\n      pop\n        /* \"#utility.yul\":1547:1660   */\n      jump(tag_140)\n    tag_142:\n        /* \"#utility.yul\":1694:1695   */\n      0x00\n        /* \"#utility.yul\":1685:1691   */\n      dup5\n        /* \"#utility.yul\":1680:1683   */\n      dup5\n        /* \"#utility.yul\":1676:1692   */\n      add\n        /* \"#utility.yul\":1669:1696   */\n      mstore\n        /* \"#utility.yul\":1518:1702   */\n      pop\n        /* \"#utility.yul\":1456:1702   */\n      pop\n      pop\n      pop\n      jump\t// out\n        /* \"#utility.yul\":1708:1810   */\n    tag_81:\n        /* \"#utility.yul\":1749:1755   */\n      0x00\n        /* \"#utility.yul\":1800:1802   */\n      0x1f\n        /* \"#utility.yul\":1796:1803   */\n      not\n        /* \"#utility.yul\":1791:1793   */\n      0x1f\n        /* \"#utility.yul\":1784:1789   */\n      dup4\n        /* \"#utility.yul\":1780:1794   */\n      add\n        /* \"#utility.yul\":1776:1804   */\n      and\n        /* \"#utility.yul\":1766:1804   */\n      swap1\n      pop\n        /* \"#utility.yul\":1708:1810   */\n      swap2\n      swap1\n      pop\n      jump\t// out\n        /* \"#utility.yul\":1816:2193   */\n    tag_82:\n        /* \"#utility.yul\":1904:1907   */\n      0x00\n        /* \"#utility.yul\":1932:1971   */\n      tag_145\n        /* \"#utility.yul\":1965:1970   */\n      dup3\n        /* \"#utility.yul\":1932:1971   */\n      tag_78\n      jump\t// in\n    tag_145:\n        /* \"#utility.yul\":1987:2058   */\n      tag_146\n        /* \"#utility.yul\":2051:2057   */\n      dup2\n        /* \"#utility.yul\":2046:2049   */\n      dup6\n        /* \"#utility.yul\":1987:2058   */\n      tag_79\n      jump\t// in\n    tag_146:\n        /* \"#utility.yul\":1980:2058   */\n      swap4\n      pop\n        /* \"#utility.yul\":2067:2132   */\n      tag_147\n        /* \"#utility.yul\":2125:2131   */\n      dup2\n        /* \"#utility.yul\":2120:2123   */\n      dup6\n        /* \"#utility.yul\":2113:2117   */\n      0x20\n        /* \"#utility.yul\":2106:2111   */\n      dup7\n        /* \"#utility.yul\":2102:2118   */\n      add\n        /* \"#utility.yul\":2067:2132   */\n      tag_80\n      jump\t// in\n    tag_147:\n        /* \"#utility.yul\":2157:2186   */\n      tag_148\n        /* \"#utility.yul\":2179:2185   */\n      dup2\n        /* \"#utility.yul\":2157:2186   */\n      tag_81\n      jump\t// in\n    tag_148:\n        /* \"#utility.yul\":2152:2155   */\n      dup5\n        /* \"#utility.yul\":2148:2187   */\n      add\n        /* \"#utility.yul\":2141:2187   */\n      swap2\n      pop\n        /* \"#utility.yul\":1908:2193   */\n      pop\n        /* \"#utility.yul\":1816:2193   */\n      swap3\n      swap2\n      pop\n      pop\n      jump\t// out\n        /* \"#utility.yul\":2199:2276   */\n    tag_83:\n        /* \"#utility.yul\":2236:2243   */\n      0x00\n        /* \"#utility.yul\":2265:2270   */\n      dup2\n        /* \"#utility.yul\":2254:2270   */\n      swap1\n      pop\n        /* \"#utility.yul\":2199:2276   */\n      swap2\n      swap1\n      pop\n      jump\t// out\n        /* \"#utility.yul\":2282:2400   */\n    tag_84:\n        /* \"#utility.yul\":2369:2393   */\n      tag_151\n        /* \"#utility.yul\":2387:2392   */\n      dup2\n        /* \"#utility.yul\":2369:2393   */\n      tag_83\n      jump\t// in\n    tag_151:\n        /* \"#utility.yul\":2364:2367   */\n      dup3\n        /* \"#utility.yul\":2357:2394   */\n      mstore\n        /* \"#utility.yul\":2282:2400   */\n      pop\n      pop\n      jump\t// out\n        /* \"#utility.yul\":2406:2524   */\n    tag_85:\n        /* \"#utility.yul\":2493:2517   */\n      tag_153\n        /* \"#utility.yul\":2511:2516   */\n      dup2\n        /* \"#utility.yul\":2493:2517   */\n      tag_75\n      jump\t// in\n    tag_153:\n        /* \"#utility.yul\":2488:2491   */\n      dup3\n        /* \"#utility.yul\":2481:2518   */\n      mstore\n        /* \"#utility.yul\":2406:2524   */\n      pop\n      pop\n      jump\t// out\n        /* \"#utility.yul\":2530:2620   */\n    tag_86:\n        /* \"#utility.yul\":2564:2571   */\n      0x00\n        /* \"#utility.yul\":2607:2612   */\n      dup2\n        /* \"#utility.yul\":2600:2613   */\n      iszero\n        /* \"#utility.yul\":2593:2614   */\n      iszero\n        /* \"#utility.yul\":2582:2614   */\n      swap1\n      pop\n        /* \"#utility.yul\":2530:2620   */\n      swap2\n      swap1\n      pop\n      jump\t// out\n        /* \"#utility.yul\":2626:2735   */\n    tag_87:\n        /* \"#utility.yul\":2707:2728   */\n      tag_156\n        /* \"#utility.yul\":2722:2727   */\n      dup2\n        /* \"#utility.yul\":2707:2728   */\n      tag_86\n      jump\t// in\n    tag_156:\n        /* \"#utility.yul\":2702:2705   */\n      dup3\n        /* \"#utility.yul\":2695:2729   */\n      mstore\n        /* \"#utility.yul\":2626:2735   */\n      pop\n      pop\n      jump\t// out\n        /* \"#utility.yul\":2741:3777   */\n    tag_14:\n        /* \"#utility.yul\":3028:3032   */\n      0x00\n        /* \"#utility.yul\":3066:3069   */\n      0xc0\n        /* \"#utility.yul\":3055:3064   */\n      dup3\n        /* \"#utility.yul\":3051:3070   */\n      add\n        /* \"#utility.yul\":3043:3070   */\n      swap1\n      pop\n        /* \"#utility.yul\":3116:3125   */\n      dup2\n        /* \"#utility.yul\":3110:3114   */\n      dup2\n        /* \"#utility.yul\":3106:3126   */\n      sub\n        /* \"#utility.yul\":3102:3103   */\n      0x00\n        /* \"#utility.yul\":3091:3100   */\n      dup4\n        /* \"#utility.yul\":3087:3104   */\n      add\n        /* \"#utility.yul\":3080:3127   */\n      mstore\n        /* \"#utility.yul\":3144:3222   */\n      tag_158\n        /* \"#utility.yul\":3217:3221   */\n      dup2\n        /* \"#utility.yul\":3208:3214   */\n      dup10\n        /* \"#utility.yul\":3144:3222   */\n      tag_82\n      jump\t// in\n    tag_158:\n        /* \"#utility.yul\":3136:3222   */\n      swap1\n      pop\n        /* \"#utility.yul\":3232:3304   */\n      tag_159\n        /* \"#utility.yul\":3300:3302   */\n      0x20\n        /* \"#utility.yul\":3289:3298   */\n      dup4\n        /* \"#utility.yul\":3285:3303   */\n      add\n        /* \"#utility.yul\":3276:3282   */\n      dup9\n        /* \"#utility.yul\":3232:3304   */\n      tag_84\n      jump\t// in\n    tag_159:\n        /* \"#utility.yul\":3351:3360   */\n      dup2\n        /* \"#utility.yul\":3345:3349   */\n      dup2\n        /* \"#utility.yul\":3341:3361   */\n      sub\n        /* \"#utility.yul\":3336:3338   */\n      0x40\n        /* \"#utility.yul\":3325:3334   */\n      dup4\n        /* \"#utility.yul\":3321:3339   */\n      add\n        /* \"#utility.yul\":3314:3362   */\n      mstore\n        /* \"#utility.yul\":3379:3457   */\n      tag_160\n        /* \"#utility.yul\":3452:3456   */\n      dup2\n        /* \"#utility.yul\":3443:3449   */\n      dup8\n        /* \"#utility.yul\":3379:3457   */\n      tag_82\n      jump\t// in\n    tag_160:\n        /* \"#utility.yul\":3371:3457   */\n      swap1\n      pop\n        /* \"#utility.yul\":3504:3513   */\n      dup2\n        /* \"#utility.yul\":3498:3502   */\n      dup2\n        /* \"#utility.yul\":3494:3514   */\n      sub\n        /* \"#utility.yul\":3489:3491   */\n      0x60\n        /* \"#utility.yul\":3478:3487   */\n      dup4\n        /* \"#utility.yul\":3474:3492   */\n      add\n        /* \"#utility.yul\":3467:3515   */\n      mstore\n        /* \"#utility.yul\":3532:3610   */\n      tag_161\n        /* \"#utility.yul\":3605:3609   */\n      dup2\n        /* \"#utility.yul\":3596:3602   */\n      dup7\n        /* \"#utility.yul\":3532:3610   */\n      tag_82\n      jump\t// in\n    tag_161:\n        /* \"#utility.yul\":3524:3610   */\n      swap1\n      pop\n        /* \"#utility.yul\":3620:3693   */\n      tag_162\n        /* \"#utility.yul\":3688:3691   */\n      0x80\n        /* \"#utility.yul\":3677:3686   */\n      dup4\n        /* \"#utility.yul\":3673:3692   */\n      add\n        /* \"#utility.yul\":3664:3670   */\n      dup6\n        /* \"#utility.yul\":3620:3693   */\n      tag_85\n      jump\t// in\n    tag_162:\n        /* \"#utility.yul\":3703:3770   */\n      tag_163\n        /* \"#utility.yul\":3765:3768   */\n      0xa0\n        /* \"#utility.yul\":3754:3763   */\n      dup4\n        /* \"#utility.yul\":3750:3769   */\n      add\n        /* \"#utility.yul\":3741:3747   */\n      dup5\n        /* \"#utility.yul\":3703:3770   */\n      tag_87\n      jump\t// in\n    tag_163:\n        /* \"#utility.yul\":2741:3777   */\n      swap8\n      swap7\n      pop\n      pop\n      pop\n      pop\n      pop\n      pop\n      pop\n      jump\t// out\n        /* \"#utility.yul\":3783:3993   */\n    tag_19:\n        /* \"#utility.yul\":3870:3874   */\n      0x00\n        /* \"#utility.yul\":3908:3910   */\n      0x20\n        /* \"#utility.yul\":3897:3906   */\n      dup3\n        /* \"#utility.yul\":3893:3911   */\n      add\n        /* \"#utility.yul\":3885:3911   */\n      swap1\n      pop\n        /* \"#utility.yul\":3921:3986   */\n      tag_165\n        /* \"#utility.yul\":3983:3984   */\n      0x00\n        /* \"#utility.yul\":3972:3981   */\n      dup4\n        /* \"#utility.yul\":3968:3985   */\n      add\n        /* \"#utility.yul\":3959:3965   */\n      dup5\n        /* \"#utility.yul\":3921:3986   */\n      tag_87\n      jump\t// in\n    tag_165:\n        /* \"#utility.yul\":3783:3993   */\n      swap3\n      swap2\n      pop\n      pop\n      jump\t// out\n        /* \"#utility.yul\":3999:4116   */\n    tag_88:\n        /* \"#utility.yul\":4108:4109   */\n      0x00\n        /* \"#utility.yul\":4105:4106   */\n      dup1\n        /* \"#utility.yul\":4098:4110   */\n      revert\n        /* \"#utility.yul\":4122:4239   */\n    tag_89:\n        /* \"#utility.yul\":4231:4232   */\n      0x00\n        /* \"#utility.yul\":4228:4229   */\n      dup1\n        /* \"#utility.yul\":4221:4233   */\n      revert\n        /* \"#utility.yul\":4245:4425   */\n    tag_90:\n        /* \"#utility.yul\":4293:4370   */\n      0x4e487b7100000000000000000000000000000000000000000000000000000000\n        /* \"#utility.yul\":4290:4291   */\n      0x00\n        /* \"#utility.yul\":4283:4371   */\n      mstore\n        /* \"#utility.yul\":4390:4394   */\n      0x41\n        /* \"#utility.yul\":4387:4388   */\n      0x04\n        /* \"#utility.yul\":4380:4395   */\n      mstore\n        /* \"#utility.yul\":4414:4418   */\n      0x24\n        /* \"#utility.yul\":4411:4412   */\n      0x00\n        /* \"#utility.yul\":4404:4419   */\n      revert\n        /* \"#utility.yul\":4431:4712   */\n    tag_91:\n        /* \"#utility.yul\":4514:4541   */\n      tag_170\n        /* \"#utility.yul\":4536:4540   */\n      dup3\n        /* \"#utility.yul\":4514:4541   */\n      tag_81\n      jump\t// in\n    tag_170:\n        /* \"#utility.yul\":4506:4512   */\n      dup2\n        /* \"#utility.yul\":4502:4542   */\n      add\n        /* \"#utility.yul\":4644:4650   */\n      dup2\n        /* \"#utility.yul\":4632:4642   */\n      dup2\n        /* \"#utility.yul\":4629:4651   */\n      lt\n        /* \"#utility.yul\":4608:4626   */\n      0xffffffffffffffff\n        /* \"#utility.yul\":4596:4606   */\n      dup3\n        /* \"#utility.yul\":4593:4627   */\n      gt\n        /* \"#utility.yul\":4590:4652   */\n      or\n        /* \"#utility.yul\":4587:4675   */\n      iszero\n      tag_171\n      jumpi\n        /* \"#utility.yul\":4655:4673   */\n      tag_172\n      tag_90\n      jump\t// in\n    tag_172:\n        /* \"#utility.yul\":4587:4675   */\n    tag_171:\n        /* \"#utility.yul\":4695:4705   */\n      dup1\n        /* \"#utility.yul\":4691:4693   */\n      0x40\n        /* \"#utility.yul\":4684:4706   */\n      mstore\n        /* \"#utility.yul\":4474:4712   */\n      pop\n        /* \"#utility.yul\":4431:4712   */\n      pop\n      pop\n      jump\t// out\n        /* \"#utility.yul\":4718:4847   */\n    tag_92:\n        /* \"#utility.yul\":4752:4758   */\n      0x00\n        /* \"#utility.yul\":4779:4799   */\n      tag_174\n      tag_71\n      jump\t// in\n    tag_174:\n        /* \"#utility.yul\":4769:4799   */\n      swap1\n      pop\n        /* \"#utility.yul\":4808:4841   */\n      tag_175\n        /* \"#utility.yul\":4836:4840   */\n      dup3\n        /* \"#utility.yul\":4828:4834   */\n      dup3\n        /* \"#utility.yul\":4808:4841   */\n      tag_91\n      jump\t// in\n    tag_175:\n        /* \"#utility.yul\":4718:4847   */\n      swap2\n      swap1\n      pop\n      jump\t// out\n        /* \"#utility.yul\":4853:5161   */\n    tag_93:\n        /* \"#utility.yul\":4915:4919   */\n      0x00\n        /* \"#utility.yul\":5005:5023   */\n      0xffffffffffffffff\n        /* \"#utility.yul\":4997:5003   */\n      dup3\n        /* \"#utility.yul\":4994:5024   */\n      gt\n        /* \"#utility.yul\":4991:5047   */\n      iszero\n      tag_177\n      jumpi\n        /* \"#utility.yul\":5027:5045   */\n      tag_178\n      tag_90\n      jump\t// in\n    tag_178:\n        /* \"#utility.yul\":4991:5047   */\n    tag_177:\n        /* \"#utility.yul\":5065:5094   */\n      tag_179\n        /* \"#utility.yul\":5087:5093   */\n      dup3\n        /* \"#utility.yul\":5065:5094   */\n      tag_81\n      jump\t// in\n    tag_179:\n        /* \"#utility.yul\":5057:5094   */\n      swap1\n      pop\n        /* \"#utility.yul\":5149:5153   */\n      0x20\n        /* \"#utility.yul\":5143:5147   */\n      dup2\n        /* \"#utility.yul\":5139:5154   */\n      add\n        /* \"#utility.yul\":5131:5154   */\n      swap1\n      pop\n        /* \"#utility.yul\":4853:5161   */\n      swap2\n      swap1\n      pop\n      jump\t// out\n        /* \"#utility.yul\":5167:5313   */\n    tag_94:\n        /* \"#utility.yul\":5264:5270   */\n      dup3\n        /* \"#utility.yul\":5259:5262   */\n      dup2\n        /* \"#utility.yul\":5254:5257   */\n      dup4\n        /* \"#utility.yul\":5241:5271   */\n      calldatacopy\n        /* \"#utility.yul\":5305:5306   */\n      0x00\n        /* \"#utility.yul\":5296:5302   */\n      dup4\n        /* \"#utility.yul\":5291:5294   */\n      dup4\n        /* \"#utility.yul\":5287:5303   */\n      add\n        /* \"#utility.yul\":5280:5307   */\n      mstore\n        /* \"#utility.yul\":5167:5313   */\n      pop\n      pop\n      pop\n      jump\t// out\n        /* \"#utility.yul\":5319:5744   */\n    tag_95:\n        /* \"#utility.yul\":5397:5402   */\n      0x00\n        /* \"#utility.yul\":5422:5488   */\n      tag_182\n        /* \"#utility.yul\":5438:5487   */\n      tag_183\n        /* \"#utility.yul\":5480:5486   */\n      dup5\n        /* \"#utility.yul\":5438:5487   */\n      tag_93\n      jump\t// in\n    tag_183:\n        /* \"#utility.yul\":5422:5488   */\n      tag_92\n      jump\t// in\n    tag_182:\n        /* \"#utility.yul\":5413:5488   */\n      swap1\n      pop\n        /* \"#utility.yul\":5511:5517   */\n      dup3\n        /* \"#utility.yul\":5504:5509   */\n      dup2\n        /* \"#utility.yul\":5497:5518   */\n      mstore\n        /* \"#utility.yul\":5549:5553   */\n      0x20\n        /* \"#utility.yul\":5542:5547   */\n      dup2\n        /* \"#utility.yul\":5538:5554   */\n      add\n        /* \"#utility.yul\":5587:5590   */\n      dup5\n        /* \"#utility.yul\":5578:5584   */\n      dup5\n        /* \"#utility.yul\":5573:5576   */\n      dup5\n        /* \"#utility.yul\":5569:5585   */\n      add\n        /* \"#utility.yul\":5566:5591   */\n      gt\n        /* \"#utility.yul\":5563:5675   */\n      iszero\n      tag_184\n      jumpi\n        /* \"#utility.yul\":5594:5673   */\n      tag_185\n      tag_89\n      jump\t// in\n    tag_185:\n        /* \"#utility.yul\":5563:5675   */\n    tag_184:\n        /* \"#utility.yul\":5684:5738   */\n      tag_186\n        /* \"#utility.yul\":5731:5737   */\n      dup5\n        /* \"#utility.yul\":5726:5729   */\n      dup3\n        /* \"#utility.yul\":5721:5724   */\n      dup6\n        /* \"#utility.yul\":5684:5738   */\n      tag_94\n      jump\t// in\n    tag_186:\n        /* \"#utility.yul\":5403:5744   */\n      pop\n        /* \"#utility.yul\":5319:5744   */\n      swap4\n      swap3\n      pop\n      pop\n      pop\n      jump\t// out\n        /* \"#utility.yul\":5764:6104   */\n    tag_96:\n        /* \"#utility.yul\":5820:5825   */\n      0x00\n        /* \"#utility.yul\":5869:5872   */\n      dup3\n        /* \"#utility.yul\":5862:5866   */\n      0x1f\n        /* \"#utility.yul\":5854:5860   */\n      dup4\n        /* \"#utility.yul\":5850:5867   */\n      add\n        /* \"#utility.yul\":5846:5873   */\n      slt\n        /* \"#utility.yul\":5836:5958   */\n      tag_188\n      jumpi\n        /* \"#utility.yul\":5877:5956   */\n      tag_189\n      tag_88\n      jump\t// in\n    tag_189:\n        /* \"#utility.yul\":5836:5958   */\n    tag_188:\n        /* \"#utility.yul\":5994:6000   */\n      dup2\n        /* \"#utility.yul\":5981:6001   */\n      calldataload\n        /* \"#utility.yul\":6019:6098   */\n      tag_190\n        /* \"#utility.yul\":6094:6097   */\n      dup5\n        /* \"#utility.yul\":6086:6092   */\n      dup3\n        /* \"#utility.yul\":6079:6083   */\n      0x20\n        /* \"#utility.yul\":6071:6077   */\n      dup7\n        /* \"#utility.yul\":6067:6084   */\n      add\n        /* \"#utility.yul\":6019:6098   */\n      tag_95\n      jump\t// in\n    tag_190:\n        /* \"#utility.yul\":6010:6098   */\n      swap2\n      pop\n        /* \"#utility.yul\":5826:6104   */\n      pop\n        /* \"#utility.yul\":5764:6104   */\n      swap3\n      swap2\n      pop\n      pop\n      jump\t// out\n        /* \"#utility.yul\":6110:6232   */\n    tag_97:\n        /* \"#utility.yul\":6183:6207   */\n      tag_192\n        /* \"#utility.yul\":6201:6206   */\n      dup2\n        /* \"#utility.yul\":6183:6207   */\n      tag_83\n      jump\t// in\n    tag_192:\n        /* \"#utility.yul\":6176:6181   */\n      dup2\n        /* \"#utility.yul\":6173:6208   */\n      eq\n        /* \"#utility.yul\":6163:6226   */\n      tag_193\n      jumpi\n        /* \"#utility.yul\":6222:6223   */\n      0x00\n        /* \"#utility.yul\":6219:6220   */\n      dup1\n        /* \"#utility.yul\":6212:6224   */\n      revert\n        /* \"#utility.yul\":6163:6226   */\n    tag_193:\n        /* \"#utility.yul\":6110:6232   */\n      pop\n      jump\t// out\n        /* \"#utility.yul\":6238:6377   */\n    tag_98:\n        /* \"#utility.yul\":6284:6289   */\n      0x00\n        /* \"#utility.yul\":6322:6328   */\n      dup2\n        /* \"#utility.yul\":6309:6329   */\n      calldataload\n        /* \"#utility.yul\":6300:6329   */\n      swap1\n      pop\n        /* \"#utility.yul\":6338:6371   */\n      tag_195\n        /* \"#utility.yul\":6365:6370   */\n      dup2\n        /* \"#utility.yul\":6338:6371   */\n      tag_97\n      jump\t// in\n    tag_195:\n        /* \"#utility.yul\":6238:6377   */\n      swap3\n      swap2\n      pop\n      pop\n      jump\t// out\n        /* \"#utility.yul\":6383:7834   */\n    tag_22:\n        /* \"#utility.yul\":6508:6514   */\n      0x00\n        /* \"#utility.yul\":6516:6522   */\n      dup1\n        /* \"#utility.yul\":6524:6530   */\n      0x00\n        /* \"#utility.yul\":6532:6538   */\n      dup1\n        /* \"#utility.yul\":6540:6546   */\n      0x00\n        /* \"#utility.yul\":6589:6592   */\n      0xa0\n        /* \"#utility.yul\":6577:6586   */\n      dup7\n        /* \"#utility.yul\":6568:6575   */\n      dup9\n        /* \"#utility.yul\":6564:6587   */\n      sub\n        /* \"#utility.yul\":6560:6593   */\n      slt\n        /* \"#utility.yul\":6557:6677   */\n      iszero\n      tag_197\n      jumpi\n        /* \"#utility.yul\":6596:6675   */\n      tag_198\n      tag_72\n      jump\t// in\n    tag_198:\n        /* \"#utility.yul\":6557:6677   */\n    tag_197:\n        /* \"#utility.yul\":6716:6717   */\n      0x00\n        /* \"#utility.yul\":6741:6794   */\n      tag_199\n        /* \"#utility.yul\":6786:6793   */\n      dup9\n        /* \"#utility.yul\":6777:6783   */\n      dup3\n        /* \"#utility.yul\":6766:6775   */\n      dup10\n        /* \"#utility.yul\":6762:6784   */\n      add\n        /* \"#utility.yul\":6741:6794   */\n      tag_77\n      jump\t// in\n    tag_199:\n        /* \"#utility.yul\":6731:6794   */\n      swap6\n      pop\n        /* \"#utility.yul\":6687:6804   */\n      pop\n        /* \"#utility.yul\":6871:6873   */\n      0x20\n        /* \"#utility.yul\":6860:6869   */\n      dup7\n        /* \"#utility.yul\":6856:6874   */\n      add\n        /* \"#utility.yul\":6843:6875   */\n      calldataload\n        /* \"#utility.yul\":6902:6920   */\n      0xffffffffffffffff\n        /* \"#utility.yul\":6894:6900   */\n      dup2\n        /* \"#utility.yul\":6891:6921   */\n      gt\n        /* \"#utility.yul\":6888:7005   */\n      iszero\n      tag_200\n      jumpi\n        /* \"#utility.yul\":6924:7003   */\n      tag_201\n      tag_73\n      jump\t// in\n    tag_201:\n        /* \"#utility.yul\":6888:7005   */\n    tag_200:\n        /* \"#utility.yul\":7029:7092   */\n      tag_202\n        /* \"#utility.yul\":7084:7091   */\n      dup9\n        /* \"#utility.yul\":7075:7081   */\n      dup3\n        /* \"#utility.yul\":7064:7073   */\n      dup10\n        /* \"#utility.yul\":7060:7082   */\n      add\n        /* \"#utility.yul\":7029:7092   */\n      tag_96\n      jump\t// in\n    tag_202:\n        /* \"#utility.yul\":7019:7092   */\n      swap5\n      pop\n        /* \"#utility.yul\":6814:7102   */\n      pop\n        /* \"#utility.yul\":7141:7143   */\n      0x40\n        /* \"#utility.yul\":7167:7220   */\n      tag_203\n        /* \"#utility.yul\":7212:7219   */\n      dup9\n        /* \"#utility.yul\":7203:7209   */\n      dup3\n        /* \"#utility.yul\":7192:7201   */\n      dup10\n        /* \"#utility.yul\":7188:7210   */\n      add\n        /* \"#utility.yul\":7167:7220   */\n      tag_98\n      jump\t// in\n    tag_203:\n        /* \"#utility.yul\":7157:7220   */\n      swap4\n      pop\n        /* \"#utility.yul\":7112:7230   */\n      pop\n        /* \"#utility.yul\":7297:7299   */\n      0x60\n        /* \"#utility.yul\":7286:7295   */\n      dup7\n        /* \"#utility.yul\":7282:7300   */\n      add\n        /* \"#utility.yul\":7269:7301   */\n      calldataload\n        /* \"#utility.yul\":7328:7346   */\n      0xffffffffffffffff\n        /* \"#utility.yul\":7320:7326   */\n      dup2\n        /* \"#utility.yul\":7317:7347   */\n      gt\n        /* \"#utility.yul\":7314:7431   */\n      iszero\n      tag_204\n      jumpi\n        /* \"#utility.yul\":7350:7429   */\n      tag_205\n      tag_73\n      jump\t// in\n    tag_205:\n        /* \"#utility.yul\":7314:7431   */\n    tag_204:\n        /* \"#utility.yul\":7455:7518   */\n      tag_206\n        /* \"#utility.yul\":7510:7517   */\n      dup9\n        /* \"#utility.yul\":7501:7507   */\n      dup3\n        /* \"#utility.yul\":7490:7499   */\n      dup10\n        /* \"#utility.yul\":7486:7508   */\n      add\n        /* \"#utility.yul\":7455:7518   */\n      tag_96\n      jump\t// in\n    tag_206:\n        /* \"#utility.yul\":7445:7518   */\n      swap3\n      pop\n        /* \"#utility.yul\":7240:7528   */\n      pop\n        /* \"#utility.yul\":7595:7598   */\n      0x80\n        /* \"#utility.yul\":7584:7593   */\n      dup7\n        /* \"#utility.yul\":7580:7599   */\n      add\n        /* \"#utility.yul\":7567:7600   */\n      calldataload\n        /* \"#utility.yul\":7627:7645   */\n      0xffffffffffffffff\n        /* \"#utility.yul\":7619:7625   */\n      dup2\n        /* \"#utility.yul\":7616:7646   */\n      gt\n        /* \"#utility.yul\":7613:7730   */\n      iszero\n      tag_207\n      jumpi\n        /* \"#utility.yul\":7649:7728   */\n      tag_208\n      tag_73\n      jump\t// in\n    tag_208:\n        /* \"#utility.yul\":7613:7730   */\n    tag_207:\n        /* \"#utility.yul\":7754:7817   */\n      tag_209\n        /* \"#utility.yul\":7809:7816   */\n      dup9\n        /* \"#utility.yul\":7800:7806   */\n      dup3\n        /* \"#utility.yul\":7789:7798   */\n      dup10\n        /* \"#utility.yul\":7785:7807   */\n      add\n        /* \"#utility.yul\":7754:7817   */\n      tag_96\n      jump\t// in\n    tag_209:\n        /* \"#utility.yul\":7744:7817   */\n      swap2\n      pop\n        /* \"#utility.yul\":7538:7827   */\n      pop\n        /* \"#utility.yul\":6383:7834   */\n      swap3\n      swap6\n      pop\n      swap3\n      swap6\n      swap1\n      swap4\n      pop\n      jump\t// out\n        /* \"#utility.yul\":7840:8062   */\n    tag_31:\n        /* \"#utility.yul\":7933:7937   */\n      0x00\n        /* \"#utility.yul\":7971:7973   */\n      0x20\n        /* \"#utility.yul\":7960:7969   */\n      dup3\n        /* \"#utility.yul\":7956:7974   */\n      add\n        /* \"#utility.yul\":7948:7974   */\n      swap1\n      pop\n        /* \"#utility.yul\":7984:8055   */\n      tag_211\n        /* \"#utility.yul\":8052:8053   */\n      0x00\n        /* \"#utility.yul\":8041:8050   */\n      dup4\n        /* \"#utility.yul\":8037:8054   */\n      add\n        /* \"#utility.yul\":8028:8034   */\n      dup5\n        /* \"#utility.yul\":7984:8055   */\n      tag_85\n      jump\t// in\n    tag_211:\n        /* \"#utility.yul\":7840:8062   */\n      swap3\n      swap2\n      pop\n      pop\n      jump\t// out\n        /* \"#utility.yul\":8068:8248   */\n    tag_99:\n        /* \"#utility.yul\":8116:8193   */\n      0x4e487b7100000000000000000000000000000000000000000000000000000000\n        /* \"#utility.yul\":8113:8114   */\n      0x00\n        /* \"#utility.yul\":8106:8194   */\n      mstore\n        /* \"#utility.yul\":8213:8217   */\n      0x22\n        /* \"#utility.yul\":8210:8211   */\n      0x04\n        /* \"#utility.yul\":8203:8218   */\n      mstore\n        /* \"#utility.yul\":8237:8241   */\n      0x24\n        /* \"#utility.yul\":8234:8235   */\n      0x00\n        /* \"#utility.yul\":8227:8242   */\n      revert\n        /* \"#utility.yul\":8254:8574   */\n    tag_36:\n        /* \"#utility.yul\":8298:8304   */\n      0x00\n        /* \"#utility.yul\":8335:8336   */\n      0x02\n        /* \"#utility.yul\":8329:8333   */\n      dup3\n        /* \"#utility.yul\":8325:8337   */\n      div\n        /* \"#utility.yul\":8315:8337   */\n      swap1\n      pop\n        /* \"#utility.yul\":8382:8383   */\n      0x01\n        /* \"#utility.yul\":8376:8380   */\n      dup3\n        /* \"#utility.yul\":8372:8384   */\n      and\n        /* \"#utility.yul\":8403:8421   */\n      dup1\n        /* \"#utility.yul\":8393:8474   */\n      tag_214\n      jumpi\n        /* \"#utility.yul\":8459:8463   */\n      0x7f\n        /* \"#utility.yul\":8451:8457   */\n      dup3\n        /* \"#utility.yul\":8447:8464   */\n      and\n        /* \"#utility.yul\":8437:8464   */\n      swap2\n      pop\n        /* \"#utility.yul\":8393:8474   */\n    tag_214:\n        /* \"#utility.yul\":8521:8523   */\n      0x20\n        /* \"#utility.yul\":8513:8519   */\n      dup3\n        /* \"#utility.yul\":8510:8524   */\n      lt\n        /* \"#utility.yul\":8490:8508   */\n      dup2\n        /* \"#utility.yul\":8487:8525   */\n      sub\n        /* \"#utility.yul\":8484:8568   */\n      tag_215\n      jumpi\n        /* \"#utility.yul\":8540:8558   */\n      tag_216\n      tag_99\n      jump\t// in\n    tag_216:\n        /* \"#utility.yul\":8484:8568   */\n    tag_215:\n        /* \"#utility.yul\":8305:8574   */\n      pop\n        /* \"#utility.yul\":8254:8574   */\n      swap2\n      swap1\n      pop\n      jump\t// out\n        /* \"#utility.yul\":8580:8827   */\n    tag_100:\n        /* \"#utility.yul\":8720:8754   */\n      0x4f6e6c7920617070726f766564206865616c7468636172652070726f76696465\n        /* \"#utility.yul\":8716:8717   */\n      0x00\n        /* \"#utility.yul\":8708:8714   */\n      dup3\n        /* \"#utility.yul\":8704:8718   */\n      add\n        /* \"#utility.yul\":8697:8755   */\n      mstore\n        /* \"#utility.yul\":8789:8819   */\n      0x72732063616e2061636365737320746869732066756e6374696f6e2e00000000\n        /* \"#utility.yul\":8784:8786   */\n      0x20\n        /* \"#utility.yul\":8776:8782   */\n      dup3\n        /* \"#utility.yul\":8772:8787   */\n      add\n        /* \"#utility.yul\":8765:8820   */\n      mstore\n        /* \"#utility.yul\":8580:8827   */\n      pop\n      jump\t// out\n        /* \"#utility.yul\":8833:9199   */\n    tag_101:\n        /* \"#utility.yul\":8975:8978   */\n      0x00\n        /* \"#utility.yul\":8996:9063   */\n      tag_219\n        /* \"#utility.yul\":9060:9062   */\n      0x3c\n        /* \"#utility.yul\":9055:9058   */\n      dup4\n        /* \"#utility.yul\":8996:9063   */\n      tag_79\n      jump\t// in\n    tag_219:\n        /* \"#utility.yul\":8989:9063   */\n      swap2\n      pop\n        /* \"#utility.yul\":9072:9165   */\n      tag_220\n        /* \"#utility.yul\":9161:9164   */\n      dup3\n        /* \"#utility.yul\":9072:9165   */\n      tag_100\n      jump\t// in\n    tag_220:\n        /* \"#utility.yul\":9190:9192   */\n      0x40\n        /* \"#utility.yul\":9185:9188   */\n      dup3\n        /* \"#utility.yul\":9181:9193   */\n      add\n        /* \"#utility.yul\":9174:9193   */\n      swap1\n      pop\n        /* \"#utility.yul\":8833:9199   */\n      swap2\n      swap1\n      pop\n      jump\t// out\n        /* \"#utility.yul\":9205:9624   */\n    tag_56:\n        /* \"#utility.yul\":9371:9375   */\n      0x00\n        /* \"#utility.yul\":9409:9411   */\n      0x20\n        /* \"#utility.yul\":9398:9407   */\n      dup3\n        /* \"#utility.yul\":9394:9412   */\n      add\n        /* \"#utility.yul\":9386:9412   */\n      swap1\n      pop\n        /* \"#utility.yul\":9458:9467   */\n      dup2\n        /* \"#utility.yul\":9452:9456   */\n      dup2\n        /* \"#utility.yul\":9448:9468   */\n      sub\n        /* \"#utility.yul\":9444:9445   */\n      0x00\n        /* \"#utility.yul\":9433:9442   */\n      dup4\n        /* \"#utility.yul\":9429:9446   */\n      add\n        /* \"#utility.yul\":9422:9469   */\n      mstore\n        /* \"#utility.yul\":9486:9617   */\n      tag_222\n        /* \"#utility.yul\":9612:9616   */\n      dup2\n        /* \"#utility.yul\":9486:9617   */\n      tag_101\n      jump\t// in\n    tag_222:\n        /* \"#utility.yul\":9478:9617   */\n      swap1\n      pop\n        /* \"#utility.yul\":9205:9624   */\n      swap2\n      swap1\n      pop\n      jump\t// out\n        /* \"#utility.yul\":9630:9864   */\n    tag_102:\n        /* \"#utility.yul\":9770:9804   */\n      0x4d65646963616c207265636f726420666f7220746869732070617469656e7420\n        /* \"#utility.yul\":9766:9767   */\n      0x00\n        /* \"#utility.yul\":9758:9764   */\n      dup3\n        /* \"#utility.yul\":9754:9768   */\n      add\n        /* \"#utility.yul\":9747:9805   */\n      mstore\n        /* \"#utility.yul\":9839:9856   */\n      0x616c7265616479206578697374732e0000000000000000000000000000000000\n        /* \"#utility.yul\":9834:9836   */\n      0x20\n        /* \"#utility.yul\":9826:9832   */\n      dup3\n        /* \"#utility.yul\":9822:9837   */\n      add\n        /* \"#utility.yul\":9815:9857   */\n      mstore\n        /* \"#utility.yul\":9630:9864   */\n      pop\n      jump\t// out\n        /* \"#utility.yul\":9870:10236   */\n    tag_103:\n        /* \"#utility.yul\":10012:10015   */\n      0x00\n        /* \"#utility.yul\":10033:10100   */\n      tag_225\n        /* \"#utility.yul\":10097:10099   */\n      0x2f\n        /* \"#utility.yul\":10092:10095   */\n      dup4\n        /* \"#utility.yul\":10033:10100   */\n      tag_79\n      jump\t// in\n    tag_225:\n        /* \"#utility.yul\":10026:10100   */\n      swap2\n      pop\n        /* \"#utility.yul\":10109:10202   */\n      tag_226\n        /* \"#utility.yul\":10198:10201   */\n      dup3\n        /* \"#utility.yul\":10109:10202   */\n      tag_102\n      jump\t// in\n    tag_226:\n        /* \"#utility.yul\":10227:10229   */\n      0x40\n        /* \"#utility.yul\":10222:10225   */\n      dup3\n        /* \"#utility.yul\":10218:10230   */\n      add\n        /* \"#utility.yul\":10211:10230   */\n      swap1\n      pop\n        /* \"#utility.yul\":9870:10236   */\n      swap2\n      swap1\n      pop\n      jump\t// out\n        /* \"#utility.yul\":10242:10661   */\n    tag_60:\n        /* \"#utility.yul\":10408:10412   */\n      0x00\n        /* \"#utility.yul\":10446:10448   */\n      0x20\n        /* \"#utility.yul\":10435:10444   */\n      dup3\n        /* \"#utility.yul\":10431:10449   */\n      add\n        /* \"#utility.yul\":10423:10449   */\n      swap1\n      pop\n        /* \"#utility.yul\":10495:10504   */\n      dup2\n        /* \"#utility.yul\":10489:10493   */\n      dup2\n        /* \"#utility.yul\":10485:10505   */\n      sub\n        /* \"#utility.yul\":10481:10482   */\n      0x00\n        /* \"#utility.yul\":10470:10479   */\n      dup4\n        /* \"#utility.yul\":10466:10483   */\n      add\n        /* \"#utility.yul\":10459:10506   */\n      mstore\n        /* \"#utility.yul\":10523:10654   */\n      tag_228\n        /* \"#utility.yul\":10649:10653   */\n      dup2\n        /* \"#utility.yul\":10523:10654   */\n      tag_103\n      jump\t// in\n    tag_228:\n        /* \"#utility.yul\":10515:10654   */\n      swap1\n      pop\n        /* \"#utility.yul\":10242:10661   */\n      swap2\n      swap1\n      pop\n      jump\t// out\n        /* \"#utility.yul\":10667:10808   */\n    tag_104:\n        /* \"#utility.yul\":10716:10720   */\n      0x00\n        /* \"#utility.yul\":10739:10742   */\n      dup2\n        /* \"#utility.yul\":10731:10742   */\n      swap1\n      pop\n        /* \"#utility.yul\":10762:10765   */\n      dup2\n        /* \"#utility.yul\":10759:10760   */\n      0x00\n        /* \"#utility.yul\":10752:10766   */\n      mstore\n        /* \"#utility.yul\":10796:10800   */\n      0x20\n        /* \"#utility.yul\":10793:10794   */\n      0x00\n        /* \"#utility.yul\":10783:10801   */\n      keccak256\n        /* \"#utility.yul\":10775:10801   */\n      swap1\n      pop\n        /* \"#utility.yul\":10667:10808   */\n      swap2\n      swap1\n      pop\n      jump\t// out\n        /* \"#utility.yul\":10814:10907   */\n    tag_105:\n        /* \"#utility.yul\":10851:10857   */\n      0x00\n        /* \"#utility.yul\":10898:10900   */\n      0x20\n        /* \"#utility.yul\":10893:10895   */\n      0x1f\n        /* \"#utility.yul\":10886:10891   */\n      dup4\n        /* \"#utility.yul\":10882:10896   */\n      add\n        /* \"#utility.yul\":10878:10901   */\n      div\n        /* \"#utility.yul\":10868:10901   */\n      swap1\n      pop\n        /* \"#utility.yul\":10814:10907   */\n      swap2\n      swap1\n      pop\n      jump\t// out\n        /* \"#utility.yul\":10913:11020   */\n    tag_106:\n        /* \"#utility.yul\":10957:10965   */\n      0x00\n        /* \"#utility.yul\":11007:11012   */\n      dup3\n        /* \"#utility.yul\":11001:11005   */\n      dup3\n        /* \"#utility.yul\":10997:11013   */\n      shl\n        /* \"#utility.yul\":10976:11013   */\n      swap1\n      pop\n        /* \"#utility.yul\":10913:11020   */\n      swap3\n      swap2\n      pop\n      pop\n      jump\t// out\n        /* \"#utility.yul\":11026:11419   */\n    tag_107:\n        /* \"#utility.yul\":11095:11101   */\n      0x00\n        /* \"#utility.yul\":11145:11146   */\n      0x08\n        /* \"#utility.yul\":11133:11143   */\n      dup4\n        /* \"#utility.yul\":11129:11147   */\n      mul\n        /* \"#utility.yul\":11168:11265   */\n      tag_233\n        /* \"#utility.yul\":11198:11264   */\n      0xffffffffffffffffffffffffffffffffffffffffffffffffffffffffffffffff\n        /* \"#utility.yul\":11187:11196   */\n      dup3\n        /* \"#utility.yul\":11168:11265   */\n      tag_106\n      jump\t// in\n    tag_233:\n        /* \"#utility.yul\":11286:11325   */\n      tag_234\n        /* \"#utility.yul\":11316:11324   */\n      dup7\n        /* \"#utility.yul\":11305:11314   */\n      dup4\n        /* \"#utility.yul\":11286:11325   */\n      tag_106\n      jump\t// in\n    tag_234:\n        /* \"#utility.yul\":11274:11325   */\n      swap6\n      pop\n        /* \"#utility.yul\":11358:11362   */\n      dup1\n        /* \"#utility.yul\":11354:11363   */\n      not\n        /* \"#utility.yul\":11347:11352   */\n      dup5\n        /* \"#utility.yul\":11343:11364   */\n      and\n        /* \"#utility.yul\":11334:11364   */\n      swap4\n      pop\n        /* \"#utility.yul\":11407:11411   */\n      dup1\n        /* \"#utility.yul\":11397:11405   */\n      dup7\n        /* \"#utility.yul\":11393:11412   */\n      and\n        /* \"#utility.yul\":11386:11391   */\n      dup5\n        /* \"#utility.yul\":11383:11413   */\n      or\n        /* \"#utility.yul\":11373:11413   */\n      swap3\n      pop\n        /* \"#utility.yul\":11102:11419   */\n      pop\n      pop\n        /* \"#utility.yul\":11026:11419   */\n      swap4\n      swap3\n      pop\n      pop\n      pop\n      jump\t// out\n        /* \"#utility.yul\":11425:11485   */\n    tag_108:\n        /* \"#utility.yul\":11453:11456   */\n      0x00\n        /* \"#utility.yul\":11474:11479   */\n      dup2\n        /* \"#utility.yul\":11467:11479   */\n      swap1\n      pop\n        /* \"#utility.yul\":11425:11485   */\n      swap2\n      swap1\n      pop\n      jump\t// out\n        /* \"#utility.yul\":11491:11633   */\n    tag_109:\n        /* \"#utility.yul\":11541:11550   */\n      0x00\n        /* \"#utility.yul\":11574:11627   */\n      tag_237\n        /* \"#utility.yul\":11592:11626   */\n      tag_238\n        /* \"#utility.yul\":11601:11625   */\n      tag_239\n        /* \"#utility.yul\":11619:11624   */\n      dup5\n        /* \"#utility.yul\":11601:11625   */\n      tag_83\n      jump\t// in\n    tag_239:\n        /* \"#utility.yul\":11592:11626   */\n      tag_108\n      jump\t// in\n    tag_238:\n        /* \"#utility.yul\":11574:11627   */\n      tag_83\n      jump\t// in\n    tag_237:\n        /* \"#utility.yul\":11561:11627   */\n      swap1\n      pop\n        /* \"#utility.yul\":11491:11633   */\n      swap2\n      swap1\n      pop\n      jump\t// out\n        /* \"#utility.yul\":11639:11714   */\n    tag_110:\n        /* \"#utility.yul\":11682:11685   */\n      0x00\n        /* \"#utility.yul\":11703:11708   */\n      dup2\n        /* \"#utility.yul\":11696:11708   */\n      swap1\n      pop\n        /* \"#utility.yul\":11639:11714   */\n      swap2\n      swap1\n      pop\n      jump\t// out\n        /* \"#utility.yul\":11720:11989   */\n    tag_111:\n        /* \"#utility.yul\":11830:11869   */\n      tag_242\n        /* \"#utility.yul\":11861:11868   */\n      dup4\n        /* \"#utility.yul\":11830:11869   */\n      tag_109\n      jump\t// in\n    tag_242:\n        /* \"#utility.yul\":11891:11982   */\n      tag_243\n        /* \"#utility.yul\":11940:11981   */\n      tag_244\n        /* \"#utility.yul\":11964:11980   */\n      dup3\n        /* \"#utility.yul\":11940:11981   */\n      tag_110\n      jump\t// in\n    tag_244:\n        /* \"#utility.yul\":11932:11938   */\n      dup5\n        /* \"#utility.yul\":11925:11929   */\n      dup5\n        /* \"#utility.yul\":11919:11930   */\n      sload\n        /* \"#utility.yul\":11891:11982   */\n      tag_107\n      jump\t// in\n    tag_243:\n        /* \"#utility.yul\":11885:11889   */\n      dup3\n        /* \"#utility.yul\":11878:11983   */\n      sstore\n        /* \"#utility.yul\":11796:11989   */\n      pop\n        /* \"#utility.yul\":11720:11989   */\n      pop\n      pop\n      pop\n      jump\t// out\n        /* \"#utility.yul\":11995:12068   */\n    tag_112:\n        /* \"#utility.yul\":12040:12043   */\n      0x00\n        /* \"#utility.yul\":11995:12068   */\n      swap1\n      jump\t// out\n        /* \"#utility.yul\":12074:12263   */\n    tag_113:\n        /* \"#utility.yul\":12151:12183   */\n      tag_247\n      tag_112\n      jump\t// in\n    tag_247:\n        /* \"#utility.yul\":12192:12257   */\n      tag_248\n        /* \"#utility.yul\":12250:12256   */\n      dup2\n        /* \"#utility.yul\":12242:12248   */\n      dup5\n        /* \"#utility.yul\":12236:12240   */\n      dup5\n        /* \"#utility.yul\":12192:12257   */\n      tag_111\n      jump\t// in\n    tag_248:\n        /* \"#utility.yul\":12127:12263   */\n      pop\n        /* \"#utility.yul\":12074:12263   */\n      pop\n      pop\n      jump\t// out\n        /* \"#utility.yul\":12269:12455   */\n    tag_114:\n        /* \"#utility.yul\":12329:12449   */\n    tag_250:\n        /* \"#utility.yul\":12346:12349   */\n      dup2\n        /* \"#utility.yul\":12339:12344   */\n      dup2\n        /* \"#utility.yul\":12336:12350   */\n      lt\n        /* \"#utility.yul\":12329:12449   */\n      iszero\n      tag_252\n      jumpi\n        /* \"#utility.yul\":12400:12439   */\n      tag_253\n        /* \"#utility.yul\":12437:12438   */\n      0x00\n        /* \"#utility.yul\":12430:12435   */\n      dup3\n        /* \"#utility.yul\":12400:12439   */\n      tag_113\n      jump\t// in\n    tag_253:\n        /* \"#utility.yul\":12373:12374   */\n      0x01\n        /* \"#utility.yul\":12366:12371   */\n      dup2\n        /* \"#utility.yul\":12362:12375   */\n      add\n        /* \"#utility.yul\":12353:12375   */\n      swap1\n      pop\n        /* \"#utility.yul\":12329:12449   */\n      jump(tag_250)\n    tag_252:\n        /* \"#utility.yul\":12269:12455   */\n      pop\n      pop\n      jump\t// out\n        /* \"#utility.yul\":12461:13004   */\n    tag_115:\n        /* \"#utility.yul\":12562:12564   */\n      0x1f\n        /* \"#utility.yul\":12557:12560   */\n      dup3\n        /* \"#utility.yul\":12554:12565   */\n      gt\n        /* \"#utility.yul\":12551:12997   */\n      iszero\n      tag_255\n      jumpi\n        /* \"#utility.yul\":12596:12634   */\n      tag_256\n        /* \"#utility.yul\":12628:12633   */\n      dup2\n        /* \"#utility.yul\":12596:12634   */\n      tag_104\n      jump\t// in\n    tag_256:\n        /* \"#utility.yul\":12680:12709   */\n      tag_257\n        /* \"#utility.yul\":12698:12708   */\n      dup5\n        /* \"#utility.yul\":12680:12709   */\n      tag_105\n      jump\t// in\n    tag_257:\n        /* \"#utility.yul\":12670:12678   */\n      dup2\n        /* \"#utility.yul\":12666:12710   */\n      add\n        /* \"#utility.yul\":12863:12865   */\n      0x20\n        /* \"#utility.yul\":12851:12861   */\n      dup6\n        /* \"#utility.yul\":12848:12866   */\n      lt\n        /* \"#utility.yul\":12845:12894   */\n      iszero\n      tag_258\n      jumpi\n        /* \"#utility.yul\":12884:12892   */\n      dup2\n        /* \"#utility.yul\":12869:12892   */\n      swap1\n      pop\n        /* \"#utility.yul\":12845:12894   */\n    tag_258:\n        /* \"#utility.yul\":12907:12987   */\n      tag_259\n        /* \"#utility.yul\":12963:12985   */\n      tag_260\n        /* \"#utility.yul\":12981:12984   */\n      dup6\n        /* \"#utility.yul\":12963:12985   */\n      tag_105\n      jump\t// in\n    tag_260:\n        /* \"#utility.yul\":12953:12961   */\n      dup4\n        /* \"#utility.yul\":12949:12986   */\n      add\n        /* \"#utility.yul\":12936:12947   */\n      dup3\n        /* \"#utility.yul\":12907:12987   */\n      tag_114\n      jump\t// in\n    tag_259:\n        /* \"#utility.yul\":12566:12997   */\n      pop\n      pop\n        /* \"#utility.yul\":12551:12997   */\n    tag_255:\n        /* \"#utility.yul\":12461:13004   */\n      pop\n      pop\n      pop\n      jump\t// out\n        /* \"#utility.yul\":13010:13127   */\n    tag_116:\n        /* \"#utility.yul\":13064:13072   */\n      0x00\n        /* \"#utility.yul\":13114:13119   */\n      dup3\n        /* \"#utility.yul\":13108:13112   */\n      dup3\n        /* \"#utility.yul\":13104:13120   */\n      shr\n        /* \"#utility.yul\":13083:13120   */\n      swap1\n      pop\n        /* \"#utility.yul\":13010:13127   */\n      swap3\n      swap2\n      pop\n      pop\n      jump\t// out\n        /* \"#utility.yul\":13133:13302   */\n    tag_117:\n        /* \"#utility.yul\":13177:13183   */\n      0x00\n        /* \"#utility.yul\":13210:13261   */\n      tag_263\n        /* \"#utility.yul\":13258:13259   */\n      0x00\n        /* \"#utility.yul\":13254:13260   */\n      not\n        /* \"#utility.yul\":13246:13251   */\n      dup5\n        /* \"#utility.yul\":13243:13244   */\n      0x08\n        /* \"#utility.yul\":13239:13252   */\n      mul\n        /* \"#utility.yul\":13210:13261   */\n      tag_116\n      jump\t// in\n    tag_263:\n        /* \"#utility.yul\":13206:13262   */\n      not\n        /* \"#utility.yul\":13291:13295   */\n      dup1\n        /* \"#utility.yul\":13285:13289   */\n      dup4\n        /* \"#utility.yul\":13281:13296   */\n      and\n        /* \"#utility.yul\":13271:13296   */\n      swap2\n      pop\n        /* \"#utility.yul\":13184:13302   */\n      pop\n        /* \"#utility.yul\":13133:13302   */\n      swap3\n      swap2\n      pop\n      pop\n      jump\t// out\n        /* \"#utility.yul\":13307:13602   */\n    tag_118:\n        /* \"#utility.yul\":13383:13387   */\n      0x00\n        /* \"#utility.yul\":13529:13558   */\n      tag_265\n        /* \"#utility.yul\":13554:13557   */\n      dup4\n        /* \"#utility.yul\":13548:13552   */\n      dup4\n        /* \"#utility.yul\":13529:13558   */\n      tag_117\n      jump\t// in\n    tag_265:\n        /* \"#utility.yul\":13521:13558   */\n      swap2\n      pop\n        /* \"#utility.yul\":13591:13594   */\n      dup3\n        /* \"#utility.yul\":13588:13589   */\n      0x02\n        /* \"#utility.yul\":13584:13595   */\n      mul\n        /* \"#utility.yul\":13578:13582   */\n      dup3\n        /* \"#utility.yul\":13575:13596   */\n      or\n        /* \"#utility.yul\":13567:13596   */\n      swap1\n      pop\n        /* \"#utility.yul\":13307:13602   */\n      swap3\n      swap2\n      pop\n      pop\n      jump\t// out\n        /* \"#utility.yul\":13607:15002   */\n    tag_62:\n        /* \"#utility.yul\":13724:13761   */\n      tag_267\n        /* \"#utility.yul\":13757:13760   */\n      dup3\n        /* \"#utility.yul\":13724:13761   */\n      tag_78\n      jump\t// in\n    tag_267:\n        /* \"#utility.yul\":13826:13844   */\n      0xffffffffffffffff\n        /* \"#utility.yul\":13818:13824   */\n      dup2\n        /* \"#utility.yul\":13815:13845   */\n      gt\n        /* \"#utility.yul\":13812:13868   */\n      iszero\n      tag_268\n      jumpi\n        /* \"#utility.yul\":13848:13866   */\n      tag_269\n      tag_90\n      jump\t// in\n    tag_269:\n        /* \"#utility.yul\":13812:13868   */\n    tag_268:\n        /* \"#utility.yul\":13892:13930   */\n      tag_270\n        /* \"#utility.yul\":13924:13928   */\n      dup3\n        /* \"#utility.yul\":13918:13929   */\n      sload\n        /* \"#utility.yul\":13892:13930   */\n      tag_36\n      jump\t// in\n    tag_270:\n        /* \"#utility.yul\":13977:14044   */\n      tag_271\n        /* \"#utility.yul\":14037:14043   */\n      dup3\n        /* \"#utility.yul\":14029:14035   */\n      dup3\n        /* \"#utility.yul\":14023:14027   */\n      dup6\n        /* \"#utility.yul\":13977:14044   */\n      tag_115\n      jump\t// in\n    tag_271:\n        /* \"#utility.yul\":14071:14072   */\n      0x00\n        /* \"#utility.yul\":14095:14099   */\n      0x20\n        /* \"#utility.yul\":14082:14099   */\n      swap1\n      pop\n        /* \"#utility.yul\":14127:14129   */\n      0x1f\n        /* \"#utility.yul\":14119:14125   */\n      dup4\n        /* \"#utility.yul\":14116:14130   */\n      gt\n        /* \"#utility.yul\":14144:14145   */\n      0x01\n        /* \"#utility.yul\":14139:14757   */\n      dup2\n      eq\n      tag_273\n      jumpi\n        /* \"#utility.yul\":14801:14802   */\n      0x00\n        /* \"#utility.yul\":14818:14824   */\n      dup5\n        /* \"#utility.yul\":14815:14892   */\n      iszero\n      tag_274\n      jumpi\n        /* \"#utility.yul\":14867:14876   */\n      dup3\n        /* \"#utility.yul\":14862:14865   */\n      dup8\n        /* \"#utility.yul\":14858:14877   */\n      add\n        /* \"#utility.yul\":14852:14878   */\n      mload\n        /* \"#utility.yul\":14843:14878   */\n      swap1\n      pop\n        /* \"#utility.yul\":14815:14892   */\n    tag_274:\n        /* \"#utility.yul\":14918:14985   */\n      tag_275\n        /* \"#utility.yul\":14978:14984   */\n      dup6\n        /* \"#utility.yul\":14971:14976   */\n      dup3\n        /* \"#utility.yul\":14918:14985   */\n      tag_118\n      jump\t// in\n    tag_275:\n        /* \"#utility.yul\":14912:14916   */\n      dup7\n        /* \"#utility.yul\":14905:14986   */\n      sstore\n        /* \"#utility.yul\":14774:14996   */\n      pop\n        /* \"#utility.yul\":14109:14996   */\n      jump(tag_272)\n        /* \"#utility.yul\":14139:14757   */\n    tag_273:\n        /* \"#utility.yul\":14191:14195   */\n      0x1f\n        /* \"#utility.yul\":14187:14196   */\n      not\n        /* \"#utility.yul\":14179:14185   */\n      dup5\n        /* \"#utility.yul\":14175:14197   */\n      and\n        /* \"#utility.yul\":14225:14262   */\n      tag_276\n        /* \"#utility.yul\":14257:14261   */\n      dup7\n        /* \"#utility.yul\":14225:14262   */\n      tag_104\n      jump\t// in\n    tag_276:\n        /* \"#utility.yul\":14284:14285   */\n      0x00\n        /* \"#utility.yul\":14298:14506   */\n    tag_277:\n        /* \"#utility.yul\":14312:14319   */\n      dup3\n        /* \"#utility.yul\":14309:14310   */\n      dup2\n        /* \"#utility.yul\":14306:14320   */\n      lt\n        /* \"#utility.yul\":14298:14506   */\n      iszero\n      tag_279\n      jumpi\n        /* \"#utility.yul\":14391:14400   */\n      dup5\n        /* \"#utility.yul\":14386:14389   */\n      dup10\n        /* \"#utility.yul\":14382:14401   */\n      add\n        /* \"#utility.yul\":14376:14402   */\n      mload\n        /* \"#utility.yul\":14368:14374   */\n      dup3\n        /* \"#utility.yul\":14361:14403   */\n      sstore\n        /* \"#utility.yul\":14442:14443   */\n      0x01\n        /* \"#utility.yul\":14434:14440   */\n      dup3\n        /* \"#utility.yul\":14430:14444   */\n      add\n        /* \"#utility.yul\":14420:14444   */\n      swap2\n      pop\n        /* \"#utility.yul\":14489:14491   */\n      0x20\n        /* \"#utility.yul\":14478:14487   */\n      dup6\n        /* \"#utility.yul\":14474:14492   */\n      add\n        /* \"#utility.yul\":14461:14492   */\n      swap5\n      pop\n        /* \"#utility.yul\":14335:14339   */\n      0x20\n        /* \"#utility.yul\":14332:14333   */\n      dup2\n        /* \"#utility.yul\":14328:14340   */\n      add\n        /* \"#utility.yul\":14323:14340   */\n      swap1\n      pop\n        /* \"#utility.yul\":14298:14506   */\n      jump(tag_277)\n    tag_279:\n        /* \"#utility.yul\":14534:14540   */\n      dup7\n        /* \"#utility.yul\":14525:14532   */\n      dup4\n        /* \"#utility.yul\":14522:14541   */\n      lt\n        /* \"#utility.yul\":14519:14698   */\n      iszero\n      tag_280\n      jumpi\n        /* \"#utility.yul\":14592:14601   */\n      dup5\n        /* \"#utility.yul\":14587:14590   */\n      dup10\n        /* \"#utility.yul\":14583:14602   */\n      add\n        /* \"#utility.yul\":14577:14603   */\n      mload\n        /* \"#utility.yul\":14635:14683   */\n      tag_281\n        /* \"#utility.yul\":14677:14681   */\n      0x1f\n        /* \"#utility.yul\":14669:14675   */\n      dup10\n        /* \"#utility.yul\":14665:14682   */\n      and\n        /* \"#utility.yul\":14654:14663   */\n      dup3\n        /* \"#utility.yul\":14635:14683   */\n      tag_117\n      jump\t// in\n    tag_281:\n        /* \"#utility.yul\":14627:14633   */\n      dup4\n        /* \"#utility.yul\":14620:14684   */\n      sstore\n        /* \"#utility.yul\":14542:14698   */\n      pop\n        /* \"#utility.yul\":14519:14698   */\n    tag_280:\n        /* \"#utility.yul\":14744:14745   */\n      0x01\n        /* \"#utility.yul\":14740:14741   */\n      0x02\n        /* \"#utility.yul\":14732:14738   */\n      dup9\n        /* \"#utility.yul\":14728:14742   */\n      mul\n        /* \"#utility.yul\":14724:14746   */\n      add\n        /* \"#utility.yul\":14718:14722   */\n      dup9\n        /* \"#utility.yul\":14711:14747   */\n      sstore\n        /* \"#utility.yul\":14146:14757   */\n      pop\n      pop\n      pop\n        /* \"#utility.yul\":14109:14996   */\n    tag_272:\n      pop\n        /* \"#utility.yul\":13699:15002   */\n      pop\n      pop\n      pop\n        /* \"#utility.yul\":13607:15002   */\n      pop\n      pop\n      jump\t// out\n        /* \"#utility.yul\":15008:15632   */\n    tag_66:\n        /* \"#utility.yul\":15197:15201   */\n      0x00\n        /* \"#utility.yul\":15235:15237   */\n      0x60\n        /* \"#utility.yul\":15224:15233   */\n      dup3\n        /* \"#utility.yul\":15220:15238   */\n      add\n        /* \"#utility.yul\":15212:15238   */\n      swap1\n      pop\n        /* \"#utility.yul\":15284:15293   */\n      dup2\n        /* \"#utility.yul\":15278:15282   */\n      dup2\n        /* \"#utility.yul\":15274:15294   */\n      sub\n        /* \"#utility.yul\":15270:15271   */\n      0x00\n        /* \"#utility.yul\":15259:15268   */\n      dup4\n        /* \"#utility.yul\":15255:15272   */\n      add\n        /* \"#utility.yul\":15248:15295   */\n      mstore\n        /* \"#utility.yul\":15312:15390   */\n      tag_283\n        /* \"#utility.yul\":15385:15389   */\n      dup2\n        /* \"#utility.yul\":15376:15382   */\n      dup7\n        /* \"#utility.yul\":15312:15390   */\n      tag_82\n      jump\t// in\n    tag_283:\n        /* \"#utility.yul\":15304:15390   */\n      swap1\n      pop\n        /* \"#utility.yul\":15437:15446   */\n      dup2\n        /* \"#utility.yul\":15431:15435   */\n      dup2\n        /* \"#utility.yul\":15427:15447   */\n      sub\n        /* \"#utility.yul\":15422:15424   */\n      0x20\n        /* \"#utility.yul\":15411:15420   */\n      dup4\n        /* \"#utility.yul\":15407:15425   */\n      add\n        /* \"#utility.yul\":15400:15448   */\n      mstore\n        /* \"#utility.yul\":15465:15543   */\n      tag_284\n        /* \"#utility.yul\":15538:15542   */\n      dup2\n        /* \"#utility.yul\":15529:15535   */\n      dup6\n        /* \"#utility.yul\":15465:15543   */\n      tag_82\n      jump\t// in\n    tag_284:\n        /* \"#utility.yul\":15457:15543   */\n      swap1\n      pop\n        /* \"#utility.yul\":15553:15625   */\n      tag_285\n        /* \"#utility.yul\":15621:15623   */\n      0x40\n        /* \"#utility.yul\":15610:15619   */\n      dup4\n        /* \"#utility.yul\":15606:15624   */\n      add\n        /* \"#utility.yul\":15597:15603   */\n      dup5\n        /* \"#utility.yul\":15553:15625   */\n      tag_85\n      jump\t// in\n    tag_285:\n        /* \"#utility.yul\":15008:15632   */\n      swap5\n      swap4\n      pop\n      pop\n      pop\n      pop\n      jump\t// out\n        /* \"#utility.yul\":15638:15882   */\n    tag_119:\n        /* \"#utility.yul\":15778:15812   */\n      0x4f6e6c792074686520636f6e7472616374206f776e65722063616e2061707072\n        /* \"#utility.yul\":15774:15775   */\n      0x00\n        /* \"#utility.yul\":15766:15772   */\n      dup3\n        /* \"#utility.yul\":15762:15776   */\n      add\n        /* \"#utility.yul\":15755:15813   */\n      mstore\n        /* \"#utility.yul\":15847:15874   */\n      0x6f7665206865616c7468636172652070726f7669646572732e00000000000000\n        /* \"#utility.yul\":15842:15844   */\n      0x20\n        /* \"#utility.yul\":15834:15840   */\n      dup3\n        /* \"#utility.yul\":15830:15845   */\n      add\n        /* \"#utility.yul\":15823:15875   */\n      mstore\n        /* \"#utility.yul\":15638:15882   */\n      pop\n      jump\t// out\n        /* \"#utility.yul\":15888:16254   */\n    tag_120:\n        /* \"#utility.yul\":16030:16033   */\n      0x00\n        /* \"#utility.yul\":16051:16118   */\n      tag_288\n        /* \"#utility.yul\":16115:16117   */\n      0x39\n        /* \"#utility.yul\":16110:16113   */\n      dup4\n        /* \"#utility.yul\":16051:16118   */\n      tag_79\n      jump\t// in\n    tag_288:\n        /* \"#utility.yul\":16044:16118   */\n      swap2\n      pop\n        /* \"#utility.yul\":16127:16220   */\n      tag_289\n        /* \"#utility.yul\":16216:16219   */\n      dup3\n        /* \"#utility.yul\":16127:16220   */\n      tag_119\n      jump\t// in\n    tag_289:\n        /* \"#utility.yul\":16245:16247   */\n      0x40\n        /* \"#utility.yul\":16240:16243   */\n      dup3\n        /* \"#utility.yul\":16236:16248   */\n      add\n        /* \"#utility.yul\":16229:16248   */\n      swap1\n      pop\n        /* \"#utility.yul\":15888:16254   */\n      swap2\n      swap1\n      pop\n      jump\t// out\n        /* \"#utility.yul\":16260:16679   */\n    tag_70:\n        /* \"#utility.yul\":16426:16430   */\n      0x00\n        /* \"#utility.yul\":16464:16466   */\n      0x20\n        /* \"#utility.yul\":16453:16462   */\n      dup3\n        /* \"#utility.yul\":16449:16467   */\n      add\n        /* \"#utility.yul\":16441:16467   */\n      swap1\n      pop\n        /* \"#utility.yul\":16513:16522   */\n      dup2\n        /* \"#utility.yul\":16507:16511   */\n      dup2\n        /* \"#utility.yul\":16503:16523   */\n      sub\n        /* \"#utility.yul\":16499:16500   */\n      0x00\n        /* \"#utility.yul\":16488:16497   */\n      dup4\n        /* \"#utility.yul\":16484:16501   */\n      add\n        /* \"#utility.yul\":16477:16524   */\n      mstore\n        /* \"#utility.yul\":16541:16672   */\n      tag_291\n        /* \"#utility.yul\":16667:16671   */\n      dup2\n        /* \"#utility.yul\":16541:16672   */\n      tag_120\n      jump\t// in\n    tag_291:\n        /* \"#utility.yul\":16533:16672   */\n      swap1\n      pop\n        /* \"#utility.yul\":16260:16679   */\n      swap2\n      swap1\n      pop\n      jump\t// out\n\n    auxdata: 0xa2646970667358221220633d496e130a5062bd80955e4d92430ca2d71be3f3ebd651b98b25fadba7573b64736f6c63430008160033\n}\n",
				"bytecode": {
					"linkReferences": {},
					"object": "608060405234801561000f575f80fd5b503360025f6101000a81548173ffffffffffffffffffffffffffffffffffffffff021916908373ffffffffffffffffffffffffffffffffffffffff1602179055506110798061005d5f395ff3fe608060405234801561000f575f80fd5b5060043610610060575f3560e01c8063106d6170146100645780633e1cc60e1461009957806356bd0cfc146100c95780638139ef9a146100e55780638da5cb5b14610115578063a3bb58ff14610133575b5f80fd5b61007e600480360381019061007991906107d0565b61014f565b604051610090969594939291906108c6565b60405180910390f35b6100b360048036038101906100ae91906107d0565b610344565b6040516100c0919061093a565b60405180910390f35b6100e360048036038101906100de9190610aa9565b610396565b005b6100ff60048036038101906100fa91906107d0565b61063d565b60405161010c919061093a565b60405180910390f35b61011d61065a565b60405161012a9190610b74565b60405180910390f35b61014d600480360381019061014891906107d0565b61067f565b005b5f602052805f5260405f205f91509050805f01805461016d90610bba565b80601f016020809104026020016040519081016040528092919081815260200182805461019990610bba565b80156101e45780601f106101bb576101008083540402835291602001916101e4565b820191905f5260205f20905b8154815290600101906020018083116101c757829003601f168201915b5050505050908060010154908060020180546101ff90610bba565b80601f016020809104026020016040519081016040528092919081815260200182805461022b90610bba565b80156102765780601f1061024d57610100808354040283529160200191610276565b820191905f5260205f20905b81548152906001019060200180831161025957829003601f168201915b50505050509080600301805461028b90610bba565b80601f01602080910402602001604051908101604052809291908181526020018280546102b790610bba565b80156103025780601f106102d957610100808354040283529160200191610302565b820191905f5260205f20905b8154815290600101906020018083116102e557829003601f168201915b505050505090806004015f9054906101000a900473ffffffffffffffffffffffffffffffffffffffff16908060040160149054906101000a900460ff16905086565b5f60015f8373ffffffffffffffffffffffffffffffffffffffff1673ffffffffffffffffffffffffffffffffffffffff1681526020019081526020015f205f9054906101000a900460ff169050919050565b61039f33610344565b6103de576040517f08c379a00000000000000000000000000000000000000000000000000000000081526004016103d590610c5a565b60405180910390fd5b5f73ffffffffffffffffffffffffffffffffffffffff165f808773ffffffffffffffffffffffffffffffffffffffff1673ffffffffffffffffffffffffffffffffffffffff1681526020019081526020015f206004015f9054906101000a900473ffffffffffffffffffffffffffffffffffffffff1673ffffffffffffffffffffffffffffffffffffffff16146104aa576040517f08c379a00000000000000000000000000000000000000000000000000000000081526004016104a190610ce8565b60405180910390fd5b5f6040518060c001604052808681526020018581526020018481526020018381526020013373ffffffffffffffffffffffffffffffffffffffff168152602001600115158152509050805f808873ffffffffffffffffffffffffffffffffffffffff1673ffffffffffffffffffffffffffffffffffffffff1681526020019081526020015f205f820151815f0190816105439190610ea3565b506020820151816001015560408201518160020190816105639190610ea3565b5060608201518160030190816105799190610ea3565b506080820151816004015f6101000a81548173ffffffffffffffffffffffffffffffffffffffff021916908373ffffffffffffffffffffffffffffffffffffffff16021790555060a08201518160040160146101000a81548160ff0219169083151502179055509050508573ffffffffffffffffffffffffffffffffffffffff167f57e8cf977feaf93280711d1669e03eaff15d821be7c925435862e08dfda4ba6d84843360405161062d93929190610f72565b60405180910390a2505050505050565b6001602052805f5260405f205f915054906101000a900460ff1681565b60025f9054906101000a900473ffffffffffffffffffffffffffffffffffffffff1681565b60025f9054906101000a900473ffffffffffffffffffffffffffffffffffffffff1673ffffffffffffffffffffffffffffffffffffffff163373ffffffffffffffffffffffffffffffffffffffff161461070e576040517f08c379a000000000000000000000000000000000000000000000000000000000815260040161070590611025565b60405180910390fd5b6001805f8373ffffffffffffffffffffffffffffffffffffffff1673ffffffffffffffffffffffffffffffffffffffff1681526020019081526020015f205f6101000a81548160ff02191690831515021790555050565b5f604051905090565b5f80fd5b5f80fd5b5f73ffffffffffffffffffffffffffffffffffffffff82169050919050565b5f61079f82610776565b9050919050565b6107af81610795565b81146107b9575f80fd5b50565b5f813590506107ca816107a6565b92915050565b5f602082840312156107e5576107e461076e565b5b5f6107f2848285016107bc565b91505092915050565b5f81519050919050565b5f82825260208201905092915050565b5f5b83811015610832578082015181840152602081019050610817565b5f8484015250505050565b5f601f19601f8301169050919050565b5f610857826107fb565b6108618185610805565b9350610871818560208601610815565b61087a8161083d565b840191505092915050565b5f819050919050565b61089781610885565b82525050565b6108a681610795565b82525050565b5f8115159050919050565b6108c0816108ac565b82525050565b5f60c0820190508181035f8301526108de818961084d565b90506108ed602083018861088e565b81810360408301526108ff818761084d565b90508181036060830152610913818661084d565b9050610922608083018561089d565b61092f60a08301846108b7565b979650505050505050565b5f60208201905061094d5f8301846108b7565b92915050565b5f80fd5b5f80fd5b7f4e487b71000000000000000000000000000000000000000000000000000000005f52604160045260245ffd5b6109918261083d565b810181811067ffffffffffffffff821117156109b0576109af61095b565b5b80604052505050565b5f6109c2610765565b90506109ce8282610988565b919050565b5f67ffffffffffffffff8211156109ed576109ec61095b565b5b6109f68261083d565b9050602081019050919050565b828183375f83830152505050565b5f610a23610a1e846109d3565b6109b9565b905082815260208101848484011115610a3f57610a3e610957565b5b610a4a848285610a03565b509392505050565b5f82601f830112610a6657610a65610953565b5b8135610a76848260208601610a11565b91505092915050565b610a8881610885565b8114610a92575f80fd5b50565b5f81359050610aa381610a7f565b92915050565b5f805f805f60a08688031215610ac257610ac161076e565b5b5f610acf888289016107bc565b955050602086013567ffffffffffffffff811115610af057610aef610772565b5b610afc88828901610a52565b9450506040610b0d88828901610a95565b935050606086013567ffffffffffffffff811115610b2e57610b2d610772565b5b610b3a88828901610a52565b925050608086013567ffffffffffffffff811115610b5b57610b5a610772565b5b610b6788828901610a52565b9150509295509295909350565b5f602082019050610b875f83018461089d565b92915050565b7f4e487b71000000000000000000000000000000000000000000000000000000005f52602260045260245ffd5b5f6002820490506001821680610bd157607f821691505b602082108103610be457610be3610b8d565b5b50919050565b7f4f6e6c7920617070726f766564206865616c7468636172652070726f766964655f8201527f72732063616e2061636365737320746869732066756e6374696f6e2e00000000602082015250565b5f610c44603c83610805565b9150610c4f82610bea565b604082019050919050565b5f6020820190508181035f830152610c7181610c38565b9050919050565b7f4d65646963616c207265636f726420666f7220746869732070617469656e74205f8201527f616c7265616479206578697374732e0000000000000000000000000000000000602082015250565b5f610cd2602f83610805565b9150610cdd82610c78565b604082019050919050565b5f6020820190508181035f830152610cff81610cc6565b9050919050565b5f819050815f5260205f209050919050565b5f6020601f8301049050919050565b5f82821b905092915050565b5f60088302610d627fffffffffffffffffffffffffffffffffffffffffffffffffffffffffffffffff82610d27565b610d6c8683610d27565b95508019841693508086168417925050509392505050565b5f819050919050565b5f610da7610da2610d9d84610885565b610d84565b610885565b9050919050565b5f819050919050565b610dc083610d8d565b610dd4610dcc82610dae565b848454610d33565b825550505050565b5f90565b610de8610ddc565b610df3818484610db7565b505050565b5b81811015610e1657610e0b5f82610de0565b600181019050610df9565b5050565b601f821115610e5b57610e2c81610d06565b610e3584610d18565b81016020851015610e44578190505b610e58610e5085610d18565b830182610df8565b50505b505050565b5f82821c905092915050565b5f610e7b5f1984600802610e60565b1980831691505092915050565b5f610e938383610e6c565b9150826002028217905092915050565b610eac826107fb565b67ffffffffffffffff811115610ec557610ec461095b565b5b610ecf8254610bba565b610eda828285610e1a565b5f60209050601f831160018114610f0b575f8415610ef9578287015190505b610f038582610e88565b865550610f6a565b601f198416610f1986610d06565b5f5b82811015610f4057848901518255600182019150602085019450602081019050610f1b565b86831015610f5d5784890151610f59601f891682610e6c565b8355505b6001600288020188555050505b505050505050565b5f6060820190508181035f830152610f8a818661084d565b90508181036020830152610f9e818561084d565b9050610fad604083018461089d565b949350505050565b7f4f6e6c792074686520636f6e7472616374206f776e65722063616e20617070725f8201527f6f7665206865616c7468636172652070726f7669646572732e00000000000000602082015250565b5f61100f603983610805565b915061101a82610fb5565b604082019050919050565b5f6020820190508181035f83015261103c81611003565b905091905056fea2646970667358221220633d496e130a5062bd80955e4d92430ca2d71be3f3ebd651b98b25fadba7573b64736f6c63430008160033",
					"opcodes": "PUSH1 0x80 PUSH1 0x40 MSTORE CALLVALUE DUP1 ISZERO PUSH2 0xF JUMPI PUSH0 DUP1 REVERT JUMPDEST POP CALLER PUSH1 0x2 PUSH0 PUSH2 0x100 EXP DUP2 SLOAD DUP2 PUSH20 0xFFFFFFFFFFFFFFFFFFFFFFFFFFFFFFFFFFFFFFFF MUL NOT AND SWAP1 DUP4 PUSH20 0xFFFFFFFFFFFFFFFFFFFFFFFFFFFFFFFFFFFFFFFF AND MUL OR SWAP1 SSTORE POP PUSH2 0x1079 DUP1 PUSH2 0x5D PUSH0 CODECOPY PUSH0 RETURN INVALID PUSH1 0x80 PUSH1 0x40 MSTORE CALLVALUE DUP1 ISZERO PUSH2 0xF JUMPI PUSH0 DUP1 REVERT JUMPDEST POP PUSH1 0x4 CALLDATASIZE LT PUSH2 0x60 JUMPI PUSH0 CALLDATALOAD PUSH1 0xE0 SHR DUP1 PUSH4 0x106D6170 EQ PUSH2 0x64 JUMPI DUP1 PUSH4 0x3E1CC60E EQ PUSH2 0x99 JUMPI DUP1 PUSH4 0x56BD0CFC EQ PUSH2 0xC9 JUMPI DUP1 PUSH4 0x8139EF9A EQ PUSH2 0xE5 JUMPI DUP1 PUSH4 0x8DA5CB5B EQ PUSH2 0x115 JUMPI DUP1 PUSH4 0xA3BB58FF EQ PUSH2 0x133 JUMPI JUMPDEST PUSH0 DUP1 REVERT JUMPDEST PUSH2 0x7E PUSH1 0x4 DUP1 CALLDATASIZE SUB DUP2 ADD SWAP1 PUSH2 0x79 SWAP2 SWAP1 PUSH2 0x7D0 JUMP JUMPDEST PUSH2 0x14F JUMP JUMPDEST PUSH1 0x40 MLOAD PUSH2 0x90 SWAP7 SWAP6 SWAP5 SWAP4 SWAP3 SWAP2 SWAP1 PUSH2 0x8C6 JUMP JUMPDEST PUSH1 0x40 MLOAD DUP1 SWAP2 SUB SWAP1 RETURN JUMPDEST PUSH2 0xB3 PUSH1 0x4 DUP1 CALLDATASIZE SUB DUP2 ADD SWAP1 PUSH2 0xAE SWAP2 SWAP1 PUSH2 0x7D0 JUMP JUMPDEST PUSH2 0x344 JUMP JUMPDEST PUSH1 0x40 MLOAD PUSH2 0xC0 SWAP2 SWAP1 PUSH2 0x93A JUMP JUMPDEST PUSH1 0x40 MLOAD DUP1 SWAP2 SUB SWAP1 RETURN JUMPDEST PUSH2 0xE3 PUSH1 0x4 DUP1 CALLDATASIZE SUB DUP2 ADD SWAP1 PUSH2 0xDE SWAP2 SWAP1 PUSH2 0xAA9 JUMP JUMPDEST PUSH2 0x396 JUMP JUMPDEST STOP JUMPDEST PUSH2 0xFF PUSH1 0x4 DUP1 CALLDATASIZE SUB DUP2 ADD SWAP1 PUSH2 0xFA SWAP2 SWAP1 PUSH2 0x7D0 JUMP JUMPDEST PUSH2 0x63D JUMP JUMPDEST PUSH1 0x40 MLOAD PUSH2 0x10C SWAP2 SWAP1 PUSH2 0x93A JUMP JUMPDEST PUSH1 0x40 MLOAD DUP1 SWAP2 SUB SWAP1 RETURN JUMPDEST PUSH2 0x11D PUSH2 0x65A JUMP JUMPDEST PUSH1 0x40 MLOAD PUSH2 0x12A SWAP2 SWAP1 PUSH2 0xB74 JUMP JUMPDEST PUSH1 0x40 MLOAD DUP1 SWAP2 SUB SWAP1 RETURN JUMPDEST PUSH2 0x14D PUSH1 0x4 DUP1 CALLDATASIZE SUB DUP2 ADD SWAP1 PUSH2 0x148 SWAP2 SWAP1 PUSH2 0x7D0 JUMP JUMPDEST PUSH2 0x67F JUMP JUMPDEST STOP JUMPDEST PUSH0 PUSH1 0x20 MSTORE DUP1 PUSH0 MSTORE PUSH1 0x40 PUSH0 KECCAK256 PUSH0 SWAP2 POP SWAP1 POP DUP1 PUSH0 ADD DUP1 SLOAD PUSH2 0x16D SWAP1 PUSH2 0xBBA JUMP JUMPDEST DUP1 PUSH1 0x1F ADD PUSH1 0x20 DUP1 SWAP2 DIV MUL PUSH1 0x20 ADD PUSH1 0x40 MLOAD SWAP1 DUP2 ADD PUSH1 0x40 MSTORE DUP1 SWAP3 SWAP2 SWAP1 DUP2 DUP2 MSTORE PUSH1 0x20 ADD DUP3 DUP1 SLOAD PUSH2 0x199 SWAP1 PUSH2 0xBBA JUMP JUMPDEST DUP1 ISZERO PUSH2 0x1E4 JUMPI DUP1 PUSH1 0x1F LT PUSH2 0x1BB JUMPI PUSH2 0x100 DUP1 DUP4 SLOAD DIV MUL DUP4 MSTORE SWAP2 PUSH1 0x20 ADD SWAP2 PUSH2 0x1E4 JUMP JUMPDEST DUP3 ADD SWAP2 SWAP1 PUSH0 MSTORE PUSH1 0x20 PUSH0 KECCAK256 SWAP1 JUMPDEST DUP2 SLOAD DUP2 MSTORE SWAP1 PUSH1 0x1 ADD SWAP1 PUSH1 0x20 ADD DUP1 DUP4 GT PUSH2 0x1C7 JUMPI DUP3 SWAP1 SUB PUSH1 0x1F AND DUP3 ADD SWAP2 JUMPDEST POP POP POP POP POP SWAP1 DUP1 PUSH1 0x1 ADD SLOAD SWAP1 DUP1 PUSH1 0x2 ADD DUP1 SLOAD PUSH2 0x1FF SWAP1 PUSH2 0xBBA JUMP JUMPDEST DUP1 PUSH1 0x1F ADD PUSH1 0x20 DUP1 SWAP2 DIV MUL PUSH1 0x20 ADD PUSH1 0x40 MLOAD SWAP1 DUP2 ADD PUSH1 0x40 MSTORE DUP1 SWAP3 SWAP2 SWAP1 DUP2 DUP2 MSTORE PUSH1 0x20 ADD DUP3 DUP1 SLOAD PUSH2 0x22B SWAP1 PUSH2 0xBBA JUMP JUMPDEST DUP1 ISZERO PUSH2 0x276 JUMPI DUP1 PUSH1 0x1F LT PUSH2 0x24D JUMPI PUSH2 0x100 DUP1 DUP4 SLOAD DIV MUL DUP4 MSTORE SWAP2 PUSH1 0x20 ADD SWAP2 PUSH2 0x276 JUMP JUMPDEST DUP3 ADD SWAP2 SWAP1 PUSH0 MSTORE PUSH1 0x20 PUSH0 KECCAK256 SWAP1 JUMPDEST DUP2 SLOAD DUP2 MSTORE SWAP1 PUSH1 0x1 ADD SWAP1 PUSH1 0x20 ADD DUP1 DUP4 GT PUSH2 0x259 JUMPI DUP3 SWAP1 SUB PUSH1 0x1F AND DUP3 ADD SWAP2 JUMPDEST POP POP POP POP POP SWAP1 DUP1 PUSH1 0x3 ADD DUP1 SLOAD PUSH2 0x28B SWAP1 PUSH2 0xBBA JUMP JUMPDEST DUP1 PUSH1 0x1F ADD PUSH1 0x20 DUP1 SWAP2 DIV MUL PUSH1 0x20 ADD PUSH1 0x40 MLOAD SWAP1 DUP2 ADD PUSH1 0x40 MSTORE DUP1 SWAP3 SWAP2 SWAP1 DUP2 DUP2 MSTORE PUSH1 0x20 ADD DUP3 DUP1 SLOAD PUSH2 0x2B7 SWAP1 PUSH2 0xBBA JUMP JUMPDEST DUP1 ISZERO PUSH2 0x302 JUMPI DUP1 PUSH1 0x1F LT PUSH2 0x2D9 JUMPI PUSH2 0x100 DUP1 DUP4 SLOAD DIV MUL DUP4 MSTORE SWAP2 PUSH1 0x20 ADD SWAP2 PUSH2 0x302 JUMP JUMPDEST DUP3 ADD SWAP2 SWAP1 PUSH0 MSTORE PUSH1 0x20 PUSH0 KECCAK256 SWAP1 JUMPDEST DUP2 SLOAD DUP2 MSTORE SWAP1 PUSH1 0x1 ADD SWAP1 PUSH1 0x20 ADD DUP1 DUP4 GT PUSH2 0x2E5 JUMPI DUP3 SWAP1 SUB PUSH1 0x1F AND DUP3 ADD SWAP2 JUMPDEST POP POP POP POP POP SWAP1 DUP1 PUSH1 0x4 ADD PUSH0 SWAP1 SLOAD SWAP1 PUSH2 0x100 EXP SWAP1 DIV PUSH20 0xFFFFFFFFFFFFFFFFFFFFFFFFFFFFFFFFFFFFFFFF AND SWAP1 DUP1 PUSH1 0x4 ADD PUSH1 0x14 SWAP1 SLOAD SWAP1 PUSH2 0x100 EXP SWAP1 DIV PUSH1 0xFF AND SWAP1 POP DUP7 JUMP JUMPDEST PUSH0 PUSH1 0x1 PUSH0 DUP4 PUSH20 0xFFFFFFFFFFFFFFFFFFFFFFFFFFFFFFFFFFFFFFFF AND PUSH20 0xFFFFFFFFFFFFFFFFFFFFFFFFFFFFFFFFFFFFFFFF AND DUP2 MSTORE PUSH1 0x20 ADD SWAP1 DUP2 MSTORE PUSH1 0x20 ADD PUSH0 KECCAK256 PUSH0 SWAP1 SLOAD SWAP1 PUSH2 0x100 EXP SWAP1 DIV PUSH1 0xFF AND SWAP1 POP SWAP2 SWAP1 POP JUMP JUMPDEST PUSH2 0x39F CALLER PUSH2 0x344 JUMP JUMPDEST PUSH2 0x3DE JUMPI PUSH1 0x40 MLOAD PUSH32 0x8C379A000000000000000000000000000000000000000000000000000000000 DUP2 MSTORE PUSH1 0x4 ADD PUSH2 0x3D5 SWAP1 PUSH2 0xC5A JUMP JUMPDEST PUSH1 0x40 MLOAD DUP1 SWAP2 SUB SWAP1 REVERT JUMPDEST PUSH0 PUSH20 0xFFFFFFFFFFFFFFFFFFFFFFFFFFFFFFFFFFFFFFFF AND PUSH0 DUP1 DUP8 PUSH20 0xFFFFFFFFFFFFFFFFFFFFFFFFFFFFFFFFFFFFFFFF AND PUSH20 0xFFFFFFFFFFFFFFFFFFFFFFFFFFFFFFFFFFFFFFFF AND DUP2 MSTORE PUSH1 0x20 ADD SWAP1 DUP2 MSTORE PUSH1 0x20 ADD PUSH0 KECCAK256 PUSH1 0x4 ADD PUSH0 SWAP1 SLOAD SWAP1 PUSH2 0x100 EXP SWAP1 DIV PUSH20 0xFFFFFFFFFFFFFFFFFFFFFFFFFFFFFFFFFFFFFFFF AND PUSH20 0xFFFFFFFFFFFFFFFFFFFFFFFFFFFFFFFFFFFFFFFF AND EQ PUSH2 0x4AA JUMPI PUSH1 0x40 MLOAD PUSH32 0x8C379A000000000000000000000000000000000000000000000000000000000 DUP2 MSTORE PUSH1 0x4 ADD PUSH2 0x4A1 SWAP1 PUSH2 0xCE8 JUMP JUMPDEST PUSH1 0x40 MLOAD DUP1 SWAP2 SUB SWAP1 REVERT JUMPDEST PUSH0 PUSH1 0x40 MLOAD DUP1 PUSH1 0xC0 ADD PUSH1 0x40 MSTORE DUP1 DUP7 DUP2 MSTORE PUSH1 0x20 ADD DUP6 DUP2 MSTORE PUSH1 0x20 ADD DUP5 DUP2 MSTORE PUSH1 0x20 ADD DUP4 DUP2 MSTORE PUSH1 0x20 ADD CALLER PUSH20 0xFFFFFFFFFFFFFFFFFFFFFFFFFFFFFFFFFFFFFFFF AND DUP2 MSTORE PUSH1 0x20 ADD PUSH1 0x1 ISZERO ISZERO DUP2 MSTORE POP SWAP1 POP DUP1 PUSH0 DUP1 DUP9 PUSH20 0xFFFFFFFFFFFFFFFFFFFFFFFFFFFFFFFFFFFFFFFF AND PUSH20 0xFFFFFFFFFFFFFFFFFFFFFFFFFFFFFFFFFFFFFFFF AND DUP2 MSTORE PUSH1 0x20 ADD SWAP1 DUP2 MSTORE PUSH1 0x20 ADD PUSH0 KECCAK256 PUSH0 DUP3 ADD MLOAD DUP2 PUSH0 ADD SWAP1 DUP2 PUSH2 0x543 SWAP2 SWAP1 PUSH2 0xEA3 JUMP JUMPDEST POP PUSH1 0x20 DUP3 ADD MLOAD DUP2 PUSH1 0x1 ADD SSTORE PUSH1 0x40 DUP3 ADD MLOAD DUP2 PUSH1 0x2 ADD SWAP1 DUP2 PUSH2 0x563 SWAP2 SWAP1 PUSH2 0xEA3 JUMP JUMPDEST POP PUSH1 0x60 DUP3 ADD MLOAD DUP2 PUSH1 0x3 ADD SWAP1 DUP2 PUSH2 0x579 SWAP2 SWAP1 PUSH2 0xEA3 JUMP JUMPDEST POP PUSH1 0x80 DUP3 ADD MLOAD DUP2 PUSH1 0x4 ADD PUSH0 PUSH2 0x100 EXP DUP2 SLOAD DUP2 PUSH20 0xFFFFFFFFFFFFFFFFFFFFFFFFFFFFFFFFFFFFFFFF MUL NOT AND SWAP1 DUP4 PUSH20 0xFFFFFFFFFFFFFFFFFFFFFFFFFFFFFFFFFFFFFFFF AND MUL OR SWAP1 SSTORE POP PUSH1 0xA0 DUP3 ADD MLOAD DUP2 PUSH1 0x4 ADD PUSH1 0x14 PUSH2 0x100 EXP DUP2 SLOAD DUP2 PUSH1 0xFF MUL NOT AND SWAP1 DUP4 ISZERO ISZERO MUL OR SWAP1 SSTORE POP SWAP1 POP POP DUP6 PUSH20 0xFFFFFFFFFFFFFFFFFFFFFFFFFFFFFFFFFFFFFFFF AND PUSH32 0x57E8CF977FEAF93280711D1669E03EAFF15D821BE7C925435862E08DFDA4BA6D DUP5 DUP5 CALLER PUSH1 0x40 MLOAD PUSH2 0x62D SWAP4 SWAP3 SWAP2 SWAP1 PUSH2 0xF72 JUMP JUMPDEST PUSH1 0x40 MLOAD DUP1 SWAP2 SUB SWAP1 LOG2 POP POP POP POP POP POP JUMP JUMPDEST PUSH1 0x1 PUSH1 0x20 MSTORE DUP1 PUSH0 MSTORE PUSH1 0x40 PUSH0 KECCAK256 PUSH0 SWAP2 POP SLOAD SWAP1 PUSH2 0x100 EXP SWAP1 DIV PUSH1 0xFF AND DUP2 JUMP JUMPDEST PUSH1 0x2 PUSH0 SWAP1 SLOAD SWAP1 PUSH2 0x100 EXP SWAP1 DIV PUSH20 0xFFFFFFFFFFFFFFFFFFFFFFFFFFFFFFFFFFFFFFFF AND DUP2 JUMP JUMPDEST PUSH1 0x2 PUSH0 SWAP1 SLOAD SWAP1 PUSH2 0x100 EXP SWAP1 DIV PUSH20 0xFFFFFFFFFFFFFFFFFFFFFFFFFFFFFFFFFFFFFFFF AND PUSH20 0xFFFFFFFFFFFFFFFFFFFFFFFFFFFFFFFFFFFFFFFF AND CALLER PUSH20 0xFFFFFFFFFFFFFFFFFFFFFFFFFFFFFFFFFFFFFFFF AND EQ PUSH2 0x70E JUMPI PUSH1 0x40 MLOAD PUSH32 0x8C379A000000000000000000000000000000000000000000000000000000000 DUP2 MSTORE PUSH1 0x4 ADD PUSH2 0x705 SWAP1 PUSH2 0x1025 JUMP JUMPDEST PUSH1 0x40 MLOAD DUP1 SWAP2 SUB SWAP1 REVERT JUMPDEST PUSH1 0x1 DUP1 PUSH0 DUP4 PUSH20 0xFFFFFFFFFFFFFFFFFFFFFFFFFFFFFFFFFFFFFFFF AND PUSH20 0xFFFFFFFFFFFFFFFFFFFFFFFFFFFFFFFFFFFFFFFF AND DUP2 MSTORE PUSH1 0x20 ADD SWAP1 DUP2 MSTORE PUSH1 0x20 ADD PUSH0 KECCAK256 PUSH0 PUSH2 0x100 EXP DUP2 SLOAD DUP2 PUSH1 0xFF MUL NOT AND SWAP1 DUP4 ISZERO ISZERO MUL OR SWAP1 SSTORE POP POP JUMP JUMPDEST PUSH0 PUSH1 0x40 MLOAD SWAP1 POP SWAP1 JUMP JUMPDEST PUSH0 DUP1 REVERT JUMPDEST PUSH0 DUP1 REVERT JUMPDEST PUSH0 PUSH20 0xFFFFFFFFFFFFFFFFFFFFFFFFFFFFFFFFFFFFFFFF DUP3 AND SWAP1 POP SWAP2 SWAP1 POP JUMP JUMPDEST PUSH0 PUSH2 0x79F DUP3 PUSH2 0x776 JUMP JUMPDEST SWAP1 POP SWAP2 SWAP1 POP JUMP JUMPDEST PUSH2 0x7AF DUP2 PUSH2 0x795 JUMP JUMPDEST DUP2 EQ PUSH2 0x7B9 JUMPI PUSH0 DUP1 REVERT JUMPDEST POP JUMP JUMPDEST PUSH0 DUP2 CALLDATALOAD SWAP1 POP PUSH2 0x7CA DUP2 PUSH2 0x7A6 JUMP JUMPDEST SWAP3 SWAP2 POP POP JUMP JUMPDEST PUSH0 PUSH1 0x20 DUP3 DUP5 SUB SLT ISZERO PUSH2 0x7E5 JUMPI PUSH2 0x7E4 PUSH2 0x76E JUMP JUMPDEST JUMPDEST PUSH0 PUSH2 0x7F2 DUP5 DUP3 DUP6 ADD PUSH2 0x7BC JUMP JUMPDEST SWAP2 POP POP SWAP3 SWAP2 POP POP JUMP JUMPDEST PUSH0 DUP2 MLOAD SWAP1 POP SWAP2 SWAP1 POP JUMP JUMPDEST PUSH0 DUP3 DUP3 MSTORE PUSH1 0x20 DUP3 ADD SWAP1 POP SWAP3 SWAP2 POP POP JUMP JUMPDEST PUSH0 JUMPDEST DUP4 DUP2 LT ISZERO PUSH2 0x832 JUMPI DUP1 DUP3 ADD MLOAD DUP2 DUP5 ADD MSTORE PUSH1 0x20 DUP2 ADD SWAP1 POP PUSH2 0x817 JUMP JUMPDEST PUSH0 DUP5 DUP5 ADD MSTORE POP POP POP POP JUMP JUMPDEST PUSH0 PUSH1 0x1F NOT PUSH1 0x1F DUP4 ADD AND SWAP1 POP SWAP2 SWAP1 POP JUMP JUMPDEST PUSH0 PUSH2 0x857 DUP3 PUSH2 0x7FB JUMP JUMPDEST PUSH2 0x861 DUP2 DUP6 PUSH2 0x805 JUMP JUMPDEST SWAP4 POP PUSH2 0x871 DUP2 DUP6 PUSH1 0x20 DUP7 ADD PUSH2 0x815 JUMP JUMPDEST PUSH2 0x87A DUP2 PUSH2 0x83D JUMP JUMPDEST DUP5 ADD SWAP2 POP POP SWAP3 SWAP2 POP POP JUMP JUMPDEST PUSH0 DUP2 SWAP1 POP SWAP2 SWAP1 POP JUMP JUMPDEST PUSH2 0x897 DUP2 PUSH2 0x885 JUMP JUMPDEST DUP3 MSTORE POP POP JUMP JUMPDEST PUSH2 0x8A6 DUP2 PUSH2 0x795 JUMP JUMPDEST DUP3 MSTORE POP POP JUMP JUMPDEST PUSH0 DUP2 ISZERO ISZERO SWAP1 POP SWAP2 SWAP1 POP JUMP JUMPDEST PUSH2 0x8C0 DUP2 PUSH2 0x8AC JUMP JUMPDEST DUP3 MSTORE POP POP JUMP JUMPDEST PUSH0 PUSH1 0xC0 DUP3 ADD SWAP1 POP DUP2 DUP2 SUB PUSH0 DUP4 ADD MSTORE PUSH2 0x8DE DUP2 DUP10 PUSH2 0x84D JUMP JUMPDEST SWAP1 POP PUSH2 0x8ED PUSH1 0x20 DUP4 ADD DUP9 PUSH2 0x88E JUMP JUMPDEST DUP2 DUP2 SUB PUSH1 0x40 DUP4 ADD MSTORE PUSH2 0x8FF DUP2 DUP8 PUSH2 0x84D JUMP JUMPDEST SWAP1 POP DUP2 DUP2 SUB PUSH1 0x60 DUP4 ADD MSTORE PUSH2 0x913 DUP2 DUP7 PUSH2 0x84D JUMP JUMPDEST SWAP1 POP PUSH2 0x922 PUSH1 0x80 DUP4 ADD DUP6 PUSH2 0x89D JUMP JUMPDEST PUSH2 0x92F PUSH1 0xA0 DUP4 ADD DUP5 PUSH2 0x8B7 JUMP JUMPDEST SWAP8 SWAP7 POP POP POP POP POP POP POP JUMP JUMPDEST PUSH0 PUSH1 0x20 DUP3 ADD SWAP1 POP PUSH2 0x94D PUSH0 DUP4 ADD DUP5 PUSH2 0x8B7 JUMP JUMPDEST SWAP3 SWAP2 POP POP JUMP JUMPDEST PUSH0 DUP1 REVERT JUMPDEST PUSH0 DUP1 REVERT JUMPDEST PUSH32 0x4E487B7100000000000000000000000000000000000000000000000000000000 PUSH0 MSTORE PUSH1 0x41 PUSH1 0x4 MSTORE PUSH1 0x24 PUSH0 REVERT JUMPDEST PUSH2 0x991 DUP3 PUSH2 0x83D JUMP JUMPDEST DUP2 ADD DUP2 DUP2 LT PUSH8 0xFFFFFFFFFFFFFFFF DUP3 GT OR ISZERO PUSH2 0x9B0 JUMPI PUSH2 0x9AF PUSH2 0x95B JUMP JUMPDEST JUMPDEST DUP1 PUSH1 0x40 MSTORE POP POP POP JUMP JUMPDEST PUSH0 PUSH2 0x9C2 PUSH2 0x765 JUMP JUMPDEST SWAP1 POP PUSH2 0x9CE DUP3 DUP3 PUSH2 0x988 JUMP JUMPDEST SWAP2 SWAP1 POP JUMP JUMPDEST PUSH0 PUSH8 0xFFFFFFFFFFFFFFFF DUP3 GT ISZERO PUSH2 0x9ED JUMPI PUSH2 0x9EC PUSH2 0x95B JUMP JUMPDEST JUMPDEST PUSH2 0x9F6 DUP3 PUSH2 0x83D JUMP JUMPDEST SWAP1 POP PUSH1 0x20 DUP2 ADD SWAP1 POP SWAP2 SWAP1 POP JUMP JUMPDEST DUP3 DUP2 DUP4 CALLDATACOPY PUSH0 DUP4 DUP4 ADD MSTORE POP POP POP JUMP JUMPDEST PUSH0 PUSH2 0xA23 PUSH2 0xA1E DUP5 PUSH2 0x9D3 JUMP JUMPDEST PUSH2 0x9B9 JUMP JUMPDEST SWAP1 POP DUP3 DUP2 MSTORE PUSH1 0x20 DUP2 ADD DUP5 DUP5 DUP5 ADD GT ISZERO PUSH2 0xA3F JUMPI PUSH2 0xA3E PUSH2 0x957 JUMP JUMPDEST JUMPDEST PUSH2 0xA4A DUP5 DUP3 DUP6 PUSH2 0xA03 JUMP JUMPDEST POP SWAP4 SWAP3 POP POP POP JUMP JUMPDEST PUSH0 DUP3 PUSH1 0x1F DUP4 ADD SLT PUSH2 0xA66 JUMPI PUSH2 0xA65 PUSH2 0x953 JUMP JUMPDEST JUMPDEST DUP2 CALLDATALOAD PUSH2 0xA76 DUP5 DUP3 PUSH1 0x20 DUP7 ADD PUSH2 0xA11 JUMP JUMPDEST SWAP2 POP POP SWAP3 SWAP2 POP POP JUMP JUMPDEST PUSH2 0xA88 DUP2 PUSH2 0x885 JUMP JUMPDEST DUP2 EQ PUSH2 0xA92 JUMPI PUSH0 DUP1 REVERT JUMPDEST POP JUMP JUMPDEST PUSH0 DUP2 CALLDATALOAD SWAP1 POP PUSH2 0xAA3 DUP2 PUSH2 0xA7F JUMP JUMPDEST SWAP3 SWAP2 POP POP JUMP JUMPDEST PUSH0 DUP1 PUSH0 DUP1 PUSH0 PUSH1 0xA0 DUP7 DUP9 SUB SLT ISZERO PUSH2 0xAC2 JUMPI PUSH2 0xAC1 PUSH2 0x76E JUMP JUMPDEST JUMPDEST PUSH0 PUSH2 0xACF DUP9 DUP3 DUP10 ADD PUSH2 0x7BC JUMP JUMPDEST SWAP6 POP POP PUSH1 0x20 DUP7 ADD CALLDATALOAD PUSH8 0xFFFFFFFFFFFFFFFF DUP2 GT ISZERO PUSH2 0xAF0 JUMPI PUSH2 0xAEF PUSH2 0x772 JUMP JUMPDEST JUMPDEST PUSH2 0xAFC DUP9 DUP3 DUP10 ADD PUSH2 0xA52 JUMP JUMPDEST SWAP5 POP POP PUSH1 0x40 PUSH2 0xB0D DUP9 DUP3 DUP10 ADD PUSH2 0xA95 JUMP JUMPDEST SWAP4 POP POP PUSH1 0x60 DUP7 ADD CALLDATALOAD PUSH8 0xFFFFFFFFFFFFFFFF DUP2 GT ISZERO PUSH2 0xB2E JUMPI PUSH2 0xB2D PUSH2 0x772 JUMP JUMPDEST JUMPDEST PUSH2 0xB3A DUP9 DUP3 DUP10 ADD PUSH2 0xA52 JUMP JUMPDEST SWAP3 POP POP PUSH1 0x80 DUP7 ADD CALLDATALOAD PUSH8 0xFFFFFFFFFFFFFFFF DUP2 GT ISZERO PUSH2 0xB5B JUMPI PUSH2 0xB5A PUSH2 0x772 JUMP JUMPDEST JUMPDEST PUSH2 0xB67 DUP9 DUP3 DUP10 ADD PUSH2 0xA52 JUMP JUMPDEST SWAP2 POP POP SWAP3 SWAP6 POP SWAP3 SWAP6 SWAP1 SWAP4 POP JUMP JUMPDEST PUSH0 PUSH1 0x20 DUP3 ADD SWAP1 POP PUSH2 0xB87 PUSH0 DUP4 ADD DUP5 PUSH2 0x89D JUMP JUMPDEST SWAP3 SWAP2 POP POP JUMP JUMPDEST PUSH32 0x4E487B7100000000000000000000000000000000000000000000000000000000 PUSH0 MSTORE PUSH1 0x22 PUSH1 0x4 MSTORE PUSH1 0x24 PUSH0 REVERT JUMPDEST PUSH0 PUSH1 0x2 DUP3 DIV SWAP1 POP PUSH1 0x1 DUP3 AND DUP1 PUSH2 0xBD1 JUMPI PUSH1 0x7F DUP3 AND SWAP2 POP JUMPDEST PUSH1 0x20 DUP3 LT DUP2 SUB PUSH2 0xBE4 JUMPI PUSH2 0xBE3 PUSH2 0xB8D JUMP JUMPDEST JUMPDEST POP SWAP2 SWAP1 POP JUMP JUMPDEST PUSH32 0x4F6E6C7920617070726F766564206865616C7468636172652070726F76696465 PUSH0 DUP3 ADD MSTORE PUSH32 0x72732063616E2061636365737320746869732066756E6374696F6E2E00000000 PUSH1 0x20 DUP3 ADD MSTORE POP JUMP JUMPDEST PUSH0 PUSH2 0xC44 PUSH1 0x3C DUP4 PUSH2 0x805 JUMP JUMPDEST SWAP2 POP PUSH2 0xC4F DUP3 PUSH2 0xBEA JUMP JUMPDEST PUSH1 0x40 DUP3 ADD SWAP1 POP SWAP2 SWAP1 POP JUMP JUMPDEST PUSH0 PUSH1 0x20 DUP3 ADD SWAP1 POP DUP2 DUP2 SUB PUSH0 DUP4 ADD MSTORE PUSH2 0xC71 DUP2 PUSH2 0xC38 JUMP JUMPDEST SWAP1 POP SWAP2 SWAP1 POP JUMP JUMPDEST PUSH32 0x4D65646963616C207265636F726420666F7220746869732070617469656E7420 PUSH0 DUP3 ADD MSTORE PUSH32 0x616C7265616479206578697374732E0000000000000000000000000000000000 PUSH1 0x20 DUP3 ADD MSTORE POP JUMP JUMPDEST PUSH0 PUSH2 0xCD2 PUSH1 0x2F DUP4 PUSH2 0x805 JUMP JUMPDEST SWAP2 POP PUSH2 0xCDD DUP3 PUSH2 0xC78 JUMP JUMPDEST PUSH1 0x40 DUP3 ADD SWAP1 POP SWAP2 SWAP1 POP JUMP JUMPDEST PUSH0 PUSH1 0x20 DUP3 ADD SWAP1 POP DUP2 DUP2 SUB PUSH0 DUP4 ADD MSTORE PUSH2 0xCFF DUP2 PUSH2 0xCC6 JUMP JUMPDEST SWAP1 POP SWAP2 SWAP1 POP JUMP JUMPDEST PUSH0 DUP2 SWAP1 POP DUP2 PUSH0 MSTORE PUSH1 0x20 PUSH0 KECCAK256 SWAP1 POP SWAP2 SWAP1 POP JUMP JUMPDEST PUSH0 PUSH1 0x20 PUSH1 0x1F DUP4 ADD DIV SWAP1 POP SWAP2 SWAP1 POP JUMP JUMPDEST PUSH0 DUP3 DUP3 SHL SWAP1 POP SWAP3 SWAP2 POP POP JUMP JUMPDEST PUSH0 PUSH1 0x8 DUP4 MUL PUSH2 0xD62 PUSH32 0xFFFFFFFFFFFFFFFFFFFFFFFFFFFFFFFFFFFFFFFFFFFFFFFFFFFFFFFFFFFFFFFF DUP3 PUSH2 0xD27 JUMP JUMPDEST PUSH2 0xD6C DUP7 DUP4 PUSH2 0xD27 JUMP JUMPDEST SWAP6 POP DUP1 NOT DUP5 AND SWAP4 POP DUP1 DUP7 AND DUP5 OR SWAP3 POP POP POP SWAP4 SWAP3 POP POP POP JUMP JUMPDEST PUSH0 DUP2 SWAP1 POP SWAP2 SWAP1 POP JUMP JUMPDEST PUSH0 PUSH2 0xDA7 PUSH2 0xDA2 PUSH2 0xD9D DUP5 PUSH2 0x885 JUMP JUMPDEST PUSH2 0xD84 JUMP JUMPDEST PUSH2 0x885 JUMP JUMPDEST SWAP1 POP SWAP2 SWAP1 POP JUMP JUMPDEST PUSH0 DUP2 SWAP1 POP SWAP2 SWAP1 POP JUMP JUMPDEST PUSH2 0xDC0 DUP4 PUSH2 0xD8D JUMP JUMPDEST PUSH2 0xDD4 PUSH2 0xDCC DUP3 PUSH2 0xDAE JUMP JUMPDEST DUP5 DUP5 SLOAD PUSH2 0xD33 JUMP JUMPDEST DUP3 SSTORE POP POP POP POP JUMP JUMPDEST PUSH0 SWAP1 JUMP JUMPDEST PUSH2 0xDE8 PUSH2 0xDDC JUMP JUMPDEST PUSH2 0xDF3 DUP2 DUP5 DUP5 PUSH2 0xDB7 JUMP JUMPDEST POP POP POP JUMP JUMPDEST JUMPDEST DUP2 DUP2 LT ISZERO PUSH2 0xE16 JUMPI PUSH2 0xE0B PUSH0 DUP3 PUSH2 0xDE0 JUMP JUMPDEST PUSH1 0x1 DUP2 ADD SWAP1 POP PUSH2 0xDF9 JUMP JUMPDEST POP POP JUMP JUMPDEST PUSH1 0x1F DUP3 GT ISZERO PUSH2 0xE5B JUMPI PUSH2 0xE2C DUP2 PUSH2 0xD06 JUMP JUMPDEST PUSH2 0xE35 DUP5 PUSH2 0xD18 JUMP JUMPDEST DUP2 ADD PUSH1 0x20 DUP6 LT ISZERO PUSH2 0xE44 JUMPI DUP2 SWAP1 POP JUMPDEST PUSH2 0xE58 PUSH2 0xE50 DUP6 PUSH2 0xD18 JUMP JUMPDEST DUP4 ADD DUP3 PUSH2 0xDF8 JUMP JUMPDEST POP POP JUMPDEST POP POP POP JUMP JUMPDEST PUSH0 DUP3 DUP3 SHR SWAP1 POP SWAP3 SWAP2 POP POP JUMP JUMPDEST PUSH0 PUSH2 0xE7B PUSH0 NOT DUP5 PUSH1 0x8 MUL PUSH2 0xE60 JUMP JUMPDEST NOT DUP1 DUP4 AND SWAP2 POP POP SWAP3 SWAP2 POP POP JUMP JUMPDEST PUSH0 PUSH2 0xE93 DUP4 DUP4 PUSH2 0xE6C JUMP JUMPDEST SWAP2 POP DUP3 PUSH1 0x2 MUL DUP3 OR SWAP1 POP SWAP3 SWAP2 POP POP JUMP JUMPDEST PUSH2 0xEAC DUP3 PUSH2 0x7FB JUMP JUMPDEST PUSH8 0xFFFFFFFFFFFFFFFF DUP2 GT ISZERO PUSH2 0xEC5 JUMPI PUSH2 0xEC4 PUSH2 0x95B JUMP JUMPDEST JUMPDEST PUSH2 0xECF DUP3 SLOAD PUSH2 0xBBA JUMP JUMPDEST PUSH2 0xEDA DUP3 DUP3 DUP6 PUSH2 0xE1A JUMP JUMPDEST PUSH0 PUSH1 0x20 SWAP1 POP PUSH1 0x1F DUP4 GT PUSH1 0x1 DUP2 EQ PUSH2 0xF0B JUMPI PUSH0 DUP5 ISZERO PUSH2 0xEF9 JUMPI DUP3 DUP8 ADD MLOAD SWAP1 POP JUMPDEST PUSH2 0xF03 DUP6 DUP3 PUSH2 0xE88 JUMP JUMPDEST DUP7 SSTORE POP PUSH2 0xF6A JUMP JUMPDEST PUSH1 0x1F NOT DUP5 AND PUSH2 0xF19 DUP7 PUSH2 0xD06 JUMP JUMPDEST PUSH0 JUMPDEST DUP3 DUP2 LT ISZERO PUSH2 0xF40 JUMPI DUP5 DUP10 ADD MLOAD DUP3 SSTORE PUSH1 0x1 DUP3 ADD SWAP2 POP PUSH1 0x20 DUP6 ADD SWAP5 POP PUSH1 0x20 DUP2 ADD SWAP1 POP PUSH2 0xF1B JUMP JUMPDEST DUP7 DUP4 LT ISZERO PUSH2 0xF5D JUMPI DUP5 DUP10 ADD MLOAD PUSH2 0xF59 PUSH1 0x1F DUP10 AND DUP3 PUSH2 0xE6C JUMP JUMPDEST DUP4 SSTORE POP JUMPDEST PUSH1 0x1 PUSH1 0x2 DUP9 MUL ADD DUP9 SSTORE POP POP POP JUMPDEST POP POP POP POP POP POP JUMP JUMPDEST PUSH0 PUSH1 0x60 DUP3 ADD SWAP1 POP DUP2 DUP2 SUB PUSH0 DUP4 ADD MSTORE PUSH2 0xF8A DUP2 DUP7 PUSH2 0x84D JUMP JUMPDEST SWAP1 POP DUP2 DUP2 SUB PUSH1 0x20 DUP4 ADD MSTORE PUSH2 0xF9E DUP2 DUP6 PUSH2 0x84D JUMP JUMPDEST SWAP1 POP PUSH2 0xFAD PUSH1 0x40 DUP4 ADD DUP5 PUSH2 0x89D JUMP JUMPDEST SWAP5 SWAP4 POP POP POP POP JUMP JUMPDEST PUSH32 0x4F6E6C792074686520636F6E7472616374206F776E65722063616E2061707072 PUSH0 DUP3 ADD MSTORE PUSH32 0x6F7665206865616C7468636172652070726F7669646572732E00000000000000 PUSH1 0x20 DUP3 ADD MSTORE POP JUMP JUMPDEST PUSH0 PUSH2 0x100F PUSH1 0x39 DUP4 PUSH2 0x805 JUMP JUMPDEST SWAP2 POP PUSH2 0x101A DUP3 PUSH2 0xFB5 JUMP JUMPDEST PUSH1 0x40 DUP3 ADD SWAP1 POP SWAP2 SWAP1 POP JUMP JUMPDEST PUSH0 PUSH1 0x20 DUP3 ADD SWAP1 POP DUP2 DUP2 SUB PUSH0 DUP4 ADD MSTORE PUSH2 0x103C DUP2 PUSH2 0x1003 JUMP JUMPDEST SWAP1 POP SWAP2 SWAP1 POP JUMP INVALID LOG2 PUSH5 0x6970667358 0x22 SLT KECCAK256 PUSH4 0x3D496E13 EXP POP PUSH3 0xBD8095 0x5E 0x4D SWAP3 NUMBER 0xC LOG2 0xD7 SHL 0xE3 RETURN 0xEB 0xD6 MLOAD 0xB9 DUP12 0x25 STATICCALL 0xDB 0xA7 JUMPI EXTCODESIZE PUSH5 0x736F6C6343 STOP ADDMOD AND STOP CALLER "
				},
				"gasEstimates": {
					"creation": {
						"codeDepositCost": "843400",
						"executionCost": "25140",
						"totalCost": "868540"
					},
					"external": {
						"addMedicalRecord(address,string,uint256,string,string)": "infinite",
						"approveHealthcareProvider(address)": "27060",
						"approvedProviders(address)": "2877",
						"isApprovedProvider(address)": "2870",
						"medicalRecords(address)": "infinite",
						"owner()": "2574"
					}
				},
				"methodIdentifiers": {
					"addMedicalRecord(address,string,uint256,string,string)": "56bd0cfc",
					"approveHealthcareProvider(address)": "a3bb58ff",
					"approvedProviders(address)": "8139ef9a",
					"isApprovedProvider(address)": "3e1cc60e",
					"medicalRecords(address)": "106d6170",
					"owner()": "8da5cb5b"
				}
			},
			"storageLayout": {
				"storage": [
					{
						"astId": 19,
						"contract": "Dapps/1_Healthcare_Records.sol:HealthcareRecords",
						"label": "medicalRecords",
						"offset": 0,
						"slot": "0",
						"type": "t_mapping(t_address,t_struct(MedicalRecord)14_storage)"
					},
					{
						"astId": 45,
						"contract": "Dapps/1_Healthcare_Records.sol:HealthcareRecords",
						"label": "approvedProviders",
						"offset": 0,
						"slot": "1",
						"type": "t_mapping(t_address,t_bool)"
					},
					{
						"astId": 135,
						"contract": "Dapps/1_Healthcare_Records.sol:HealthcareRecords",
						"label": "owner",
						"offset": 0,
						"slot": "2",
						"type": "t_address"
					}
				],
				"types": {
					"t_address": {
						"encoding": "inplace",
						"label": "address",
						"numberOfBytes": "20"
					},
					"t_bool": {
						"encoding": "inplace",
						"label": "bool",
						"numberOfBytes": "1"
					},
					"t_mapping(t_address,t_bool)": {
						"encoding": "mapping",
						"key": "t_address",
						"label": "mapping(address => bool)",
						"numberOfBytes": "32",
						"value": "t_bool"
					},
					"t_mapping(t_address,t_struct(MedicalRecord)14_storage)": {
						"encoding": "mapping",
						"key": "t_address",
						"label": "mapping(address => struct HealthcareRecords.MedicalRecord)",
						"numberOfBytes": "32",
						"value": "t_struct(MedicalRecord)14_storage"
					},
					"t_string_storage": {
						"encoding": "bytes",
						"label": "string",
						"numberOfBytes": "32"
					},
					"t_struct(MedicalRecord)14_storage": {
						"encoding": "inplace",
						"label": "struct HealthcareRecords.MedicalRecord",
						"members": [
							{
								"astId": 3,
								"contract": "Dapps/1_Healthcare_Records.sol:HealthcareRecords",
								"label": "patientName",
								"offset": 0,
								"slot": "0",
								"type": "t_string_storage"
							},
							{
								"astId": 5,
								"contract": "Dapps/1_Healthcare_Records.sol:HealthcareRecords",
								"label": "birthDate",
								"offset": 0,
								"slot": "1",
								"type": "t_uint256"
							},
							{
								"astId": 7,
								"contract": "Dapps/1_Healthcare_Records.sol:HealthcareRecords",
								"label": "diagnosis",
								"offset": 0,
								"slot": "2",
								"type": "t_string_storage"
							},
							{
								"astId": 9,
								"contract": "Dapps/1_Healthcare_Records.sol:HealthcareRecords",
								"label": "treatment",
								"offset": 0,
								"slot": "3",
								"type": "t_string_storage"
							},
							{
								"astId": 11,
								"contract": "Dapps/1_Healthcare_Records.sol:HealthcareRecords",
								"label": "healthcareProvider",
								"offset": 0,
								"slot": "4",
								"type": "t_address"
							},
							{
								"astId": 13,
								"contract": "Dapps/1_Healthcare_Records.sol:HealthcareRecords",
								"label": "isApproved",
								"offset": 20,
								"slot": "4",
								"type": "t_bool"
							}
						],
						"numberOfBytes": "160"
					},
					"t_uint256": {
						"encoding": "inplace",
						"label": "uint256",
						"numberOfBytes": "32"
					}
				}
			},
			"userdoc": {
				"kind": "user",
				"methods": {},
				"version": 1
			}
		}
	}
}